{
  "_format": "hh-sol-artifact-1",
  "contractName": "ApprovingSingleEditionMintable",
  "sourceName": "contracts/zora/ApprovingSingleEditionMintable.sol",
  "abi": [
    {
      "inputs": [
        {
          "internalType": "address",
          "name": "underlyingContract_",
          "type": "address"
        },
        {
          "internalType": "contract ITier",
          "name": "tier_",
          "type": "address"
        },
        {
          "internalType": "enum ITier.Tier",
          "name": "minimumStatus_",
          "type": "uint8"
        }
      ],
      "stateMutability": "nonpayable",
      "type": "constructor"
    },
    {
      "inputs": [],
      "name": "constructionBlock",
      "outputs": [
        {
          "internalType": "uint256",
          "name": "",
          "type": "uint256"
        }
      ],
      "stateMutability": "view",
      "type": "function"
    },
    {
      "inputs": [
        {
          "internalType": "address",
          "name": "account_",
          "type": "address"
        },
        {
          "internalType": "enum ITier.Tier",
          "name": "minimumTier_",
          "type": "uint8"
        }
      ],
      "name": "isTier",
      "outputs": [
        {
          "internalType": "bool",
          "name": "",
          "type": "bool"
        }
      ],
      "stateMutability": "view",
      "type": "function"
    },
    {
      "inputs": [],
      "name": "minimumStatus",
      "outputs": [
        {
          "internalType": "enum ITier.Tier",
          "name": "",
          "type": "uint8"
        }
      ],
      "stateMutability": "view",
      "type": "function"
    },
    {
      "inputs": [
        {
          "internalType": "address",
          "name": "to",
          "type": "address"
        }
      ],
      "name": "mintEdition",
      "outputs": [
        {
          "internalType": "uint256",
          "name": "",
          "type": "uint256"
        }
      ],
      "stateMutability": "nonpayable",
      "type": "function"
    },
    {
      "inputs": [
        {
          "internalType": "address[]",
          "name": "to",
          "type": "address[]"
        }
      ],
      "name": "mintEditions",
      "outputs": [
        {
          "internalType": "uint256",
          "name": "",
          "type": "uint256"
        }
      ],
      "stateMutability": "nonpayable",
      "type": "function"
    },
    {
      "inputs": [],
      "name": "tierContract",
      "outputs": [
        {
          "internalType": "contract ITier",
          "name": "",
          "type": "address"
        }
      ],
      "stateMutability": "view",
      "type": "function"
    }
  ],
  "bytecode": "0x608060405234801561001057600080fd5b5060405161082f38038061082f83398101604081905261002f916100ad565b600080546001600160a01b038085166001600160a01b031992831617909255436001556002805492861691831682178155839290916001600160a81b031990911617600160a01b836008811115610088576100886100fe565b0217905550505050610114565b6001600160a01b03811681146100aa57600080fd5b50565b6000806000606084860312156100c257600080fd5b83516100cd81610095565b60208501519093506100de81610095565b6040850151909250600981106100f357600080fd5b809150509250925092565b634e487b7160e01b600052602160045260246000fd5b61070c806101236000396000f3fe608060405234801561001057600080fd5b50600436106100725760003560e01c8063a30872db11610050578063a30872db146100c9578063a3dbec981461010e578063a66ff0af1461014057600080fd5b80630f0af57f146100775780630f6a93491461009357806377544f33146100a6575b600080fd5b61008060015481565b6040519081526020015b60405180910390f35b6100806100a1366004610430565b610153565b6100b96100b4366004610513565b6101f3565b604051901515815260200161008a565b6000546100e99073ffffffffffffffffffffffffffffffffffffffff1681565b60405173ffffffffffffffffffffffffffffffffffffffff909116815260200161008a565b6002546101339074010000000000000000000000000000000000000000900460ff1681565b60405161008a919061057d565b61008061014e3660046105be565b61029c565b6002546040517f0f6a934900000000000000000000000000000000000000000000000000000000815260009173ffffffffffffffffffffffffffffffffffffffff1690630f6a9349906101aa9085906004016105e0565b6020604051808303816000875af11580156101c9573d6000803e3d6000fd5b505050506040513d601f19601f820116820180604052508101906101ed919061063a565b92915050565b600080546040517fe053ea3100000000000000000000000000000000000000000000000000000000815273ffffffffffffffffffffffffffffffffffffffff858116600483015261029092169063e053ea3190602401602060405180830381865afa158015610266573d6000803e3d6000fd5b505050506040513d601f19601f8201168201806040525081019061028a919061063a565b83610379565b60015410159392505050565b60006102b782600260149054906101000a900460ff166101f3565b610321576040517f08c379a000000000000000000000000000000000000000000000000000000000815260206004820152600860248201527f4d494e5f54494552000000000000000000000000000000000000000000000000604482015260640160405180910390fd5b6002546040517fa66ff0af00000000000000000000000000000000000000000000000000000000815273ffffffffffffffffffffffffffffffffffffffff84811660048301529091169063a66ff0af906024016101aa565b60008082600881111561038e5761038e61054e565b141561039c575060006101ed565b600060018360088111156103b2576103b261054e565b6103bc9190610682565b6103c7906020610699565b9390931c63ffffffff169392505050565b7f4e487b7100000000000000000000000000000000000000000000000000000000600052604160045260246000fd5b803573ffffffffffffffffffffffffffffffffffffffff8116811461042b57600080fd5b919050565b6000602080838503121561044357600080fd5b823567ffffffffffffffff8082111561045b57600080fd5b818501915085601f83011261046f57600080fd5b813581811115610481576104816103d8565b8060051b6040517fffffffffffffffffffffffffffffffffffffffffffffffffffffffffffffffe0603f830116810181811085821117156104c4576104c46103d8565b6040529182528482019250838101850191888311156104e257600080fd5b938501935b82851015610507576104f885610407565b845293850193928501926104e7565b98975050505050505050565b6000806040838503121561052657600080fd5b61052f83610407565b915060208301356009811061054357600080fd5b809150509250929050565b7f4e487b7100000000000000000000000000000000000000000000000000000000600052602160045260246000fd5b60208101600983106105b8577f4e487b7100000000000000000000000000000000000000000000000000000000600052602160045260246000fd5b91905290565b6000602082840312156105d057600080fd5b6105d982610407565b9392505050565b6020808252825182820181905260009190848201906040850190845b8181101561062e57835173ffffffffffffffffffffffffffffffffffffffff16835292840192918401916001016105fc565b50909695505050505050565b60006020828403121561064c57600080fd5b5051919050565b7f4e487b7100000000000000000000000000000000000000000000000000000000600052601160045260246000fd5b60008282101561069457610694610653565b500390565b6000817fffffffffffffffffffffffffffffffffffffffffffffffffffffffffffffffff04831182151516156106d1576106d1610653565b50029056fea26469706673582212209e493aab23ce9bcfa1ac96dbff8d7773395041394d87cf3821506a316ac795ac64736f6c634300080a0033",
  "linkReferences": {},
  "deployedLinkReferences": {}
}