{
  "_format": "hh-sol-artifact-1",
  "contractName": "ApprovingSingleEditionMintableCreator",
  "sourceName": "contracts/zora/ApprovingSingleEditionMintableCreator.sol",
  "abi": [
    {
      "inputs": [
        {
          "internalType": "address",
          "name": "factory_",
          "type": "address"
        }
      ],
      "stateMutability": "nonpayable",
      "type": "constructor"
    },
    {
      "anonymous": false,
      "inputs": [
        {
          "indexed": true,
          "internalType": "uint256",
          "name": "editionId",
          "type": "uint256"
        },
        {
          "indexed": true,
          "internalType": "address",
          "name": "creator",
          "type": "address"
        },
        {
          "indexed": false,
          "internalType": "uint256",
          "name": "editionSize",
          "type": "uint256"
        },
        {
          "indexed": false,
          "internalType": "address",
          "name": "wrapperContractAddress",
          "type": "address"
        },
        {
          "indexed": false,
          "internalType": "address",
          "name": "underlyingContractAddress",
          "type": "address"
        }
      ],
      "name": "CreatedApprovingEdition",
      "type": "event"
    },
    {
      "inputs": [
        {
          "internalType": "string",
          "name": "_name",
          "type": "string"
        },
        {
          "internalType": "string",
          "name": "_symbol",
          "type": "string"
        },
        {
          "internalType": "string",
          "name": "_description",
          "type": "string"
        },
        {
          "internalType": "string",
          "name": "_animationUrl",
          "type": "string"
        },
        {
          "internalType": "bytes32",
          "name": "_animationHash",
          "type": "bytes32"
        },
        {
          "internalType": "string",
          "name": "_imageUrl",
          "type": "string"
        },
        {
          "internalType": "bytes32",
          "name": "_imageHash",
          "type": "bytes32"
        },
        {
          "internalType": "uint256",
          "name": "_editionSize",
          "type": "uint256"
        },
        {
          "internalType": "uint256",
          "name": "_royaltyBPS",
          "type": "uint256"
        },
        {
          "internalType": "contract ITier",
          "name": "_tier",
          "type": "address"
        },
        {
          "internalType": "enum ITier.Tier",
          "name": "_minimumStatus",
          "type": "uint8"
        }
      ],
      "name": "createEdition",
      "outputs": [
        {
          "internalType": "uint256",
          "name": "",
          "type": "uint256"
        }
      ],
      "stateMutability": "nonpayable",
      "type": "function"
    }
  ],
  "bytecode": "0x608060405234801561001057600080fd5b506040516110bb3803806110bb83398101604081905261002f91610054565b600080546001600160a01b0319166001600160a01b0392909216919091179055610084565b60006020828403121561006657600080fd5b81516001600160a01b038116811461007d57600080fd5b9392505050565b611028806100936000396000f3fe608060405234801561001057600080fd5b506004361061002b5760003560e01c80632fe28e7914610030575b600080fd5b61004361003e366004610504565b610055565b60405190815260200160405180910390f35b60008060008054906101000a900473ffffffffffffffffffffffffffffffffffffffff1673ffffffffffffffffffffffffffffffffffffffff166310c3009e8e8e8e8e8e8e8e8e8e6040518a63ffffffff1660e01b81526004016100c19998979695949392919061068f565b6020604051808303816000875af11580156100e0573d6000803e3d6000fd5b505050506040513d601f19601f82011682018060405250810190610104919061071c565b600080546040517fac52edfd00000000000000000000000000000000000000000000000000000000815260048101849052929350909173ffffffffffffffffffffffffffffffffffffffff9091169063ac52edfd90602401602060405180830381865afa158015610179573d6000803e3d6000fd5b505050506040513d601f19601f8201168201806040525081019061019d9190610735565b905060008186866040516101b0906103d9565b6101bc93929190610759565b604051809103906000f0801580156101d8573d6000803e3d6000fd5b506040517f29ec16dd00000000000000000000000000000000000000000000000000000000815273ffffffffffffffffffffffffffffffffffffffff808316600483015260016024830152919250908316906329ec16dd90604401600060405180830381600087803b15801561024d57600080fd5b505af1158015610261573d6000803e3d6000fd5b50506040517f29ec16dd0000000000000000000000000000000000000000000000000000000081523060048201526000602482015273ffffffffffffffffffffffffffffffffffffffff851692506329ec16dd9150604401600060405180830381600087803b1580156102d357600080fd5b505af11580156102e7573d6000803e3d6000fd5b50506040517ff2fde38b00000000000000000000000000000000000000000000000000000000815273ffffffffffffffffffffffffffffffffffffffff84811660048301528516925063f2fde38b9150602401600060405180830381600087803b15801561035457600080fd5b505af1158015610368573d6000803e3d6000fd5b5050604080518b815273ffffffffffffffffffffffffffffffffffffffff858116602083015286168183015290513393508692507fbc6cbff8bd982ce5f17fcf23c82e6187bcec49167df4c124995c104f678b879e9181900360600190a350909d9c50505050505050505050505050565b61082f806107c483390190565b7f4e487b7100000000000000000000000000000000000000000000000000000000600052604160045260246000fd5b600082601f83011261042657600080fd5b813567ffffffffffffffff80821115610441576104416103e6565b604051601f83017fffffffffffffffffffffffffffffffffffffffffffffffffffffffffffffffe0908116603f01168101908282118183101715610487576104876103e6565b816040528381528660208588010111156104a057600080fd5b836020870160208301376000602085830101528094505050505092915050565b73ffffffffffffffffffffffffffffffffffffffff811681146104e257600080fd5b50565b80356104f0816104c0565b919050565b8035600981106104f057600080fd5b60008060008060008060008060008060006101608c8e03121561052657600080fd5b67ffffffffffffffff808d35111561053d57600080fd5b61054a8e8e358f01610415565b9b508060208e0135111561055d57600080fd5b61056d8e60208f01358f01610415565b9a508060408e0135111561058057600080fd5b6105908e60408f01358f01610415565b99508060608e013511156105a357600080fd5b6105b38e60608f01358f01610415565b985060808d013597508060a08e013511156105cd57600080fd5b506105de8d60a08e01358e01610415565b955060c08c0135945060e08c013593506101008c013592506106036101208d016104e5565b91506106126101408d016104f5565b90509295989b509295989b9093969950565b6000815180845260005b8181101561064a5760208185018101518683018201520161062e565b8181111561065c576000602083870101525b50601f017fffffffffffffffffffffffffffffffffffffffffffffffffffffffffffffffe0169290920160200192915050565b60006101208083526106a38184018d610624565b905082810360208401526106b7818c610624565b905082810360408401526106cb818b610624565b905082810360608401526106df818a610624565b905087608084015282810360a08401526106f98188610624565b60c0840196909652505060e0810192909252610100909101529695505050505050565b60006020828403121561072e57600080fd5b5051919050565b60006020828403121561074757600080fd5b8151610752816104c0565b9392505050565b73ffffffffffffffffffffffffffffffffffffffff84811682528316602082015260608101600983106107b5577f4e487b7100000000000000000000000000000000000000000000000000000000600052602160045260246000fd5b82604083015294935050505056fe608060405234801561001057600080fd5b5060405161082f38038061082f83398101604081905261002f916100ad565b600080546001600160a01b038085166001600160a01b031992831617909255436001556002805492861691831682178155839290916001600160a81b031990911617600160a01b836008811115610088576100886100fe565b0217905550505050610114565b6001600160a01b03811681146100aa57600080fd5b50565b6000806000606084860312156100c257600080fd5b83516100cd81610095565b60208501519093506100de81610095565b6040850151909250600981106100f357600080fd5b809150509250925092565b634e487b7160e01b600052602160045260246000fd5b61070c806101236000396000f3fe608060405234801561001057600080fd5b50600436106100725760003560e01c8063a30872db11610050578063a30872db146100c9578063a3dbec981461010e578063a66ff0af1461014057600080fd5b80630f0af57f146100775780630f6a93491461009357806377544f33146100a6575b600080fd5b61008060015481565b6040519081526020015b60405180910390f35b6100806100a1366004610430565b610153565b6100b96100b4366004610513565b6101f3565b604051901515815260200161008a565b6000546100e99073ffffffffffffffffffffffffffffffffffffffff1681565b60405173ffffffffffffffffffffffffffffffffffffffff909116815260200161008a565b6002546101339074010000000000000000000000000000000000000000900460ff1681565b60405161008a919061057d565b61008061014e3660046105be565b61029c565b6002546040517f0f6a934900000000000000000000000000000000000000000000000000000000815260009173ffffffffffffffffffffffffffffffffffffffff1690630f6a9349906101aa9085906004016105e0565b6020604051808303816000875af11580156101c9573d6000803e3d6000fd5b505050506040513d601f19601f820116820180604052508101906101ed919061063a565b92915050565b600080546040517fe053ea3100000000000000000000000000000000000000000000000000000000815273ffffffffffffffffffffffffffffffffffffffff858116600483015261029092169063e053ea3190602401602060405180830381865afa158015610266573d6000803e3d6000fd5b505050506040513d601f19601f8201168201806040525081019061028a919061063a565b83610379565b60015410159392505050565b60006102b782600260149054906101000a900460ff166101f3565b610321576040517f08c379a000000000000000000000000000000000000000000000000000000000815260206004820152600860248201527f4d494e5f54494552000000000000000000000000000000000000000000000000604482015260640160405180910390fd5b6002546040517fa66ff0af00000000000000000000000000000000000000000000000000000000815273ffffffffffffffffffffffffffffffffffffffff84811660048301529091169063a66ff0af906024016101aa565b60008082600881111561038e5761038e61054e565b141561039c575060006101ed565b600060018360088111156103b2576103b261054e565b6103bc9190610682565b6103c7906020610699565b9390931c63ffffffff169392505050565b7f4e487b7100000000000000000000000000000000000000000000000000000000600052604160045260246000fd5b803573ffffffffffffffffffffffffffffffffffffffff8116811461042b57600080fd5b919050565b6000602080838503121561044357600080fd5b823567ffffffffffffffff8082111561045b57600080fd5b818501915085601f83011261046f57600080fd5b813581811115610481576104816103d8565b8060051b6040517fffffffffffffffffffffffffffffffffffffffffffffffffffffffffffffffe0603f830116810181811085821117156104c4576104c46103d8565b6040529182528482019250838101850191888311156104e257600080fd5b938501935b82851015610507576104f885610407565b845293850193928501926104e7565b98975050505050505050565b6000806040838503121561052657600080fd5b61052f83610407565b915060208301356009811061054357600080fd5b809150509250929050565b7f4e487b7100000000000000000000000000000000000000000000000000000000600052602160045260246000fd5b60208101600983106105b8577f4e487b7100000000000000000000000000000000000000000000000000000000600052602160045260246000fd5b91905290565b6000602082840312156105d057600080fd5b6105d982610407565b9392505050565b6020808252825182820181905260009190848201906040850190845b8181101561062e57835173ffffffffffffffffffffffffffffffffffffffff16835292840192918401916001016105fc565b50909695505050505050565b60006020828403121561064c57600080fd5b5051919050565b7f4e487b7100000000000000000000000000000000000000000000000000000000600052601160045260246000fd5b60008282101561069457610694610653565b500390565b6000817fffffffffffffffffffffffffffffffffffffffffffffffffffffffffffffffff04831182151516156106d1576106d1610653565b50029056fea26469706673582212209e493aab23ce9bcfa1ac96dbff8d7773395041394d87cf3821506a316ac795ac64736f6c634300080a0033a2646970667358221220f62145b56c0ebc0ca8686654d8ca20e5d609fdedba195bc5b34f7e26065288d864736f6c634300080a0033",
  "linkReferences": {},
  "deployedLinkReferences": {}
}