{
  "_format": "hh-sol-artifact-1",
  "contractName": "CombineTier",
  "sourceName": "contracts/tier/CombineTier.sol",
  "abi": [
    {
      "inputs": [],
      "stateMutability": "nonpayable",
      "type": "constructor"
    },
    {
      "inputs": [
        {
          "internalType": "uint256",
          "name": "_size",
          "type": "uint256"
        },
        {
          "internalType": "uint256",
          "name": "_start",
          "type": "uint256"
        },
        {
          "internalType": "uint256",
          "name": "_end",
          "type": "uint256"
        }
      ],
      "name": "InvalidCodeAtRange",
      "type": "error"
    },
    {
      "inputs": [],
      "name": "WriteError",
      "type": "error"
    },
    {
      "anonymous": false,
      "inputs": [
        {
          "indexed": false,
          "internalType": "address",
          "name": "sender",
          "type": "address"
        },
        {
          "indexed": false,
          "internalType": "address",
          "name": "account",
          "type": "address"
        },
        {
          "indexed": false,
          "internalType": "uint256",
          "name": "startTier",
          "type": "uint256"
        },
        {
          "indexed": false,
          "internalType": "uint256",
          "name": "endTier",
          "type": "uint256"
        }
      ],
      "name": "TierChange",
      "type": "event"
    },
    {
      "inputs": [
        {
          "components": [
            {
              "internalType": "bytes[]",
              "name": "sources",
              "type": "bytes[]"
            },
            {
              "internalType": "uint256[]",
              "name": "constants",
              "type": "uint256[]"
            },
            {
              "internalType": "uint256",
              "name": "stackLength",
              "type": "uint256"
            },
            {
              "internalType": "uint256",
              "name": "argumentsLength",
              "type": "uint256"
            }
          ],
          "internalType": "struct StateConfig",
          "name": "config_",
          "type": "tuple"
        }
      ],
      "name": "initialize",
      "outputs": [],
      "stateMutability": "nonpayable",
      "type": "function"
    },
    {
      "inputs": [
        {
          "internalType": "address",
          "name": "account_",
          "type": "address"
        }
      ],
      "name": "report",
      "outputs": [
        {
          "internalType": "uint256",
          "name": "",
          "type": "uint256"
        }
      ],
      "stateMutability": "view",
      "type": "function"
    },
    {
      "inputs": [
        {
          "internalType": "address",
          "name": "",
          "type": "address"
        },
        {
          "internalType": "uint256",
          "name": "",
          "type": "uint256"
        },
        {
          "internalType": "bytes",
          "name": "",
          "type": "bytes"
        }
      ],
      "name": "setTier",
      "outputs": [],
      "stateMutability": "pure",
      "type": "function"
    }
  ],
  "bytecode": "0x60e060405234801561001057600080fd5b50600460808190526100249060029061003d565b60a08190526100359060069061003d565b60c052610063565b6000821982111561005e57634e487b7160e01b600052601160045260246000fd5b500190565b60805160a05160c051611ddc620000a16000396000818161084001526108960152600081816107e5015261086d015260006108120152611ddc6000f3fe608060405234801561001057600080fd5b50600436106100415760003560e01c80638a200fff14610046578063e053ea311461005b578063e684b6d614610080575b600080fd5b610059610054366004611696565b610093565b005b61006e6100693660046116ef565b6100fa565b60405190815260200160405180910390f35b61005961008e366004611796565b610197565b6040517f08c379a000000000000000000000000000000000000000000000000000000000815260206004820152600860248201527f5345545f5449455200000000000000000000000000000000000000000000000060448201526064015b60405180910390fd5b6000805481906101259062010000900473ffffffffffffffffffffffffffffffffffffffff16610305565b6040805173ffffffffffffffffffffffffffffffffffffffff861660208201529192506101649101604051602081830303815290604052826000610359565b60208101518151610177906001906118ab565b81518110610187576101876118e9565b6020026020010151915050919050565b600054610100900460ff166101b25760005460ff16156101b6565b303b155b610242576040517f08c379a000000000000000000000000000000000000000000000000000000000815260206004820152602e60248201527f496e697469616c697a61626c653a20636f6e747261637420697320616c72656160448201527f647920696e697469616c697a656400000000000000000000000000000000000060648201526084016100f1565b600054610100900460ff1615801561028157600080547fffffffffffffffffffffffffffffffffffffffffffffffffffffffffffff0000166101011790555b61029261028d836104ee565b6105e1565b600060026101000a81548173ffffffffffffffffffffffffffffffffffffffff021916908373ffffffffffffffffffffffffffffffffffffffff160217905550801561030157600080547fffffffffffffffffffffffffffffffffffffffffffffffffffffffffffff00ff1690555b5050565b6103376040518060a0016040528060008152602001606081526020016060815260200160608152602001606081525090565b6103408261064f565b8060200190518101906103539190611a5b565b92915050565b602082810151604084015183830201909101516060840151608085015182516000948594859492939092915b848810156104e1576002880197508784015180601e1a975080601f1a96505060048710156104d55760018714156103e85781608087166103c25750825b8a516020607f89160260200182015160208202602001840152600181018c525050610385565b60028714156104135789516020870260200182015160208202602001830152600181018b5250610385565b600387141561042c576104278b8b8861067d565b610385565b607f6101fe600188901b161786166080871615610498578a517fffffffffffffffffffffffffffffffffffffffffffffffffffffffffffffffff01808c5260208c015180519091908110610482576104826118e9565b6020026020010151600014156104985750610385565b8060000b6000146104cf5760008160000b12156104c357801960020160020260ff16890398506104cf565b8060020260ff16890198505b50610385565b6104278b8b89896107e3565b5050505050505050505050565b6105206040518060a0016040528060008152602001606081526020016060815260200160608152602001606081525090565b6040518060a0016040528060008152602001836040015167ffffffffffffffff81111561054f5761054f611530565b604051908082528060200260200182016040528015610578578160200160208202803683370190505b5081526020018360000151815260200183602001518152602001836060015167ffffffffffffffff8111156105af576105af611530565b6040519080825280602002602001820160405280156105d8578160200160208202803683370190505b50905292915050565b60008061060c836040516020016105f89190611c67565b60405160208183030381529060405261098b565b90507ff95eed63f55d96a35306669cc3b5f652f8d44552e3e4b17b2f78f13571114abd33828560405161064193929190611c7a565b60405180910390a192915050565b60606103538260017fffffffffffffffffffffffffffffffffffffffffffffffffffffffffffffffff610a16565b81517fffffffffffffffffffffffffffffffffffffffffffffffffffffffffffffffff600583901c918290030183526007821690610100600384811c1681901c91908290039060010160008167ffffffffffffffff8111156106e1576106e1611530565b60405190808252806020026020018201604052801561070a578160200160208202803683370190505b50905060005b828110156107615787602001518189600001510181518110610734576107346118e9565b602002602001015182828151811061074e5761074e6118e9565b6020908102919091010152600101610710565b5060005b6101008110156107d85760005b838110156107c55784828603848381518110610790576107906118e9565b6020026020010151901b901c896080015182815181106107b2576107b26118e9565b6020908102919091010152600101610772565b506107d1898988610359565b8401610765565b505050505050505050565b7f000000000000000000000000000000000000000000000000000000000000000082101561083e5761083984847f0000000000000000000000000000000000000000000000000000000000000000850384610aff565b610985565b7f00000000000000000000000000000000000000000000000000000000000000008210156108945761083984847f0000000000000000000000000000000000000000000000000000000000000000850384610bdb565b7f00000000000000000000000000000000000000000000000000000000000000008203915060018210610923576040517f08c379a000000000000000000000000000000000000000000000000000000000815260206004820152600a60248201527f4d41585f4f50434f44450000000000000000000000000000000000000000000060448201526064016100f1565b816109855760008480602001905181019061093e9190611cb3565b90508073ffffffffffffffffffffffffffffffffffffffff168460200151856000015181518110610971576109716118e9565b602090810291909101015250825160010183525b50505050565b6000806109b6836040516020016109a29190611cd0565b6040516020818303038152906040526110a2565b90508051602082016000f0915073ffffffffffffffffffffffffffffffffffffffff8216610a10576040517f08d4abb600000000000000000000000000000000000000000000000000000000815260040160405180910390fd5b50919050565b6060833b80610a35575050604080516020810190915260008152610af8565b80841115610a53575050604080516020810190915260008152610af8565b83831015610a9e576040517f2c4a89fa0000000000000000000000000000000000000000000000000000000081526004810182905260248101859052604481018490526064016100f1565b8383038482036000828210610ab35782610ab5565b815b60408051603f83017fffffffffffffffffffffffffffffffffffffffffffffffffffffffffffffffe0168101909152818152955090508087602087018a3c505050505b9392505050565b60028210610b69576040517f08c379a000000000000000000000000000000000000000000000000000000000815260206004820152600a60248201527f4d41585f4f50434f44450000000000000000000000000000000000000000000060448201526064016100f1565b81610ba057438360200151846000015181518110610b8957610b896118e9565b602090810291909101015282516001018352610985565b600182141561098557428360200151846000015181518110610bc457610bc46118e9565b602090810291909101015250508051600101905250565b60068210610c45576040517f08c379a000000000000000000000000000000000000000000000000000000000815260206004820152600a60248201527f4d41585f4f50434f44450000000000000000000000000000000000000000000060448201526064016100f1565b600082610d75575082517ffffffffffffffffffffffffffffffffffffffffffffffffffffffffffffffffe018084526020840151805182908110610c8b57610c8b6118e9565b602002602001015173ffffffffffffffffffffffffffffffffffffffff1663e053ea3185602001518360010181518110610cc757610cc76118e9565b60200260200101516040518263ffffffff1660e01b8152600401610d07919073ffffffffffffffffffffffffffffffffffffffff91909116815260200190565b602060405180830381865afa158015610d24573d6000803e3d6000fd5b505050506040513d601f19601f82011682018060405250810190610d489190611cf6565b84602001518281518110610d5e57610d5e6118e9565b60209081029190910101528351600101845261109b565b6001831415610db9577fffffffffffffffffffffffffffffffffffffffffffffffffffffffffffffffff8460200151856000015181518110610d5e57610d5e6118e9565b6002831415610dde5760008460200151856000015181518110610d5e57610d5e6118e9565b6003831415610e92575082517ffffffffffffffffffffffffffffffffffffffffffffffffffffffffffffffffe01808452602084015180516000919083908110610e2a57610e2a6118e9565b60200260200101519050600085602001518360010181518110610e4f57610e4f6118e9565b60200260200101519050610e6382826110ce565b86602001518481518110610e7957610e796118e9565b602090810291909101015250508351600101845261109b565b6004831415610f5a575082517ffffffffffffffffffffffffffffffffffffffffffffffffffffffffffffffffe0180845260208401518051600f80851692600486901c909116916000919085908110610eed57610eed6118e9565b60200260200101519050600087602001518560010181518110610f1257610f126118e9565b60200260200101519050610f288285858461112d565b88602001518681518110610f3e57610f3e6118e9565b60209081029190910101525050855160010186525061109b9050565b600583141561109b575082517fffffffffffffffffffffffffffffffffffffffffffffffffffffffffffffffff601f8316918290030180855290600783901c906003600585901c16908360008267ffffffffffffffff811115610fbf57610fbf611530565b604051908082528060200260200182016040528015610fe8578160200160208202803683370190505b50905060005b8381101561103d578960200151838151811061100c5761100c6118e9565b6020026020010151828281518110611026576110266118e9565b602090810291909101015260019283019201610fee565b50600089602001518381518110611056576110566118e9565b6020026020010151905061106c82828888611240565b8a602001518881518110611082576110826118e9565b6020908102919091010152505087516001018852505050505b5050505050565b60608151826040516020016110b8929190611d0f565b6040516020818303038152906040529050919050565b60008060015b600881116111255760006110e88683611390565b905060006110f68684611390565b905060006111048383611445565b905061111485600186038361145b565b945050600190920191506110d49050565b509392505050565b600083600881111561119b576040517f08c379a000000000000000000000000000000000000000000000000000000000815260206004820152600860248201527f4d41585f5449455200000000000000000000000000000000000000000000000060448201526064016100f1565b836008811115611207576040517f08c379a000000000000000000000000000000000000000000000000000000000815260206004820152600860248201527f4d41585f5449455200000000000000000000000000000000000000000000000060448201526064016100f1565b6000865b868110156112335763ffffffff6020820290811b1999909916868a1b1798915060010161120b565b5096979650505050505050565b835160009081908190819060015b600881116113825760009250828761128757507fffffffffffffffffffffffffffffffffffffffffffffffffffffffffffffffff61128b565b5060005b60005b83811015611340576112b98c82815181106112ab576112ab6118e9565b602002602001015184611390565b95508a861161130b57886112d8576112d186836114e5565b9150611302565b60018914156112eb576112d186836114fb565b6002891480156112f9575084155b15611302578591505b60019450611338565b89611338577fffffffffffffffffffffffffffffffffffffffffffffffffffffffffffffffff9150611340565b60010161128e565b508361136957507fffffffffffffffffffffffffffffffffffffffffffffffffffffffffffffffff5b61137786600184038361145b565b95505060010161124e565b509298975050505050505050565b60008160088111156113fe576040517f08c379a000000000000000000000000000000000000000000000000000000000815260206004820152600860248201527f4d41585f5449455200000000000000000000000000000000000000000000000060448201526064016100f1565b8261140c576000915061143e565b63ffffffff60207fffffffffffffffffffffffffffffffffffffffffffffffffffffffffffffffff85010285901c1691505b5092915050565b6000818311611455576000610af8565b50900390565b60008260088111156114c9576040517f08c379a000000000000000000000000000000000000000000000000000000000815260206004820152600860248201527f4d41585f5449455200000000000000000000000000000000000000000000000060448201526064016100f1565b505060209190910290811b63ffffffff90911b19919091161790565b60008183106114f45781610af8565b5090919050565b6000818310156114f45781610af8565b73ffffffffffffffffffffffffffffffffffffffff8116811461152d57600080fd5b50565b7f4e487b7100000000000000000000000000000000000000000000000000000000600052604160045260246000fd5b6040516080810167ffffffffffffffff8111828210171561158257611582611530565b60405290565b60405160a0810167ffffffffffffffff8111828210171561158257611582611530565b604051601f82017fffffffffffffffffffffffffffffffffffffffffffffffffffffffffffffffe016810167ffffffffffffffff811182821017156115f2576115f2611530565b604052919050565b600067ffffffffffffffff82111561161457611614611530565b50601f017fffffffffffffffffffffffffffffffffffffffffffffffffffffffffffffffe01660200190565b600082601f83011261165157600080fd5b813561166461165f826115fa565b6115ab565b81815284602083860101111561167957600080fd5b816020850160208301376000918101602001919091529392505050565b6000806000606084860312156116ab57600080fd5b83356116b68161150b565b925060208401359150604084013567ffffffffffffffff8111156116d957600080fd5b6116e586828701611640565b9150509250925092565b60006020828403121561170157600080fd5b8135610af88161150b565b600067ffffffffffffffff82111561172657611726611530565b5060051b60200190565b600082601f83011261174157600080fd5b8135602061175161165f8361170c565b82815260059290921b8401810191818101908684111561177057600080fd5b8286015b8481101561178b5780358352918301918301611774565b509695505050505050565b600060208083850312156117a957600080fd5b823567ffffffffffffffff808211156117c157600080fd5b90840190608082870312156117d557600080fd5b6117dd61155f565b8235828111156117ec57600080fd5b8301601f810188136117fd57600080fd5b803561180b61165f8261170c565b81815260059190911b8201860190868101908a83111561182a57600080fd5b8784015b83811015611862578035878111156118465760008081fd5b6118548d8b83890101611640565b84525091880191880161182e565b508452505050828401358281111561187957600080fd5b61188588828601611730565b858301525060408301356040820152606083013560608201528094505050505092915050565b6000828210156118e4577f4e487b7100000000000000000000000000000000000000000000000000000000600052601160045260246000fd5b500390565b7f4e487b7100000000000000000000000000000000000000000000000000000000600052603260045260246000fd5b600082601f83011261192957600080fd5b8151602061193961165f8361170c565b82815260059290921b8401810191818101908684111561195857600080fd5b8286015b8481101561178b578051835291830191830161195c565b60005b8381101561198e578181015183820152602001611976565b838111156109855750506000910152565b600082601f8301126119b057600080fd5b815160206119c061165f8361170c565b82815260059290921b840181019181810190868411156119df57600080fd5b8286015b8481101561178b57805167ffffffffffffffff811115611a035760008081fd5b8701603f81018913611a155760008081fd5b848101516040611a2761165f836115fa565b8281528b82848601011115611a3c5760008081fd5b611a4b83898301848701611973565b86525050509183019183016119e3565b600060208284031215611a6d57600080fd5b815167ffffffffffffffff80821115611a8557600080fd5b9083019060a08286031215611a9957600080fd5b611aa1611588565b82518152602083015182811115611ab757600080fd5b611ac387828601611918565b602083015250604083015182811115611adb57600080fd5b611ae78782860161199f565b604083015250606083015182811115611aff57600080fd5b611b0b87828601611918565b606083015250608083015182811115611b2357600080fd5b611b2f87828601611918565b60808301525095945050505050565b600081518084526020808501945080840160005b83811015611b6e57815187529582019590820190600101611b52565b509495945050505050565b80518252600060208083015160a082860152611b9860a0860182611b3e565b9050604084015185820360408701528181518084528484019150848160051b850101858401935060005b82811015611c26577fffffffffffffffffffffffffffffffffffffffffffffffffffffffffffffffe08087840301855285518051808552611c08818b87018c8501611973565b9689019695890195601f019091169290920187019150600101611bc2565b506060880151955088810360608a0152611c408187611b3e565b9550505050505060808301518482036080860152611c5e8282611b3e565b95945050505050565b602081526000610af86020830184611b79565b600073ffffffffffffffffffffffffffffffffffffffff808616835280851660208401525060606040830152611c5e6060830184611b79565b600060208284031215611cc557600080fd5b8151610af88161150b565b6000815260008251611ce9816001850160208701611973565b9190910160010192915050565b600060208284031215611d0857600080fd5b5051919050565b7f630000000000000000000000000000000000000000000000000000000000000081527fffffffff000000000000000000000000000000000000000000000000000000008360e01b1660018201527f80600e6000396000f30000000000000000000000000000000000000000000000600582015260008251611d9881600e850160208701611973565b91909101600e01939250505056fea264697066735822122029826771054fff01d41050e039e57f6dd53f4fe32b84b7abcccb92529086601f64736f6c634300080a0033",
  "linkReferences": {},
  "deployedLinkReferences": {}
}