{
  "_format": "hh-sol-artifact-1",
  "contractName": "EmissionsERC20",
  "sourceName": "contracts/claim/EmissionsERC20.sol",
  "abi": [
    {
      "inputs": [],
      "stateMutability": "nonpayable",
      "type": "constructor"
    },
    {
      "inputs": [
        {
          "internalType": "uint256",
          "name": "_size",
          "type": "uint256"
        },
        {
          "internalType": "uint256",
          "name": "_start",
          "type": "uint256"
        },
        {
          "internalType": "uint256",
          "name": "_end",
          "type": "uint256"
        }
      ],
      "name": "InvalidCodeAtRange",
      "type": "error"
    },
    {
      "inputs": [],
      "name": "WriteError",
      "type": "error"
    },
    {
      "anonymous": false,
      "inputs": [
        {
          "indexed": true,
          "internalType": "address",
          "name": "owner",
          "type": "address"
        },
        {
          "indexed": true,
          "internalType": "address",
          "name": "spender",
          "type": "address"
        },
        {
          "indexed": false,
          "internalType": "uint256",
          "name": "value",
          "type": "uint256"
        }
      ],
      "name": "Approval",
      "type": "event"
    },
    {
      "anonymous": false,
      "inputs": [
        {
          "indexed": false,
          "internalType": "address",
          "name": "sender",
          "type": "address"
        },
        {
          "indexed": false,
          "internalType": "address",
          "name": "claimant",
          "type": "address"
        },
        {
          "indexed": false,
          "internalType": "bytes",
          "name": "data",
          "type": "bytes"
        }
      ],
      "name": "Claim",
      "type": "event"
    },
    {
      "anonymous": false,
      "inputs": [
        {
          "indexed": false,
          "internalType": "address",
          "name": "sender",
          "type": "address"
        },
        {
          "indexed": false,
          "internalType": "bool",
          "name": "allowDelegatedClaims",
          "type": "bool"
        },
        {
          "indexed": false,
          "internalType": "uint256",
          "name": "constructionBlockNumber",
          "type": "uint256"
        }
      ],
      "name": "Initialize",
      "type": "event"
    },
    {
      "anonymous": false,
      "inputs": [
        {
          "indexed": false,
          "internalType": "address",
          "name": "sender",
          "type": "address"
        },
        {
          "indexed": false,
          "internalType": "address",
          "name": "account",
          "type": "address"
        },
        {
          "indexed": false,
          "internalType": "uint256",
          "name": "startTier",
          "type": "uint256"
        },
        {
          "indexed": false,
          "internalType": "uint256",
          "name": "endTier",
          "type": "uint256"
        }
      ],
      "name": "TierChange",
      "type": "event"
    },
    {
      "anonymous": false,
      "inputs": [
        {
          "indexed": true,
          "internalType": "address",
          "name": "from",
          "type": "address"
        },
        {
          "indexed": true,
          "internalType": "address",
          "name": "to",
          "type": "address"
        },
        {
          "indexed": false,
          "internalType": "uint256",
          "name": "value",
          "type": "uint256"
        }
      ],
      "name": "Transfer",
      "type": "event"
    },
    {
      "inputs": [],
      "name": "allowDelegatedClaims",
      "outputs": [
        {
          "internalType": "bool",
          "name": "",
          "type": "bool"
        }
      ],
      "stateMutability": "view",
      "type": "function"
    },
    {
      "inputs": [
        {
          "internalType": "address",
          "name": "owner",
          "type": "address"
        },
        {
          "internalType": "address",
          "name": "spender",
          "type": "address"
        }
      ],
      "name": "allowance",
      "outputs": [
        {
          "internalType": "uint256",
          "name": "",
          "type": "uint256"
        }
      ],
      "stateMutability": "view",
      "type": "function"
    },
    {
      "inputs": [
        {
          "internalType": "address",
          "name": "spender",
          "type": "address"
        },
        {
          "internalType": "uint256",
          "name": "amount",
          "type": "uint256"
        }
      ],
      "name": "approve",
      "outputs": [
        {
          "internalType": "bool",
          "name": "",
          "type": "bool"
        }
      ],
      "stateMutability": "nonpayable",
      "type": "function"
    },
    {
      "inputs": [
        {
          "internalType": "address",
          "name": "account",
          "type": "address"
        }
      ],
      "name": "balanceOf",
      "outputs": [
        {
          "internalType": "uint256",
          "name": "",
          "type": "uint256"
        }
      ],
      "stateMutability": "view",
      "type": "function"
    },
    {
      "inputs": [
        {
          "internalType": "address",
          "name": "claimant_",
          "type": "address"
        }
      ],
      "name": "calculateClaim",
      "outputs": [
        {
          "internalType": "uint256",
          "name": "",
          "type": "uint256"
        }
      ],
      "stateMutability": "view",
      "type": "function"
    },
    {
      "inputs": [
        {
          "internalType": "address",
          "name": "claimant_",
          "type": "address"
        },
        {
          "internalType": "bytes",
          "name": "data_",
          "type": "bytes"
        }
      ],
      "name": "claim",
      "outputs": [],
      "stateMutability": "nonpayable",
      "type": "function"
    },
    {
      "inputs": [],
      "name": "decimals",
      "outputs": [
        {
          "internalType": "uint8",
          "name": "",
          "type": "uint8"
        }
      ],
      "stateMutability": "view",
      "type": "function"
    },
    {
      "inputs": [
        {
          "internalType": "address",
          "name": "spender",
          "type": "address"
        },
        {
          "internalType": "uint256",
          "name": "subtractedValue",
          "type": "uint256"
        }
      ],
      "name": "decreaseAllowance",
      "outputs": [
        {
          "internalType": "bool",
          "name": "",
          "type": "bool"
        }
      ],
      "stateMutability": "nonpayable",
      "type": "function"
    },
    {
      "inputs": [
        {
          "internalType": "address",
          "name": "spender",
          "type": "address"
        },
        {
          "internalType": "uint256",
          "name": "addedValue",
          "type": "uint256"
        }
      ],
      "name": "increaseAllowance",
      "outputs": [
        {
          "internalType": "bool",
          "name": "",
          "type": "bool"
        }
      ],
      "stateMutability": "nonpayable",
      "type": "function"
    },
    {
      "inputs": [
        {
          "components": [
            {
              "internalType": "bool",
              "name": "allowDelegatedClaims",
              "type": "bool"
            },
            {
              "components": [
                {
                  "internalType": "string",
                  "name": "name",
                  "type": "string"
                },
                {
                  "internalType": "string",
                  "name": "symbol",
                  "type": "string"
                },
                {
                  "internalType": "address",
                  "name": "distributor",
                  "type": "address"
                },
                {
                  "internalType": "uint256",
                  "name": "initialSupply",
                  "type": "uint256"
                }
              ],
              "internalType": "struct ERC20Config",
              "name": "erc20Config",
              "type": "tuple"
            },
            {
              "components": [
                {
                  "internalType": "bytes[]",
                  "name": "sources",
                  "type": "bytes[]"
                },
                {
                  "internalType": "uint256[]",
                  "name": "constants",
                  "type": "uint256[]"
                },
                {
                  "internalType": "uint256",
                  "name": "stackLength",
                  "type": "uint256"
                },
                {
                  "internalType": "uint256",
                  "name": "argumentsLength",
                  "type": "uint256"
                }
              ],
              "internalType": "struct StateConfig",
              "name": "vmStateConfig",
              "type": "tuple"
            }
          ],
          "internalType": "struct EmissionsERC20Config",
          "name": "config_",
          "type": "tuple"
        }
      ],
      "name": "initialize",
      "outputs": [],
      "stateMutability": "nonpayable",
      "type": "function"
    },
    {
      "inputs": [],
      "name": "name",
      "outputs": [
        {
          "internalType": "string",
          "name": "",
          "type": "string"
        }
      ],
      "stateMutability": "view",
      "type": "function"
    },
    {
      "inputs": [
        {
          "internalType": "address",
          "name": "account_",
          "type": "address"
        }
      ],
      "name": "report",
      "outputs": [
        {
          "internalType": "uint256",
          "name": "",
          "type": "uint256"
        }
      ],
      "stateMutability": "view",
      "type": "function"
    },
    {
      "inputs": [
        {
          "internalType": "address",
          "name": "",
          "type": "address"
        },
        {
          "internalType": "uint256",
          "name": "",
          "type": "uint256"
        },
        {
          "internalType": "bytes",
          "name": "",
          "type": "bytes"
        }
      ],
      "name": "setTier",
      "outputs": [],
      "stateMutability": "pure",
      "type": "function"
    },
    {
      "inputs": [],
      "name": "symbol",
      "outputs": [
        {
          "internalType": "string",
          "name": "",
          "type": "string"
        }
      ],
      "stateMutability": "view",
      "type": "function"
    },
    {
      "inputs": [],
      "name": "totalSupply",
      "outputs": [
        {
          "internalType": "uint256",
          "name": "",
          "type": "uint256"
        }
      ],
      "stateMutability": "view",
      "type": "function"
    },
    {
      "inputs": [
        {
          "internalType": "address",
          "name": "recipient",
          "type": "address"
        },
        {
          "internalType": "uint256",
          "name": "amount",
          "type": "uint256"
        }
      ],
      "name": "transfer",
      "outputs": [
        {
          "internalType": "bool",
          "name": "",
          "type": "bool"
        }
      ],
      "stateMutability": "nonpayable",
      "type": "function"
    },
    {
      "inputs": [
        {
          "internalType": "address",
          "name": "sender",
          "type": "address"
        },
        {
          "internalType": "address",
          "name": "recipient",
          "type": "address"
        },
        {
          "internalType": "uint256",
          "name": "amount",
          "type": "uint256"
        }
      ],
      "name": "transferFrom",
      "outputs": [
        {
          "internalType": "bool",
          "name": "",
          "type": "bool"
        }
      ],
      "stateMutability": "nonpayable",
      "type": "function"
    }
  ],
  "bytecode": "0x6101206040523480156200001257600080fd5b506004608081905262000028906001906200006b565b60a08190526200003b906001906200006b565b60c08190526200004e906008906200006b565b60e081905262000061906006906200006b565b6101005262000092565b600082198211156200008d57634e487b7160e01b600052601160045260246000fd5b500190565b60805160a05160c05160e051610100516136cd620000f3600039600081816119c90152611a1f01526000818161197301526119f601526000818161191d01526119a00152600081816118c2015261194a015260006118ef01526136cd6000f3fe608060405234801561001057600080fd5b506004361061011b5760003560e01c8063814e3a8e116100b2578063a9059cbb11610081578063dd62ed3e11610066578063dd62ed3e1461026c578063e053ea31146102b2578063ea345540146102c557600080fd5b8063a9059cbb14610246578063bb1757cf1461025957600080fd5b8063814e3a8e146102035780638a200fff1461021857806395d89b411461022b578063a457c2d71461023357600080fd5b8063313ce567116100ee578063313ce56714610186578063395093511461019557806367676b11146101a857806370a08231146101cd57600080fd5b806306fdde0314610120578063095ea7b31461013e57806318160ddd1461016157806323b872dd14610173575b600080fd5b6101286102d8565b60405161013591906129b4565b60405180910390f35b61015161014c3660046129ec565b61036a565b6040519015158152602001610135565b6035545b604051908152602001610135565b610151610181366004612a18565b610381565b60405160128152602001610135565b6101516101a33660046129ec565b61046e565b6066546101519074010000000000000000000000000000000000000000900460ff1681565b6101656101db366004612a59565b73ffffffffffffffffffffffffffffffffffffffff1660009081526033602052604090205490565b610216610211366004612d7d565b6104b7565b005b610216610226366004612e97565b6106c0565b610128610722565b6101516102413660046129ec565b610731565b6101516102543660046129ec565b610809565b610216610267366004612ef0565b610816565b61016561027a366004612f40565b73ffffffffffffffffffffffffffffffffffffffff918216600090815260346020908152604080832093909416825291909152205490565b6101656102c0366004612a59565b6109ab565b6101656102d3366004612a59565b610a24565b6060603680546102e790612f79565b80601f016020809104026020016040519081016040528092919081815260200182805461031390612f79565b80156103605780601f1061033557610100808354040283529160200191610360565b820191906000526020600020905b81548152906001019060200180831161034357829003601f168201915b5050505050905090565b6000610377338484610abd565b5060015b92915050565b600061038e848484610c70565b73ffffffffffffffffffffffffffffffffffffffff8416600090815260346020908152604080832033845290915290205482811015610454576040517f08c379a000000000000000000000000000000000000000000000000000000000815260206004820152602860248201527f45524332303a207472616e7366657220616d6f756e742065786365656473206160448201527f6c6c6f77616e636500000000000000000000000000000000000000000000000060648201526084015b60405180910390fd5b6104618533858403610abd565b60019150505b9392505050565b33600081815260346020908152604080832073ffffffffffffffffffffffffffffffffffffffff8716845290915281205490916103779185906104b2908690612ff6565b610abd565b600054610100900460ff166104d25760005460ff16156104d6565b303b155b610562576040517f08c379a000000000000000000000000000000000000000000000000000000000815260206004820152602e60248201527f496e697469616c697a61626c653a20636f6e747261637420697320616c72656160448201527f647920696e697469616c697a6564000000000000000000000000000000000000606482015260840161044b565b600054610100900460ff161580156105a157600080547fffffffffffffffffffffffffffffffffffffffffffffffffffffffffffff0000166101011790555b60208083015180519101516105b69190610f25565b6105d0826020015160400151836020015160600151610fce565b6105e56105e083604001516110ee565b6111e1565b60668054845173ffffffffffffffffffffffffffffffffffffffff939093167fffffffffffffffffffffff00000000000000000000000000000000000000000090911617740100000000000000000000000000000000000000009215159283021790554360658190556040805133815260208101939093528201527f82f92cfda9011a91a9d40be6148a55ba25c11346d730d6ace6468185b00ae4019060600160405180910390a180156106bc57600080547fffffffffffffffffffffffffffffffffffffffffffffffffffffffffffff00ff1690555b5050565b6040517f08c379a000000000000000000000000000000000000000000000000000000000815260206004820152600860248201527f5345545f54494552000000000000000000000000000000000000000000000000604482015260640161044b565b6060603780546102e790612f79565b33600090815260346020908152604080832073ffffffffffffffffffffffffffffffffffffffff86168452909152812054828110156107f2576040517f08c379a000000000000000000000000000000000000000000000000000000000815260206004820152602560248201527f45524332303a2064656372656173656420616c6c6f77616e63652062656c6f7760448201527f207a65726f000000000000000000000000000000000000000000000000000000606482015260840161044b565b6107ff3385858403610abd565b5060019392505050565b6000610377338484610c70565b60665474010000000000000000000000000000000000000000900460ff166108b7573373ffffffffffffffffffffffffffffffffffffffff8316146108b7576040517f08c379a000000000000000000000000000000000000000000000000000000000815260206004820152600f60248201527f44454c4547415445445f434c41494d0000000000000000000000000000000000604482015260640161044b565b60006108c283610a24565b90506108ce8382610fce565b6108fc7fffffffffffffffffffffffffffffffffffffffffffffffffffffffffffffffff600060084361124f565b73ffffffffffffffffffffffffffffffffffffffff8416600081815260676020908152604080832094909455835133815290810192909252818301526008606082015290517f100c93640a44fd8835d3652fa703bca54387aca4142e2cab319fb66cd80e3c9c9181900360800190a17fbf9d4a3962ab35e7ce8f88984952a416a31b61587fa229030e059141a2646f4333848460405161099e9392919061300e565b60405180910390a1505050565b73ffffffffffffffffffffffffffffffffffffffff81166000908152606760205260408120546109fb577fffffffffffffffffffffffffffffffffffffffffffffffffffffffffffffffff61037b565b5073ffffffffffffffffffffffffffffffffffffffff1660009081526067602052604090205490565b6066546000908190610a4b9073ffffffffffffffffffffffffffffffffffffffff16611362565b6040805173ffffffffffffffffffffffffffffffffffffffff86166020820152919250610a8a91016040516020818303038152906040528260006113b0565b60208101518151610a9d90600190613050565b81518110610aad57610aad613067565b6020026020010151915050919050565b73ffffffffffffffffffffffffffffffffffffffff8316610b5f576040517f08c379a0000000000000000000000000000000000000000000000000000000008152602060048201526024808201527f45524332303a20617070726f76652066726f6d20746865207a65726f2061646460448201527f7265737300000000000000000000000000000000000000000000000000000000606482015260840161044b565b73ffffffffffffffffffffffffffffffffffffffff8216610c02576040517f08c379a000000000000000000000000000000000000000000000000000000000815260206004820152602260248201527f45524332303a20617070726f766520746f20746865207a65726f20616464726560448201527f7373000000000000000000000000000000000000000000000000000000000000606482015260840161044b565b73ffffffffffffffffffffffffffffffffffffffff83811660008181526034602090815260408083209487168084529482529182902085905590518481527f8c5be1e5ebec7d5bd14f71427d1e84f3dd0314c0f7b2291e5b200ac8c7c3b925910160405180910390a3505050565b73ffffffffffffffffffffffffffffffffffffffff8316610d13576040517f08c379a000000000000000000000000000000000000000000000000000000000815260206004820152602560248201527f45524332303a207472616e736665722066726f6d20746865207a65726f20616460448201527f6472657373000000000000000000000000000000000000000000000000000000606482015260840161044b565b73ffffffffffffffffffffffffffffffffffffffff8216610db6576040517f08c379a000000000000000000000000000000000000000000000000000000000815260206004820152602360248201527f45524332303a207472616e7366657220746f20746865207a65726f206164647260448201527f6573730000000000000000000000000000000000000000000000000000000000606482015260840161044b565b73ffffffffffffffffffffffffffffffffffffffff831660009081526033602052604090205481811015610e6c576040517f08c379a000000000000000000000000000000000000000000000000000000000815260206004820152602660248201527f45524332303a207472616e7366657220616d6f756e742065786365656473206260448201527f616c616e63650000000000000000000000000000000000000000000000000000606482015260840161044b565b73ffffffffffffffffffffffffffffffffffffffff808516600090815260336020526040808220858503905591851681529081208054849290610eb0908490612ff6565b925050819055508273ffffffffffffffffffffffffffffffffffffffff168473ffffffffffffffffffffffffffffffffffffffff167fddf252ad1be2c89b69c2b068fc378daa952ba7f163c4a11628f55a4df523b3ef84604051610f1691815260200190565b60405180910390a35b50505050565b600054610100900460ff16610fbc576040517f08c379a000000000000000000000000000000000000000000000000000000000815260206004820152602b60248201527f496e697469616c697a61626c653a20636f6e7472616374206973206e6f74206960448201527f6e697469616c697a696e67000000000000000000000000000000000000000000606482015260840161044b565b610fc461154a565b6106bc82826115e3565b73ffffffffffffffffffffffffffffffffffffffff821661104b576040517f08c379a000000000000000000000000000000000000000000000000000000000815260206004820152601f60248201527f45524332303a206d696e7420746f20746865207a65726f206164647265737300604482015260640161044b565b806035600082825461105d9190612ff6565b909155505073ffffffffffffffffffffffffffffffffffffffff821660009081526033602052604081208054839290611097908490612ff6565b909155505060405181815273ffffffffffffffffffffffffffffffffffffffff8316906000907fddf252ad1be2c89b69c2b068fc378daa952ba7f163c4a11628f55a4df523b3ef9060200160405180910390a35050565b6111206040518060a0016040528060008152602001606081526020016060815260200160608152602001606081525090565b6040518060a0016040528060008152602001836040015167ffffffffffffffff81111561114f5761114f612a76565b604051908082528060200260200182016040528015611178578160200160208202803683370190505b5081526020018360000151815260200183602001518152602001836060015167ffffffffffffffff8111156111af576111af612a76565b6040519080825280602002602001820160405280156111d8578160200160208202803683370190505b50905292915050565b60008061120c836040516020016111f8919061319e565b6040516020818303038152906040526116a1565b90507ff95eed63f55d96a35306669cc3b5f652f8d44552e3e4b17b2f78f13571114abd338285604051611241939291906131b1565b60405180910390a192915050565b60008360088111156112bd576040517f08c379a000000000000000000000000000000000000000000000000000000000815260206004820152600860248201527f4d41585f54494552000000000000000000000000000000000000000000000000604482015260640161044b565b836008811115611329576040517f08c379a000000000000000000000000000000000000000000000000000000000815260206004820152600860248201527f4d41585f54494552000000000000000000000000000000000000000000000000604482015260640161044b565b6000865b868110156113555763ffffffff6020820290811b1999909916868a1b1798915060010161132d565b5096979650505050505050565b6113946040518060a0016040528060008152602001606081526020016060815260200160608152602001606081525090565b61139d8261172c565b80602001905181019061037b9190613301565b602082810151604084015183830201909101516060840151608085015182516000948594859492939092915b84881015611538576002880197508784015180601e1a975080601f1a965050600487101561152c57600187141561143f5781608087166114195750825b8a516020607f89160260200182015160208202602001840152600181018c5250506113dc565b600287141561146a5789516020870260200182015160208202602001830152600181018b52506113dc565b60038714156114835761147e8b8b8861175a565b6113dc565b607f6101fe600188901b1617861660808716156114ef578a517fffffffffffffffffffffffffffffffffffffffffffffffffffffffffffffffff01808c5260208c0151805190919081106114d9576114d9613067565b6020026020010151600014156114ef57506113dc565b8060000b6000146115265760008160000b121561151a57801960020160020260ff1689039850611526565b8060020260ff16890198505b506113dc565b61147e8b8b89896118c0565b5050505050505050505050565b505050565b600054610100900460ff166115e1576040517f08c379a000000000000000000000000000000000000000000000000000000000815260206004820152602b60248201527f496e697469616c697a61626c653a20636f6e7472616374206973206e6f74206960448201527f6e697469616c697a696e67000000000000000000000000000000000000000000606482015260840161044b565b565b600054610100900460ff1661167a576040517f08c379a000000000000000000000000000000000000000000000000000000000815260206004820152602b60248201527f496e697469616c697a61626c653a20636f6e7472616374206973206e6f74206960448201527f6e697469616c697a696e67000000000000000000000000000000000000000000606482015260840161044b565b815161168d9060369060208501906128a5565b5080516115459060379060208401906128a5565b6000806116cc836040516020016116b891906133e4565b604051602081830303815290604052611b4c565b90508051602082016000f0915073ffffffffffffffffffffffffffffffffffffffff8216611726576040517f08d4abb600000000000000000000000000000000000000000000000000000000815260040160405180910390fd5b50919050565b606061037b8260017fffffffffffffffffffffffffffffffffffffffffffffffffffffffffffffffff611b78565b81517fffffffffffffffffffffffffffffffffffffffffffffffffffffffffffffffff600583901c918290030183526007821690610100600384811c1681901c91908290039060010160008167ffffffffffffffff8111156117be576117be612a76565b6040519080825280602002602001820160405280156117e7578160200160208202803683370190505b50905060005b8281101561183e578760200151818960000151018151811061181157611811613067565b602002602001015182828151811061182b5761182b613067565b60209081029190910101526001016117ed565b5060005b6101008110156118b55760005b838110156118a2578482860384838151811061186d5761186d613067565b6020026020010151901b901c8960800151828151811061188f5761188f613067565b602090810291909101015260010161184f565b506118ae8989886113b0565b8401611842565b505050505050505050565b7f000000000000000000000000000000000000000000000000000000000000000082101561191b5761191684847f0000000000000000000000000000000000000000000000000000000000000000850384611c60565b610f1f565b7f00000000000000000000000000000000000000000000000000000000000000008210156119715761191684847f0000000000000000000000000000000000000000000000000000000000000000850384611ce5565b7f00000000000000000000000000000000000000000000000000000000000000008210156119c75761191684847f0000000000000000000000000000000000000000000000000000000000000000850384611d6a565b7f0000000000000000000000000000000000000000000000000000000000000000821015611a1d5761191684847f00000000000000000000000000000000000000000000000000000000000000008503846120b4565b7f00000000000000000000000000000000000000000000000000000000000000008203915060028210611aac576040517f08c379a000000000000000000000000000000000000000000000000000000000815260206004820152600a60248201527f4d41585f4f50434f444500000000000000000000000000000000000000000000604482015260640161044b565b81611b1257600084806020019051810190611ac7919061340a565b90508073ffffffffffffffffffffffffffffffffffffffff168460200151856000015181518110611afa57611afa613067565b60209081029190910101525082516001018352610f1f565b6001821415610f1f576065546020840151845181518110611b3557611b35613067565b602090810291909101015250508051600101905250565b6060815182604051602001611b62929190613427565b6040516020818303038152906040529050919050565b6060833b80611b97575050604080516020810190915260008152610467565b80841115611bb5575050604080516020810190915260008152610467565b83831015611c00576040517f2c4a89fa00000000000000000000000000000000000000000000000000000000815260048101829052602481018590526044810184905260640161044b565b8383038482036000828210611c155782611c17565b815b60408051603f83017fffffffffffffffffffffffffffffffffffffffffffffffffffffffffffffffe0168101909152818152955090508087602087018a3c505050509392505050565b60018210611cca576040517f08c379a000000000000000000000000000000000000000000000000000000000815260206004820152600a60248201527f4d41585f4f50434f444500000000000000000000000000000000000000000000604482015260640161044b565b438360200151846000015181518110611b3557611b35613067565b60018210611d4f576040517f08c379a000000000000000000000000000000000000000000000000000000000815260206004820152600a60248201527f4d41585f4f50434f444500000000000000000000000000000000000000000000604482015260640161044b565b602083015183518151309291908110611b3557611b35613067565b60088210611dd4576040517f08c379a000000000000000000000000000000000000000000000000000000000815260206004820152600a60248201527f4d41585f4f50434f444500000000000000000000000000000000000000000000604482015260640161044b565b8251818103808552602085015180517fffffffffffffffffffffffffffffffffffffffffffffffffffffffffffffffff90930192829160009183908110611e1d57611e1d613067565b602002602001015190506000861415611e75575b83821015611e70576020870151805160019093019283908110611e5657611e56613067565b602002602001015181611e699190612ff6565b9050611e31565b612081565b6001861415611ebe575b83821015611e70576020870151805160019093019283908110611ea457611ea4613067565b602002602001015181611eb79190613050565b9050611e7f565b6002861415611f07575b83821015611e70576020870151805160019093019283908110611eed57611eed613067565b602002602001015181611f0091906134be565b9050611ec8565b6003861415611f50575b83821015611e70576020870151805160019093019283908110611f3657611f36613067565b602002602001015181611f49919061352a565b9050611f11565b6004861415611f99575b83821015611e70576020870151805160019093019283908110611f7f57611f7f613067565b602002602001015181611f92919061353e565b9050611f5a565b6005861415611fe1575b83821015611e70576020870151805160019093019283908110611fc857611fc8613067565b602002602001015181611fdb9190613672565b50611fa3565b60068614156120335760005b8483101561202d57602088015180516001909401938490811061201257612012613067565b6020026020010151905081811015612028578091505b611fed565b50612081565b60078614156120815760005b8483101561207f57602088015180516001909401938490811061206457612064613067565b602002602001015190508181111561207a578091505b61203f565b505b808760200151848151811061209857612098613067565b6020908102919091010152505084516001019094525050505050565b6006821061211e576040517f08c379a000000000000000000000000000000000000000000000000000000000815260206004820152600a60248201527f4d41585f4f50434f444500000000000000000000000000000000000000000000604482015260640161044b565b60008261224e575082517ffffffffffffffffffffffffffffffffffffffffffffffffffffffffffffffffe01808452602084015180518290811061216457612164613067565b602002602001015173ffffffffffffffffffffffffffffffffffffffff1663e053ea31856020015183600101815181106121a0576121a0613067565b60200260200101516040518263ffffffff1660e01b81526004016121e0919073ffffffffffffffffffffffffffffffffffffffff91909116815260200190565b602060405180830381865afa1580156121fd573d6000803e3d6000fd5b505050506040513d601f19601f82011682018060405250810190612221919061367e565b8460200151828151811061223757612237613067565b602090810291909101015283516001018452612574565b6001831415612292577fffffffffffffffffffffffffffffffffffffffffffffffffffffffffffffffff846020015185600001518151811061223757612237613067565b60028314156122b7576000846020015185600001518151811061223757612237613067565b600383141561236b575082517ffffffffffffffffffffffffffffffffffffffffffffffffffffffffffffffffe0180845260208401518051600091908390811061230357612303613067565b6020026020010151905060008560200151836001018151811061232857612328613067565b6020026020010151905061233c828261257b565b8660200151848151811061235257612352613067565b6020908102919091010152505083516001018452612574565b6004831415612433575082517ffffffffffffffffffffffffffffffffffffffffffffffffffffffffffffffffe0180845260208401518051600f80851692600486901c9091169160009190859081106123c6576123c6613067565b602002602001015190506000876020015185600101815181106123eb576123eb613067565b602002602001015190506124018285858461124f565b8860200151868151811061241757612417613067565b6020908102919091010152505085516001018652506125749050565b6005831415612574575082517fffffffffffffffffffffffffffffffffffffffffffffffffffffffffffffffff601f8316918290030180855290600783901c906003600585901c16908360008267ffffffffffffffff81111561249857612498612a76565b6040519080825280602002602001820160405280156124c1578160200160208202803683370190505b50905060005b8381101561251657896020015183815181106124e5576124e5613067565b60200260200101518282815181106124ff576124ff613067565b6020908102919091010152600192830192016124c7565b5060008960200151838151811061252f5761252f613067565b60200260200101519050612545828288886125da565b8a60200151888151811061255b5761255b613067565b6020908102919091010152505087516001018852505050505b5050505050565b60008060015b600881116125d2576000612595868361272a565b905060006125a3868461272a565b905060006125b183836127df565b90506125c18560018603836127f5565b945050600190920191506125819050565b509392505050565b835160009081908190819060015b6008811161271c5760009250828761262157507fffffffffffffffffffffffffffffffffffffffffffffffffffffffffffffffff612625565b5060005b60005b838110156126da576126538c828151811061264557612645613067565b60200260200101518461272a565b95508a86116126a557886126725761266b868361287f565b915061269c565b60018914156126855761266b8683612895565b600289148015612693575084155b1561269c578591505b600194506126d2565b896126d2577fffffffffffffffffffffffffffffffffffffffffffffffffffffffffffffffff91506126da565b600101612628565b508361270357507fffffffffffffffffffffffffffffffffffffffffffffffffffffffffffffffff5b6127118660018403836127f5565b9550506001016125e8565b509298975050505050505050565b6000816008811115612798576040517f08c379a000000000000000000000000000000000000000000000000000000000815260206004820152600860248201527f4d41585f54494552000000000000000000000000000000000000000000000000604482015260640161044b565b826127a657600091506127d8565b63ffffffff60207fffffffffffffffffffffffffffffffffffffffffffffffffffffffffffffffff85010285901c1691505b5092915050565b60008183116127ef576000610467565b50900390565b6000826008811115612863576040517f08c379a000000000000000000000000000000000000000000000000000000000815260206004820152600860248201527f4d41585f54494552000000000000000000000000000000000000000000000000604482015260640161044b565b505060209190910290811b63ffffffff90911b19919091161790565b600081831061288e5781610467565b5090919050565b60008183101561288e5781610467565b8280546128b190612f79565b90600052602060002090601f0160209004810192826128d35760008555612919565b82601f106128ec57805160ff1916838001178555612919565b82800160010185558215612919579182015b828111156129195782518255916020019190600101906128fe565b50612925929150612929565b5090565b5b80821115612925576000815560010161292a565b60005b83811015612959578181015183820152602001612941565b83811115610f1f5750506000910152565b6000815180845261298281602086016020860161293e565b601f017fffffffffffffffffffffffffffffffffffffffffffffffffffffffffffffffe0169290920160200192915050565b602081526000610467602083018461296a565b73ffffffffffffffffffffffffffffffffffffffff811681146129e957600080fd5b50565b600080604083850312156129ff57600080fd5b8235612a0a816129c7565b946020939093013593505050565b600080600060608486031215612a2d57600080fd5b8335612a38816129c7565b92506020840135612a48816129c7565b929592945050506040919091013590565b600060208284031215612a6b57600080fd5b8135610467816129c7565b7f4e487b7100000000000000000000000000000000000000000000000000000000600052604160045260246000fd5b6040516080810167ffffffffffffffff81118282101715612ac857612ac8612a76565b60405290565b6040516060810167ffffffffffffffff81118282101715612ac857612ac8612a76565b60405160a0810167ffffffffffffffff81118282101715612ac857612ac8612a76565b604051601f82017fffffffffffffffffffffffffffffffffffffffffffffffffffffffffffffffe016810167ffffffffffffffff81118282101715612b5b57612b5b612a76565b604052919050565b600067ffffffffffffffff821115612b7d57612b7d612a76565b50601f017fffffffffffffffffffffffffffffffffffffffffffffffffffffffffffffffe01660200190565b600082601f830112612bba57600080fd5b8135612bcd612bc882612b63565b612b14565b818152846020838601011115612be257600080fd5b816020850160208301376000918101602001919091529392505050565b600067ffffffffffffffff821115612c1957612c19612a76565b5060051b60200190565b600082601f830112612c3457600080fd5b81356020612c44612bc883612bff565b82815260059290921b84018101918181019086841115612c6357600080fd5b8286015b84811015612c7e5780358352918301918301612c67565b509695505050505050565b600060808284031215612c9b57600080fd5b612ca3612aa5565b9050813567ffffffffffffffff80821115612cbd57600080fd5b818401915084601f830112612cd157600080fd5b81356020612ce1612bc883612bff565b82815260059290921b84018101918181019088841115612d0057600080fd5b8286015b84811015612d3857803586811115612d1c5760008081fd5b612d2a8b86838b0101612ba9565b845250918301918301612d04565b5086525085810135935082841115612d4f57600080fd5b612d5b87858801612c23565b8186015250505050604082013560408201526060820135606082015292915050565b600060208284031215612d8f57600080fd5b813567ffffffffffffffff80821115612da757600080fd5b9083019060608286031215612dbb57600080fd5b612dc3612ace565b82358015158114612dd357600080fd5b8152602083013582811115612de757600080fd5b830160808188031215612df957600080fd5b612e01612aa5565b813584811115612e1057600080fd5b612e1c89828501612ba9565b825250602082013584811115612e3157600080fd5b612e3d89828501612ba9565b6020830152506040820135612e51816129c7565b80604083015250606082013560608201528060208401525050604083013582811115612e7c57600080fd5b612e8887828601612c89565b60408301525095945050505050565b600080600060608486031215612eac57600080fd5b8335612eb7816129c7565b925060208401359150604084013567ffffffffffffffff811115612eda57600080fd5b612ee686828701612ba9565b9150509250925092565b60008060408385031215612f0357600080fd5b8235612f0e816129c7565b9150602083013567ffffffffffffffff811115612f2a57600080fd5b612f3685828601612ba9565b9150509250929050565b60008060408385031215612f5357600080fd5b8235612f5e816129c7565b91506020830135612f6e816129c7565b809150509250929050565b600181811c90821680612f8d57607f821691505b60208210811415611726577f4e487b7100000000000000000000000000000000000000000000000000000000600052602260045260246000fd5b7f4e487b7100000000000000000000000000000000000000000000000000000000600052601160045260246000fd5b6000821982111561300957613009612fc7565b500190565b600073ffffffffffffffffffffffffffffffffffffffff808616835280851660208401525060606040830152613047606083018461296a565b95945050505050565b60008282101561306257613062612fc7565b500390565b7f4e487b7100000000000000000000000000000000000000000000000000000000600052603260045260246000fd5b600081518084526020808501945080840160005b838110156130c6578151875295820195908201906001016130aa565b509495945050505050565b80518252600060208083015160a0828601526130f060a0860182613096565b9050604084015185820360408701528181518084528484019150848160051b850101858401935060005b82811015613166577fffffffffffffffffffffffffffffffffffffffffffffffffffffffffffffffe086830301845261315482865161296a565b9487019493870193915060010161311a565b506060880151955088810360608a01526131808187613096565b95505050505050608083015184820360808601526130478282613096565b60208152600061046760208301846130d1565b600073ffffffffffffffffffffffffffffffffffffffff80861683528085166020840152506060604083015261304760608301846130d1565b600082601f8301126131fb57600080fd5b8151602061320b612bc883612bff565b82815260059290921b8401810191818101908684111561322a57600080fd5b8286015b84811015612c7e578051835291830191830161322e565b600082601f83011261325657600080fd5b81516020613266612bc883612bff565b82815260059290921b8401810191818101908684111561328557600080fd5b8286015b84811015612c7e57805167ffffffffffffffff8111156132a95760008081fd5b8701603f810189136132bb5760008081fd5b8481015160406132cd612bc883612b63565b8281528b828486010111156132e25760008081fd5b6132f18389830184870161293e565b8652505050918301918301613289565b60006020828403121561331357600080fd5b815167ffffffffffffffff8082111561332b57600080fd5b9083019060a0828603121561333f57600080fd5b613347612af1565b8251815260208301518281111561335d57600080fd5b613369878286016131ea565b60208301525060408301518281111561338157600080fd5b61338d87828601613245565b6040830152506060830151828111156133a557600080fd5b6133b1878286016131ea565b6060830152506080830151828111156133c957600080fd5b6133d5878286016131ea565b60808301525095945050505050565b60008152600082516133fd81600185016020870161293e565b9190910160010192915050565b60006020828403121561341c57600080fd5b8151610467816129c7565b7f630000000000000000000000000000000000000000000000000000000000000081527fffffffff000000000000000000000000000000000000000000000000000000008360e01b1660018201527f80600e6000396000f300000000000000000000000000000000000000000000006005820152600082516134b081600e85016020870161293e565b91909101600e019392505050565b6000817fffffffffffffffffffffffffffffffffffffffffffffffffffffffffffffffff04831182151516156134f6576134f6612fc7565b500290565b7f4e487b7100000000000000000000000000000000000000000000000000000000600052601260045260246000fd5b600082613539576135396134fb565b500490565b60008261354d5761354d6134fb565b500690565b600181815b808511156135ab57817fffffffffffffffffffffffffffffffffffffffffffffffffffffffffffffffff0482111561359157613591612fc7565b8085161561359e57918102915b93841c9390800290613557565b509250929050565b6000826135c25750600161037b565b816135cf5750600061037b565b81600181146135e557600281146135ef5761360b565b600191505061037b565b60ff84111561360057613600612fc7565b50506001821b61037b565b5060208310610133831016604e8410600b841016171561362e575081810a61037b565b6136388383613552565b807fffffffffffffffffffffffffffffffffffffffffffffffffffffffffffffffff0482111561366a5761366a612fc7565b029392505050565b600061046783836135b3565b60006020828403121561369057600080fd5b505191905056fea2646970667358221220a191afe5c50164c32589d6ffda1bad846ecc2bb553bde6bcbae39d3de0c64fba64736f6c634300080a0033",
  "linkReferences": {},
  "deployedLinkReferences": {}
}