{
  "_format": "hh-sol-artifact-1",
  "contractName": "ERC20BalanceTier",
  "sourceName": "contracts/tier/ERC20BalanceTier.sol",
  "abi": [
    {
      "inputs": [
        {
          "components": [
            {
              "internalType": "contract IERC20",
              "name": "erc20",
              "type": "address"
            },
            {
              "internalType": "uint256[8]",
              "name": "tierValues",
              "type": "uint256[8]"
            }
          ],
          "internalType": "struct ERC20BalanceTierConfig",
          "name": "config_",
          "type": "tuple"
        }
      ],
      "stateMutability": "nonpayable",
      "type": "constructor"
    },
    {
      "anonymous": false,
      "inputs": [
        {
          "indexed": false,
          "internalType": "address",
          "name": "account",
          "type": "address"
        },
        {
          "indexed": false,
          "internalType": "uint256",
          "name": "startTier",
          "type": "uint256"
        },
        {
          "indexed": false,
          "internalType": "uint256",
          "name": "endTier",
          "type": "uint256"
        }
      ],
      "name": "TierChange",
      "type": "event"
    },
    {
      "inputs": [],
      "name": "erc20",
      "outputs": [
        {
          "internalType": "contract IERC20",
          "name": "",
          "type": "address"
        }
      ],
      "stateMutability": "view",
      "type": "function"
    },
    {
      "inputs": [
        {
          "internalType": "address",
          "name": "account_",
          "type": "address"
        }
      ],
      "name": "report",
      "outputs": [
        {
          "internalType": "uint256",
          "name": "",
          "type": "uint256"
        }
      ],
      "stateMutability": "view",
      "type": "function"
    },
    {
      "inputs": [
        {
          "internalType": "address",
          "name": "",
          "type": "address"
        },
        {
          "internalType": "uint256",
          "name": "",
          "type": "uint256"
        },
        {
          "internalType": "bytes",
          "name": "",
          "type": "bytes"
        }
      ],
      "name": "setTier",
      "outputs": [],
      "stateMutability": "pure",
      "type": "function"
    },
    {
      "inputs": [],
      "name": "tierValues",
      "outputs": [
        {
          "internalType": "uint256[8]",
          "name": "tierValues_",
          "type": "uint256[8]"
        }
      ],
      "stateMutability": "view",
      "type": "function"
    }
  ],
  "bytecode": "0x6101a060405234801561001157600080fd5b506040516108ce3803806108ce833981016040819052610030916100eb565b602081810151805160809081529181015160a0908152604082015160c0908152606083015160e09081529383015161010052908201516101205281015161014052015161016052516001600160a01b031661018052610177565b634e487b7160e01b600052604160045260246000fd5b604080519081016001600160401b03811182821017156100c2576100c261008a565b60405290565b60405161010081016001600160401b03811182821017156100c2576100c261008a565b60006101208083850312156100ff57600080fd5b6101076100a0565b83516001600160a01b038116811461011e57600080fd5b81526020603f8501861361013157600080fd5b6101396100c8565b92850192808785111561014b57600080fd5b8287015b85811015610166578051835291830191830161014f565b509183019190915250949350505050565b60805160a05160c05160e05161010051610120516101405161016051610180516106e26101ec60003960008181607401526102e201526000610202015260006101dc015260006101b6015260006101900152600061016a015260006101440152600061011e0152600060fb01526106e26000f3fe608060405234801561001057600080fd5b506004361061004c5760003560e01c806370230b3914610051578063785e9e861461006f5780638a200fff146100bb578063e053ea31146100d0575b600080fd5b6100596100f1565b604051610066919061046f565b60405180910390f35b6100967f000000000000000000000000000000000000000000000000000000000000000081565b60405173ffffffffffffffffffffffffffffffffffffffff9091168152602001610066565b6100ce6100c93660046104f9565b610229565b005b6100e36100de3660046105e2565b610290565b604051908152602001610066565b6100f9610450565b7f000000000000000000000000000000000000000000000000000000000000000081527f000000000000000000000000000000000000000000000000000000000000000060208201527f000000000000000000000000000000000000000000000000000000000000000060408201527f000000000000000000000000000000000000000000000000000000000000000060608201527f000000000000000000000000000000000000000000000000000000000000000060808201527f000000000000000000000000000000000000000000000000000000000000000060a08201527f000000000000000000000000000000000000000000000000000000000000000060c08201527f000000000000000000000000000000000000000000000000000000000000000060e082015290565b6040517f08c379a000000000000000000000000000000000000000000000000000000000815260206004820152600860248201527f5345545f5449455200000000000000000000000000000000000000000000000060448201526064015b60405180910390fd5b6040517f70a0823100000000000000000000000000000000000000000000000000000000815273ffffffffffffffffffffffffffffffffffffffff8281166004830152600091610357918391610352917f000000000000000000000000000000000000000000000000000000000000000016906370a0823190602401602060405180830381865afa158015610329573d6000803e3d6000fd5b505050506040513d601f19601f8201168201806040525081019061034d9190610633565b61035d565b6103b0565b92915050565b6000805b60088110156103a7576103726100f1565b816008811061038357610383610604565b60200201518310156103955792915050565b8061039f8161064c565b915050610361565b50600892915050565b600081600881111561041e576040517f08c379a000000000000000000000000000000000000000000000000000000000815260206004820152600860248201527f4d41585f544945520000000000000000000000000000000000000000000000006044820152606401610287565b50507fffffffffffffffffffffffffffffffffffffffffffffffffffffffffffffffff60209190910290811c901b1790565b6040518061010001604052806008906020820280368337509192915050565b6101008101818360005b6008811015610498578151835260209283019290910190600101610479565b50505092915050565b803573ffffffffffffffffffffffffffffffffffffffff811681146104c557600080fd5b919050565b7f4e487b7100000000000000000000000000000000000000000000000000000000600052604160045260246000fd5b60008060006060848603121561050e57600080fd5b610517846104a1565b925060208401359150604084013567ffffffffffffffff8082111561053b57600080fd5b818601915086601f83011261054f57600080fd5b813581811115610561576105616104ca565b604051601f82017fffffffffffffffffffffffffffffffffffffffffffffffffffffffffffffffe0908116603f011681019083821181831017156105a7576105a76104ca565b816040528281528960208487010111156105c057600080fd5b8260208601602083013760006020848301015280955050505050509250925092565b6000602082840312156105f457600080fd5b6105fd826104a1565b9392505050565b7f4e487b7100000000000000000000000000000000000000000000000000000000600052603260045260246000fd5b60006020828403121561064557600080fd5b5051919050565b60007fffffffffffffffffffffffffffffffffffffffffffffffffffffffffffffffff8214156106a5577f4e487b7100000000000000000000000000000000000000000000000000000000600052601160045260246000fd5b506001019056fea26469706673582212200bd45ac0ff22cdf60943d7202e1fd9759500a0411962dc1c99a25f30daedec0d64736f6c634300080a0033",
  "linkReferences": {},
  "deployedLinkReferences": {}
}