{
  "_format": "hh-sol-artifact-1",
  "contractName": "ERC20BalanceTierFactory",
  "sourceName": "contracts/tier/ERC20BalanceTierFactory.sol",
  "abi": [
    {
      "anonymous": false,
      "inputs": [
        {
          "indexed": false,
          "internalType": "address",
          "name": "sender",
          "type": "address"
        },
        {
          "indexed": false,
          "internalType": "address",
          "name": "child",
          "type": "address"
        }
      ],
      "name": "NewChild",
      "type": "event"
    },
    {
      "inputs": [
        {
          "internalType": "bytes",
          "name": "data_",
          "type": "bytes"
        }
      ],
      "name": "createChild",
      "outputs": [
        {
          "internalType": "address",
          "name": "",
          "type": "address"
        }
      ],
      "stateMutability": "nonpayable",
      "type": "function"
    },
    {
      "inputs": [
        {
          "components": [
            {
              "internalType": "contract IERC20",
              "name": "erc20",
              "type": "address"
            },
            {
              "internalType": "uint256[8]",
              "name": "tierValues",
              "type": "uint256[8]"
            }
          ],
          "internalType": "struct ERC20BalanceTierConfig",
          "name": "config_",
          "type": "tuple"
        }
      ],
      "name": "createChild",
      "outputs": [
        {
          "internalType": "address",
          "name": "",
          "type": "address"
        }
      ],
      "stateMutability": "nonpayable",
      "type": "function"
    },
    {
      "inputs": [
        {
          "internalType": "address",
          "name": "maybeChild_",
          "type": "address"
        }
      ],
      "name": "isChild",
      "outputs": [
        {
          "internalType": "bool",
          "name": "",
          "type": "bool"
        }
      ],
      "stateMutability": "view",
      "type": "function"
    }
  ],
  "bytecode": "0x608060405234801561001057600080fd5b506001600055610e93806100256000396000f3fe608060405234801561001057600080fd5b50600436106100415760003560e01c80632ea72a49146100465780639c42740d14610083578063fc91a89714610096575b600080fd5b6100596100543660046102f9565b6100df565b60405173ffffffffffffffffffffffffffffffffffffffff90911681526020015b60405180910390f35b6100596100913660046103e9565b6101fc565b6100cf6100a4366004610487565b73ffffffffffffffffffffffffffffffffffffffff1660009081526001602052604090205460ff1690565b604051901515815260200161007a565b600060026000541415610152576040517f08c379a000000000000000000000000000000000000000000000000000000000815260206004820152601f60248201527f5265656e7472616e637947756172643a207265656e7472616e742063616c6c00604482015260640160405180910390fd5b60026000908155610163848461029f565b73ffffffffffffffffffffffffffffffffffffffff811660008181526001602081815260409283902080547fffffffffffffffffffffffffffffffffffffffffffffffffffffffffffffff00169092179091558151338152908101929092529192507f7da70c4e5387d7038610b79ca7d304caaef815826e51e67cf247135387a79bce910160405180910390a160016000559392505050565b60003073ffffffffffffffffffffffffffffffffffffffff16632ea72a498360405160200161022b91906104ab565b6040516020818303038152906040526040518263ffffffff1660e01b815260040161025691906104ff565b6020604051808303816000875af1158015610275573d6000803e3d6000fd5b505050506040513d601f19601f820116820180604052508101906102999190610572565b92915050565b6000806102ae838501856103e9565b9050806040516102bd906102ec565b6102c791906104ab565b604051809103906000f0801580156102e3573d6000803e3d6000fd5b50949350505050565b6108ce8061059083390190565b6000806020838503121561030c57600080fd5b823567ffffffffffffffff8082111561032457600080fd5b818501915085601f83011261033857600080fd5b81358181111561034757600080fd5b86602082850101111561035957600080fd5b60209290920196919550909350505050565b7f4e487b7100000000000000000000000000000000000000000000000000000000600052604160045260246000fd5b604051610100810167ffffffffffffffff811182821017156103be576103be61036b565b60405290565b73ffffffffffffffffffffffffffffffffffffffff811681146103e657600080fd5b50565b60006101208083850312156103fd57600080fd5b6040516040810181811067ffffffffffffffff821117156104205761042061036b565b604052833561042e816103c4565b81526020603f8501861361044157600080fd5b61044961039a565b92850192808785111561045b57600080fd5b8287015b85811015610476578035835291830191830161045f565b509183019190915250949350505050565b60006020828403121561049957600080fd5b81356104a4816103c4565b9392505050565b815173ffffffffffffffffffffffffffffffffffffffff1681526020808301516101208301919081840160005b60088110156104f5578251825291830191908301906001016104d8565b5050505092915050565b600060208083528351808285015260005b8181101561052c57858101830151858201604001528201610510565b8181111561053e576000604083870101525b50601f017fffffffffffffffffffffffffffffffffffffffffffffffffffffffffffffffe016929092016040019392505050565b60006020828403121561058457600080fd5b81516104a4816103c456fe6101a060405234801561001157600080fd5b506040516108ce3803806108ce833981016040819052610030916100eb565b602081810151805160809081529181015160a0908152604082015160c0908152606083015160e09081529383015161010052908201516101205281015161014052015161016052516001600160a01b031661018052610177565b634e487b7160e01b600052604160045260246000fd5b604080519081016001600160401b03811182821017156100c2576100c261008a565b60405290565b60405161010081016001600160401b03811182821017156100c2576100c261008a565b60006101208083850312156100ff57600080fd5b6101076100a0565b83516001600160a01b038116811461011e57600080fd5b81526020603f8501861361013157600080fd5b6101396100c8565b92850192808785111561014b57600080fd5b8287015b85811015610166578051835291830191830161014f565b509183019190915250949350505050565b60805160a05160c05160e05161010051610120516101405161016051610180516106e26101ec60003960008181607401526102e201526000610202015260006101dc015260006101b6015260006101900152600061016a015260006101440152600061011e0152600060fb01526106e26000f3fe608060405234801561001057600080fd5b506004361061004c5760003560e01c806370230b3914610051578063785e9e861461006f5780638a200fff146100bb578063e053ea31146100d0575b600080fd5b6100596100f1565b604051610066919061046f565b60405180910390f35b6100967f000000000000000000000000000000000000000000000000000000000000000081565b60405173ffffffffffffffffffffffffffffffffffffffff9091168152602001610066565b6100ce6100c93660046104f9565b610229565b005b6100e36100de3660046105e2565b610290565b604051908152602001610066565b6100f9610450565b7f000000000000000000000000000000000000000000000000000000000000000081527f000000000000000000000000000000000000000000000000000000000000000060208201527f000000000000000000000000000000000000000000000000000000000000000060408201527f000000000000000000000000000000000000000000000000000000000000000060608201527f000000000000000000000000000000000000000000000000000000000000000060808201527f000000000000000000000000000000000000000000000000000000000000000060a08201527f000000000000000000000000000000000000000000000000000000000000000060c08201527f000000000000000000000000000000000000000000000000000000000000000060e082015290565b6040517f08c379a000000000000000000000000000000000000000000000000000000000815260206004820152600860248201527f5345545f5449455200000000000000000000000000000000000000000000000060448201526064015b60405180910390fd5b6040517f70a0823100000000000000000000000000000000000000000000000000000000815273ffffffffffffffffffffffffffffffffffffffff8281166004830152600091610357918391610352917f000000000000000000000000000000000000000000000000000000000000000016906370a0823190602401602060405180830381865afa158015610329573d6000803e3d6000fd5b505050506040513d601f19601f8201168201806040525081019061034d9190610633565b61035d565b6103b0565b92915050565b6000805b60088110156103a7576103726100f1565b816008811061038357610383610604565b60200201518310156103955792915050565b8061039f8161064c565b915050610361565b50600892915050565b600081600881111561041e576040517f08c379a000000000000000000000000000000000000000000000000000000000815260206004820152600860248201527f4d41585f544945520000000000000000000000000000000000000000000000006044820152606401610287565b50507fffffffffffffffffffffffffffffffffffffffffffffffffffffffffffffffff60209190910290811c901b1790565b6040518061010001604052806008906020820280368337509192915050565b6101008101818360005b6008811015610498578151835260209283019290910190600101610479565b50505092915050565b803573ffffffffffffffffffffffffffffffffffffffff811681146104c557600080fd5b919050565b7f4e487b7100000000000000000000000000000000000000000000000000000000600052604160045260246000fd5b60008060006060848603121561050e57600080fd5b610517846104a1565b925060208401359150604084013567ffffffffffffffff8082111561053b57600080fd5b818601915086601f83011261054f57600080fd5b813581811115610561576105616104ca565b604051601f82017fffffffffffffffffffffffffffffffffffffffffffffffffffffffffffffffe0908116603f011681019083821181831017156105a7576105a76104ca565b816040528281528960208487010111156105c057600080fd5b8260208601602083013760006020848301015280955050505050509250925092565b6000602082840312156105f457600080fd5b6105fd826104a1565b9392505050565b7f4e487b7100000000000000000000000000000000000000000000000000000000600052603260045260246000fd5b60006020828403121561064557600080fd5b5051919050565b60007fffffffffffffffffffffffffffffffffffffffffffffffffffffffffffffffff8214156106a5577f4e487b7100000000000000000000000000000000000000000000000000000000600052601160045260246000fd5b506001019056fea26469706673582212200bd45ac0ff22cdf60943d7202e1fd9759500a0411962dc1c99a25f30daedec0d64736f6c634300080a0033a264697066735822122062cf15d723214871f4f05376373371d6cb1fa66f05b873376a0687414e12f78964736f6c634300080a0033",
  "linkReferences": {},
  "deployedLinkReferences": {}
}