{
  "_format": "hh-sol-artifact-1",
  "contractName": "ERC721BalanceTierFactory",
  "sourceName": "contracts/tier/ERC721BalanceTierFactory.sol",
  "abi": [
    {
      "inputs": [],
      "stateMutability": "nonpayable",
      "type": "constructor"
    },
    {
      "anonymous": false,
      "inputs": [
        {
          "indexed": false,
          "internalType": "address",
          "name": "sender",
          "type": "address"
        },
        {
          "indexed": false,
          "internalType": "address",
          "name": "child",
          "type": "address"
        }
      ],
      "name": "NewChild",
      "type": "event"
    },
    {
      "inputs": [
        {
          "internalType": "bytes",
          "name": "data_",
          "type": "bytes"
        }
      ],
      "name": "createChild",
      "outputs": [
        {
          "internalType": "address",
          "name": "",
          "type": "address"
        }
      ],
      "stateMutability": "nonpayable",
      "type": "function"
    },
    {
      "inputs": [
        {
          "components": [
            {
              "internalType": "contract IERC721",
              "name": "erc721",
              "type": "address"
            },
            {
              "internalType": "uint256[8]",
              "name": "tierValues",
              "type": "uint256[8]"
            }
          ],
          "internalType": "struct ERC721BalanceTierConfig",
          "name": "config_",
          "type": "tuple"
        }
      ],
      "name": "createChildTyped",
      "outputs": [
        {
          "internalType": "contract ERC721BalanceTier",
          "name": "",
          "type": "address"
        }
      ],
      "stateMutability": "nonpayable",
      "type": "function"
    },
    {
      "inputs": [
        {
          "internalType": "address",
          "name": "maybeChild_",
          "type": "address"
        }
      ],
      "name": "isChild",
      "outputs": [
        {
          "internalType": "bool",
          "name": "",
          "type": "bool"
        }
      ],
      "stateMutability": "view",
      "type": "function"
    }
  ],
  "bytecode": "0x608060405234801561001057600080fd5b50600160005560405161002290610064565b604051809103906000f08015801561003e573d6000803e3d6000fd5b50600280546001600160a01b0319166001600160a01b0392909216919091179055610071565b610cc78061079583390190565b610715806100806000396000f3fe608060405234801561001057600080fd5b50600436106100415760003560e01c80632ea72a4914610046578063ab43ea1f14610083578063fc91a89714610096575b600080fd5b610059610054366004610449565b6100df565b60405173ffffffffffffffffffffffffffffffffffffffff90911681526020015b60405180910390f35b610059610091366004610539565b6101fd565b6100cf6100a43660046105d7565b73ffffffffffffffffffffffffffffffffffffffff1660009081526001602052604090205460ff1690565b604051901515815260200161007a565b600060026000541415610153576040517f08c379a000000000000000000000000000000000000000000000000000000000815260206004820152601f60248201527f5265656e7472616e637947756172643a207265656e7472616e742063616c6c0060448201526064015b60405180910390fd5b6002600090815561016484846102a0565b73ffffffffffffffffffffffffffffffffffffffff811660008181526001602081815260409283902080547fffffffffffffffffffffffffffffffffffffffffffffffffffffffffffffff00169092179091558151338152908101929092529192507f7da70c4e5387d7038610b79ca7d304caaef815826e51e67cf247135387a79bce910160405180910390a160016000559392505050565b60003073ffffffffffffffffffffffffffffffffffffffff16632ea72a498360405160200161022c91906105fb565b6040516020818303038152906040526040518263ffffffff1660e01b8152600401610257919061064f565b6020604051808303816000875af1158015610276573d6000803e3d6000fd5b505050506040513d601f19601f8201168201806040525081019061029a91906106c2565b92915050565b6000806102af83850185610539565b6002549091506000906102d79073ffffffffffffffffffffffffffffffffffffffff16610367565b6040517fa61e331500000000000000000000000000000000000000000000000000000000815290915073ffffffffffffffffffffffffffffffffffffffff82169063a61e33159061032c9085906004016105fb565b600060405180830381600087803b15801561034657600080fd5b505af115801561035a573d6000803e3d6000fd5b5092979650505050505050565b60006040517f3d602d80600a3d3981f3363d3d373d3d3d363d7300000000000000000000000081528260601b60148201527f5af43d82803e903d91602b57fd5bf3000000000000000000000000000000000060288201526037816000f091505073ffffffffffffffffffffffffffffffffffffffff8116610444576040517f08c379a000000000000000000000000000000000000000000000000000000000815260206004820152601660248201527f455243313136373a20637265617465206661696c656400000000000000000000604482015260640161014a565b919050565b6000806020838503121561045c57600080fd5b823567ffffffffffffffff8082111561047457600080fd5b818501915085601f83011261048857600080fd5b81358181111561049757600080fd5b8660208285010111156104a957600080fd5b60209290920196919550909350505050565b7f4e487b7100000000000000000000000000000000000000000000000000000000600052604160045260246000fd5b604051610100810167ffffffffffffffff8111828210171561050e5761050e6104bb565b60405290565b73ffffffffffffffffffffffffffffffffffffffff8116811461053657600080fd5b50565b600061012080838503121561054d57600080fd5b6040516040810181811067ffffffffffffffff82111715610570576105706104bb565b604052833561057e81610514565b81526020603f8501861361059157600080fd5b6105996104ea565b9285019280878511156105ab57600080fd5b8287015b858110156105c657803583529183019183016105af565b509183019190915250949350505050565b6000602082840312156105e957600080fd5b81356105f481610514565b9392505050565b815173ffffffffffffffffffffffffffffffffffffffff1681526020808301516101208301919081840160005b600881101561064557825182529183019190830190600101610628565b5050505092915050565b600060208083528351808285015260005b8181101561067c57858101830151858201604001528201610660565b8181111561068e576000604083870101525b50601f017fffffffffffffffffffffffffffffffffffffffffffffffffffffffffffffffe016929092016040019392505050565b6000602082840312156106d457600080fd5b81516105f48161051456fea2646970667358221220f18d933ca1d62fd9496de8828bb246d0b40f6465789fd4b1c6cafa04e1b82b0364736f6c634300080a0033608060405234801561001057600080fd5b50610ca7806100206000396000f3fe608060405234801561001057600080fd5b50600436106100675760003560e01c8063a61e331511610050578063a61e33151461009f578063bca6ce64146100b2578063e053ea31146100f757600080fd5b806370230b391461006c5780638a200fff1461008a575b600080fd5b610074610118565b6040516100819190610806565b60405180910390f35b61009d610098366004610905565b61015a565b005b61009d6100ad3660046109d4565b6101c1565b6001546100d29073ffffffffffffffffffffffffffffffffffffffff1681565b60405173ffffffffffffffffffffffffffffffffffffffff9091168152602001610081565b61010a610105366004610a72565b610385565b604051908152602001610081565b6101206107e7565b6000546101429073ffffffffffffffffffffffffffffffffffffffff1661043b565b8060200190518101906101559190610a8f565b905090565b6040517f08c379a000000000000000000000000000000000000000000000000000000000815260206004820152600860248201527f5345545f5449455200000000000000000000000000000000000000000000000060448201526064015b60405180910390fd5b6000547501000000000000000000000000000000000000000000900460ff166102085760005474010000000000000000000000000000000000000000900460ff161561020c565b303b155b610298576040517f08c379a000000000000000000000000000000000000000000000000000000000815260206004820152602e60248201527f496e697469616c697a61626c653a20636f6e747261637420697320616c72656160448201527f647920696e697469616c697a656400000000000000000000000000000000000060648201526084016101b8565b6000547501000000000000000000000000000000000000000000900460ff161580156102ff57600080547fffffffffffffffffffff0000ffffffffffffffffffffffffffffffffffffffff1675010100000000000000000000000000000000000000001790555b61030c8260200151610469565b8151600180547fffffffffffffffffffffffff00000000000000000000000000000000000000001673ffffffffffffffffffffffffffffffffffffffff909216919091179055801561038157600080547fffffffffffffffffffff00ffffffffffffffffffffffffffffffffffffffffff1690555b5050565b60006104356000610430610397610118565b6001546040517f70a0823100000000000000000000000000000000000000000000000000000000815273ffffffffffffffffffffffffffffffffffffffff8881166004830152909116906370a0823190602401602060405180830381865afa158015610407573d6000803e3d6000fd5b505050506040513d601f19601f8201168201806040525081019061042b9190610af0565b610559565b6105a7565b92915050565b60606104358260017fffffffffffffffffffffffffffffffffffffffffffffffffffffffffffffffff610647565b60005473ffffffffffffffffffffffffffffffffffffffff16156104e9576040517f08c379a000000000000000000000000000000000000000000000000000000000815260206004820152600c60248201527f5245494e495449414c495a45000000000000000000000000000000000000000060448201526064016101b8565b610511816040516020016104fd9190610806565b604051602081830303815290604052610730565b600080547fffffffffffffffffffffffff00000000000000000000000000000000000000001673ffffffffffffffffffffffffffffffffffffffff9290921691909117905550565b6000805b600881101561059d5783816008811061057857610578610b09565b602002015183101561058b579050610435565b8061059581610b38565b91505061055d565b5060089392505050565b6000816008811115610615576040517f08c379a000000000000000000000000000000000000000000000000000000000815260206004820152600860248201527f4d41585f5449455200000000000000000000000000000000000000000000000060448201526064016101b8565b50507fffffffffffffffffffffffffffffffffffffffffffffffffffffffffffffffff60209190910290811c901b1790565b6060833b80610666575050604080516020810190915260008152610729565b80841115610684575050604080516020810190915260008152610729565b838310156106cf576040517f2c4a89fa0000000000000000000000000000000000000000000000000000000081526004810182905260248101859052604481018490526064016101b8565b83830384820360008282106106e457826106e6565b815b60408051603f83017fffffffffffffffffffffffffffffffffffffffffffffffffffffffffffffffe0168101909152818152955090508087602087018a3c505050505b9392505050565b60008061075b836040516020016107479190610bd3565b6040516020818303038152906040526107bb565b90508051602082016000f0915073ffffffffffffffffffffffffffffffffffffffff82166107b5576040517f08d4abb600000000000000000000000000000000000000000000000000000000815260040160405180910390fd5b50919050565b60608151826040516020016107d1929190610be6565b6040516020818303038152906040529050919050565b6040518061010001604052806008906020820280368337509192915050565b6101008101818360005b600881101561082f578151835260209283019290910190600101610810565b50505092915050565b73ffffffffffffffffffffffffffffffffffffffff8116811461085a57600080fd5b50565b7f4e487b7100000000000000000000000000000000000000000000000000000000600052604160045260246000fd5b604051610100810167ffffffffffffffff811182821017156108b0576108b061085d565b60405290565b604051601f82017fffffffffffffffffffffffffffffffffffffffffffffffffffffffffffffffe016810167ffffffffffffffff811182821017156108fd576108fd61085d565b604052919050565b60008060006060848603121561091a57600080fd5b833561092581610838565b92506020848101359250604085013567ffffffffffffffff8082111561094a57600080fd5b818701915087601f83011261095e57600080fd5b8135818111156109705761097061085d565b6109a0847fffffffffffffffffffffffffffffffffffffffffffffffffffffffffffffffe0601f840116016108b6565b915080825288848285010111156109b657600080fd5b80848401858401376000848284010152508093505050509250925092565b60006101208083850312156109e857600080fd5b6040516040810181811067ffffffffffffffff82111715610a0b57610a0b61085d565b6040528335610a1981610838565b81526020603f85018613610a2c57600080fd5b610a3461088c565b928501928087851115610a4657600080fd5b8287015b85811015610a615780358352918301918301610a4a565b509183019190915250949350505050565b600060208284031215610a8457600080fd5b813561072981610838565b6000610100808385031215610aa357600080fd5b83601f840112610ab257600080fd5b610aba61088c565b908301908085831115610acc57600080fd5b845b83811015610ae6578051835260209283019201610ace565b5095945050505050565b600060208284031215610b0257600080fd5b5051919050565b7f4e487b7100000000000000000000000000000000000000000000000000000000600052603260045260246000fd5b60007fffffffffffffffffffffffffffffffffffffffffffffffffffffffffffffffff821415610b91577f4e487b7100000000000000000000000000000000000000000000000000000000600052601160045260246000fd5b5060010190565b6000815160005b81811015610bb95760208185018101518683015201610b9f565b81811115610bc8576000828601525b509290920192915050565b6000815260006107296001830184610b98565b7f630000000000000000000000000000000000000000000000000000000000000081527fffffffff000000000000000000000000000000000000000000000000000000008360e01b1660018201527f80600e6000396000f3000000000000000000000000000000000000000000000060058201526000610c69600e830184610b98565b94935050505056fea26469706673582212202fe78ee33fd1de0ee3838847c1d399aa3ee6691a6e1b9e6e87a2d792872c667e64736f6c634300080a0033",
  "linkReferences": {},
  "deployedLinkReferences": {}
}