{
  "_format": "hh-sol-artifact-1",
  "contractName": "ERC721BalanceTier",
  "sourceName": "contracts/tier/ERC721BalanceTier.sol",
  "abi": [
    {
      "inputs": [
        {
          "internalType": "uint256",
          "name": "_size",
          "type": "uint256"
        },
        {
          "internalType": "uint256",
          "name": "_start",
          "type": "uint256"
        },
        {
          "internalType": "uint256",
          "name": "_end",
          "type": "uint256"
        }
      ],
      "name": "InvalidCodeAtRange",
      "type": "error"
    },
    {
      "inputs": [],
      "name": "WriteError",
      "type": "error"
    },
    {
      "anonymous": false,
      "inputs": [
        {
          "indexed": false,
          "internalType": "address",
          "name": "account",
          "type": "address"
        },
        {
          "indexed": false,
          "internalType": "uint256",
          "name": "startTier",
          "type": "uint256"
        },
        {
          "indexed": false,
          "internalType": "uint256",
          "name": "endTier",
          "type": "uint256"
        }
      ],
      "name": "TierChange",
      "type": "event"
    },
    {
      "inputs": [],
      "name": "erc721",
      "outputs": [
        {
          "internalType": "contract IERC721",
          "name": "",
          "type": "address"
        }
      ],
      "stateMutability": "view",
      "type": "function"
    },
    {
      "inputs": [
        {
          "components": [
            {
              "internalType": "contract IERC721",
              "name": "erc721",
              "type": "address"
            },
            {
              "internalType": "uint256[8]",
              "name": "tierValues",
              "type": "uint256[8]"
            }
          ],
          "internalType": "struct ERC721BalanceTierConfig",
          "name": "config_",
          "type": "tuple"
        }
      ],
      "name": "initialize",
      "outputs": [],
      "stateMutability": "nonpayable",
      "type": "function"
    },
    {
      "inputs": [
        {
          "internalType": "address",
          "name": "account_",
          "type": "address"
        }
      ],
      "name": "report",
      "outputs": [
        {
          "internalType": "uint256",
          "name": "",
          "type": "uint256"
        }
      ],
      "stateMutability": "view",
      "type": "function"
    },
    {
      "inputs": [
        {
          "internalType": "address",
          "name": "",
          "type": "address"
        },
        {
          "internalType": "uint256",
          "name": "",
          "type": "uint256"
        },
        {
          "internalType": "bytes",
          "name": "",
          "type": "bytes"
        }
      ],
      "name": "setTier",
      "outputs": [],
      "stateMutability": "pure",
      "type": "function"
    },
    {
      "inputs": [],
      "name": "tierValues",
      "outputs": [
        {
          "internalType": "uint256[8]",
          "name": "tierValues_",
          "type": "uint256[8]"
        }
      ],
      "stateMutability": "view",
      "type": "function"
    }
  ],
  "bytecode": "0x608060405234801561001057600080fd5b50610ca7806100206000396000f3fe608060405234801561001057600080fd5b50600436106100675760003560e01c8063a61e331511610050578063a61e33151461009f578063bca6ce64146100b2578063e053ea31146100f757600080fd5b806370230b391461006c5780638a200fff1461008a575b600080fd5b610074610118565b6040516100819190610806565b60405180910390f35b61009d610098366004610905565b61015a565b005b61009d6100ad3660046109d4565b6101c1565b6001546100d29073ffffffffffffffffffffffffffffffffffffffff1681565b60405173ffffffffffffffffffffffffffffffffffffffff9091168152602001610081565b61010a610105366004610a72565b610385565b604051908152602001610081565b6101206107e7565b6000546101429073ffffffffffffffffffffffffffffffffffffffff1661043b565b8060200190518101906101559190610a8f565b905090565b6040517f08c379a000000000000000000000000000000000000000000000000000000000815260206004820152600860248201527f5345545f5449455200000000000000000000000000000000000000000000000060448201526064015b60405180910390fd5b6000547501000000000000000000000000000000000000000000900460ff166102085760005474010000000000000000000000000000000000000000900460ff161561020c565b303b155b610298576040517f08c379a000000000000000000000000000000000000000000000000000000000815260206004820152602e60248201527f496e697469616c697a61626c653a20636f6e747261637420697320616c72656160448201527f647920696e697469616c697a656400000000000000000000000000000000000060648201526084016101b8565b6000547501000000000000000000000000000000000000000000900460ff161580156102ff57600080547fffffffffffffffffffff0000ffffffffffffffffffffffffffffffffffffffff1675010100000000000000000000000000000000000000001790555b61030c8260200151610469565b8151600180547fffffffffffffffffffffffff00000000000000000000000000000000000000001673ffffffffffffffffffffffffffffffffffffffff909216919091179055801561038157600080547fffffffffffffffffffff00ffffffffffffffffffffffffffffffffffffffffff1690555b5050565b60006104356000610430610397610118565b6001546040517f70a0823100000000000000000000000000000000000000000000000000000000815273ffffffffffffffffffffffffffffffffffffffff8881166004830152909116906370a0823190602401602060405180830381865afa158015610407573d6000803e3d6000fd5b505050506040513d601f19601f8201168201806040525081019061042b9190610af0565b610559565b6105a7565b92915050565b60606104358260017fffffffffffffffffffffffffffffffffffffffffffffffffffffffffffffffff610647565b60005473ffffffffffffffffffffffffffffffffffffffff16156104e9576040517f08c379a000000000000000000000000000000000000000000000000000000000815260206004820152600c60248201527f5245494e495449414c495a45000000000000000000000000000000000000000060448201526064016101b8565b610511816040516020016104fd9190610806565b604051602081830303815290604052610730565b600080547fffffffffffffffffffffffff00000000000000000000000000000000000000001673ffffffffffffffffffffffffffffffffffffffff9290921691909117905550565b6000805b600881101561059d5783816008811061057857610578610b09565b602002015183101561058b579050610435565b8061059581610b38565b91505061055d565b5060089392505050565b6000816008811115610615576040517f08c379a000000000000000000000000000000000000000000000000000000000815260206004820152600860248201527f4d41585f5449455200000000000000000000000000000000000000000000000060448201526064016101b8565b50507fffffffffffffffffffffffffffffffffffffffffffffffffffffffffffffffff60209190910290811c901b1790565b6060833b80610666575050604080516020810190915260008152610729565b80841115610684575050604080516020810190915260008152610729565b838310156106cf576040517f2c4a89fa0000000000000000000000000000000000000000000000000000000081526004810182905260248101859052604481018490526064016101b8565b83830384820360008282106106e457826106e6565b815b60408051603f83017fffffffffffffffffffffffffffffffffffffffffffffffffffffffffffffffe0168101909152818152955090508087602087018a3c505050505b9392505050565b60008061075b836040516020016107479190610bd3565b6040516020818303038152906040526107bb565b90508051602082016000f0915073ffffffffffffffffffffffffffffffffffffffff82166107b5576040517f08d4abb600000000000000000000000000000000000000000000000000000000815260040160405180910390fd5b50919050565b60608151826040516020016107d1929190610be6565b6040516020818303038152906040529050919050565b6040518061010001604052806008906020820280368337509192915050565b6101008101818360005b600881101561082f578151835260209283019290910190600101610810565b50505092915050565b73ffffffffffffffffffffffffffffffffffffffff8116811461085a57600080fd5b50565b7f4e487b7100000000000000000000000000000000000000000000000000000000600052604160045260246000fd5b604051610100810167ffffffffffffffff811182821017156108b0576108b061085d565b60405290565b604051601f82017fffffffffffffffffffffffffffffffffffffffffffffffffffffffffffffffe016810167ffffffffffffffff811182821017156108fd576108fd61085d565b604052919050565b60008060006060848603121561091a57600080fd5b833561092581610838565b92506020848101359250604085013567ffffffffffffffff8082111561094a57600080fd5b818701915087601f83011261095e57600080fd5b8135818111156109705761097061085d565b6109a0847fffffffffffffffffffffffffffffffffffffffffffffffffffffffffffffffe0601f840116016108b6565b915080825288848285010111156109b657600080fd5b80848401858401376000848284010152508093505050509250925092565b60006101208083850312156109e857600080fd5b6040516040810181811067ffffffffffffffff82111715610a0b57610a0b61085d565b6040528335610a1981610838565b81526020603f85018613610a2c57600080fd5b610a3461088c565b928501928087851115610a4657600080fd5b8287015b85811015610a615780358352918301918301610a4a565b509183019190915250949350505050565b600060208284031215610a8457600080fd5b813561072981610838565b6000610100808385031215610aa357600080fd5b83601f840112610ab257600080fd5b610aba61088c565b908301908085831115610acc57600080fd5b845b83811015610ae6578051835260209283019201610ace565b5095945050505050565b600060208284031215610b0257600080fd5b5051919050565b7f4e487b7100000000000000000000000000000000000000000000000000000000600052603260045260246000fd5b60007fffffffffffffffffffffffffffffffffffffffffffffffffffffffffffffffff821415610b91577f4e487b7100000000000000000000000000000000000000000000000000000000600052601160045260246000fd5b5060010190565b6000815160005b81811015610bb95760208185018101518683015201610b9f565b81811115610bc8576000828601525b509290920192915050565b6000815260006107296001830184610b98565b7f630000000000000000000000000000000000000000000000000000000000000081527fffffffff000000000000000000000000000000000000000000000000000000008360e01b1660018201527f80600e6000396000f3000000000000000000000000000000000000000000000060058201526000610c69600e830184610b98565b94935050505056fea26469706673582212202fe78ee33fd1de0ee3838847c1d399aa3ee6691a6e1b9e6e87a2d792872c667e64736f6c634300080a0033",
  "linkReferences": {},
  "deployedLinkReferences": {}
}