{
  "_format": "hh-sol-artifact-1",
  "contractName": "RedeemableERC20",
  "sourceName": "contracts/redeemableERC20/RedeemableERC20.sol",
  "abi": [
    {
      "anonymous": false,
      "inputs": [
        {
          "indexed": true,
          "internalType": "address",
          "name": "owner",
          "type": "address"
        },
        {
          "indexed": true,
          "internalType": "address",
          "name": "spender",
          "type": "address"
        },
        {
          "indexed": false,
          "internalType": "uint256",
          "name": "value",
          "type": "uint256"
        }
      ],
      "name": "Approval",
      "type": "event"
    },
    {
      "anonymous": false,
      "inputs": [
        {
          "indexed": false,
          "internalType": "address",
          "name": "sender",
          "type": "address"
        },
        {
          "indexed": false,
          "internalType": "address",
          "name": "tokenSender",
          "type": "address"
        },
        {
          "indexed": false,
          "internalType": "address",
          "name": "token",
          "type": "address"
        }
      ],
      "name": "ERC20PullInitialize",
      "type": "event"
    },
    {
      "anonymous": false,
      "inputs": [
        {
          "indexed": false,
          "internalType": "address",
          "name": "sender",
          "type": "address"
        },
        {
          "indexed": false,
          "internalType": "address",
          "name": "admin",
          "type": "address"
        },
        {
          "indexed": false,
          "internalType": "uint256",
          "name": "minimumTier",
          "type": "uint256"
        }
      ],
      "name": "Initialize",
      "type": "event"
    },
    {
      "anonymous": false,
      "inputs": [
        {
          "indexed": false,
          "internalType": "address",
          "name": "sender",
          "type": "address"
        },
        {
          "indexed": false,
          "internalType": "uint256",
          "name": "newPhase",
          "type": "uint256"
        },
        {
          "indexed": false,
          "internalType": "uint256",
          "name": "scheduledBlock",
          "type": "uint256"
        }
      ],
      "name": "PhaseScheduled",
      "type": "event"
    },
    {
      "anonymous": false,
      "inputs": [
        {
          "indexed": false,
          "internalType": "address",
          "name": "sender",
          "type": "address"
        },
        {
          "indexed": false,
          "internalType": "address",
          "name": "grantedReceiver",
          "type": "address"
        }
      ],
      "name": "Receiver",
      "type": "event"
    },
    {
      "anonymous": false,
      "inputs": [
        {
          "indexed": false,
          "internalType": "address",
          "name": "sender",
          "type": "address"
        },
        {
          "indexed": false,
          "internalType": "address",
          "name": "treasuryAsset",
          "type": "address"
        },
        {
          "indexed": false,
          "internalType": "uint256",
          "name": "redeemAmount",
          "type": "uint256"
        },
        {
          "indexed": false,
          "internalType": "uint256",
          "name": "assetAmount",
          "type": "uint256"
        }
      ],
      "name": "Redeem",
      "type": "event"
    },
    {
      "anonymous": false,
      "inputs": [
        {
          "indexed": false,
          "internalType": "address",
          "name": "sender",
          "type": "address"
        },
        {
          "indexed": false,
          "internalType": "address",
          "name": "grantedSender",
          "type": "address"
        }
      ],
      "name": "Sender",
      "type": "event"
    },
    {
      "anonymous": false,
      "inputs": [
        {
          "indexed": false,
          "internalType": "address",
          "name": "sender",
          "type": "address"
        },
        {
          "indexed": false,
          "internalType": "address",
          "name": "tierContract",
          "type": "address"
        },
        {
          "indexed": false,
          "internalType": "uint256",
          "name": "constructionBlockNumber",
          "type": "uint256"
        }
      ],
      "name": "TierByConstructionInitialize",
      "type": "event"
    },
    {
      "anonymous": false,
      "inputs": [
        {
          "indexed": true,
          "internalType": "address",
          "name": "from",
          "type": "address"
        },
        {
          "indexed": true,
          "internalType": "address",
          "name": "to",
          "type": "address"
        },
        {
          "indexed": false,
          "internalType": "uint256",
          "name": "value",
          "type": "uint256"
        }
      ],
      "name": "Transfer",
      "type": "event"
    },
    {
      "anonymous": false,
      "inputs": [
        {
          "indexed": false,
          "internalType": "address",
          "name": "sender",
          "type": "address"
        },
        {
          "indexed": false,
          "internalType": "address",
          "name": "asset",
          "type": "address"
        }
      ],
      "name": "TreasuryAsset",
      "type": "event"
    },
    {
      "inputs": [
        {
          "internalType": "address",
          "name": "owner",
          "type": "address"
        },
        {
          "internalType": "address",
          "name": "spender",
          "type": "address"
        }
      ],
      "name": "allowance",
      "outputs": [
        {
          "internalType": "uint256",
          "name": "",
          "type": "uint256"
        }
      ],
      "stateMutability": "view",
      "type": "function"
    },
    {
      "inputs": [
        {
          "internalType": "address",
          "name": "spender",
          "type": "address"
        },
        {
          "internalType": "uint256",
          "name": "amount",
          "type": "uint256"
        }
      ],
      "name": "approve",
      "outputs": [
        {
          "internalType": "bool",
          "name": "",
          "type": "bool"
        }
      ],
      "stateMutability": "nonpayable",
      "type": "function"
    },
    {
      "inputs": [
        {
          "internalType": "address",
          "name": "account",
          "type": "address"
        }
      ],
      "name": "balanceOf",
      "outputs": [
        {
          "internalType": "uint256",
          "name": "",
          "type": "uint256"
        }
      ],
      "stateMutability": "view",
      "type": "function"
    },
    {
      "inputs": [
        {
          "internalType": "uint32[8]",
          "name": "phaseBlocks_",
          "type": "uint32[8]"
        },
        {
          "internalType": "uint256",
          "name": "phase_",
          "type": "uint256"
        }
      ],
      "name": "blockNumberForPhase",
      "outputs": [
        {
          "internalType": "uint256",
          "name": "",
          "type": "uint256"
        }
      ],
      "stateMutability": "pure",
      "type": "function"
    },
    {
      "inputs": [
        {
          "internalType": "uint256",
          "name": "amount",
          "type": "uint256"
        }
      ],
      "name": "burn",
      "outputs": [],
      "stateMutability": "nonpayable",
      "type": "function"
    },
    {
      "inputs": [
        {
          "internalType": "address[]",
          "name": "distributors_",
          "type": "address[]"
        }
      ],
      "name": "burnDistributors",
      "outputs": [],
      "stateMutability": "nonpayable",
      "type": "function"
    },
    {
      "inputs": [
        {
          "internalType": "address",
          "name": "account",
          "type": "address"
        },
        {
          "internalType": "uint256",
          "name": "amount",
          "type": "uint256"
        }
      ],
      "name": "burnFrom",
      "outputs": [],
      "stateMutability": "nonpayable",
      "type": "function"
    },
    {
      "inputs": [],
      "name": "currentPhase",
      "outputs": [
        {
          "internalType": "uint256",
          "name": "",
          "type": "uint256"
        }
      ],
      "stateMutability": "view",
      "type": "function"
    },
    {
      "inputs": [],
      "name": "decimals",
      "outputs": [
        {
          "internalType": "uint8",
          "name": "",
          "type": "uint8"
        }
      ],
      "stateMutability": "view",
      "type": "function"
    },
    {
      "inputs": [
        {
          "internalType": "address",
          "name": "spender",
          "type": "address"
        },
        {
          "internalType": "uint256",
          "name": "subtractedValue",
          "type": "uint256"
        }
      ],
      "name": "decreaseAllowance",
      "outputs": [
        {
          "internalType": "bool",
          "name": "",
          "type": "bool"
        }
      ],
      "stateMutability": "nonpayable",
      "type": "function"
    },
    {
      "inputs": [
        {
          "internalType": "address",
          "name": "newReceiver_",
          "type": "address"
        }
      ],
      "name": "grantReceiver",
      "outputs": [],
      "stateMutability": "nonpayable",
      "type": "function"
    },
    {
      "inputs": [
        {
          "internalType": "address",
          "name": "newSender_",
          "type": "address"
        }
      ],
      "name": "grantSender",
      "outputs": [],
      "stateMutability": "nonpayable",
      "type": "function"
    },
    {
      "inputs": [
        {
          "internalType": "address",
          "name": "spender",
          "type": "address"
        },
        {
          "internalType": "uint256",
          "name": "addedValue",
          "type": "uint256"
        }
      ],
      "name": "increaseAllowance",
      "outputs": [
        {
          "internalType": "bool",
          "name": "",
          "type": "bool"
        }
      ],
      "stateMutability": "nonpayable",
      "type": "function"
    },
    {
      "inputs": [
        {
          "components": [
            {
              "internalType": "address",
              "name": "reserve",
              "type": "address"
            },
            {
              "components": [
                {
                  "internalType": "string",
                  "name": "name",
                  "type": "string"
                },
                {
                  "internalType": "string",
                  "name": "symbol",
                  "type": "string"
                },
                {
                  "internalType": "address",
                  "name": "distributor",
                  "type": "address"
                },
                {
                  "internalType": "uint256",
                  "name": "initialSupply",
                  "type": "uint256"
                }
              ],
              "internalType": "struct ERC20Config",
              "name": "erc20Config",
              "type": "tuple"
            },
            {
              "internalType": "contract ITier",
              "name": "tier",
              "type": "address"
            },
            {
              "internalType": "uint256",
              "name": "minimumTier",
              "type": "uint256"
            }
          ],
          "internalType": "struct RedeemableERC20Config",
          "name": "config_",
          "type": "tuple"
        }
      ],
      "name": "initialize",
      "outputs": [],
      "stateMutability": "nonpayable",
      "type": "function"
    },
    {
      "inputs": [
        {
          "internalType": "address",
          "name": "maybeReceiver_",
          "type": "address"
        }
      ],
      "name": "isReceiver",
      "outputs": [
        {
          "internalType": "bool",
          "name": "",
          "type": "bool"
        }
      ],
      "stateMutability": "view",
      "type": "function"
    },
    {
      "inputs": [
        {
          "internalType": "address",
          "name": "maybeSender_",
          "type": "address"
        }
      ],
      "name": "isSender",
      "outputs": [
        {
          "internalType": "bool",
          "name": "",
          "type": "bool"
        }
      ],
      "stateMutability": "view",
      "type": "function"
    },
    {
      "inputs": [
        {
          "internalType": "address",
          "name": "account_",
          "type": "address"
        },
        {
          "internalType": "uint256",
          "name": "minimumTier_",
          "type": "uint256"
        }
      ],
      "name": "isTier",
      "outputs": [
        {
          "internalType": "bool",
          "name": "",
          "type": "bool"
        }
      ],
      "stateMutability": "view",
      "type": "function"
    },
    {
      "inputs": [],
      "name": "minimumTier",
      "outputs": [
        {
          "internalType": "uint256",
          "name": "",
          "type": "uint256"
        }
      ],
      "stateMutability": "view",
      "type": "function"
    },
    {
      "inputs": [],
      "name": "name",
      "outputs": [
        {
          "internalType": "string",
          "name": "",
          "type": "string"
        }
      ],
      "stateMutability": "view",
      "type": "function"
    },
    {
      "inputs": [
        {
          "internalType": "address",
          "name": "newTreasuryAsset_",
          "type": "address"
        }
      ],
      "name": "newTreasuryAsset",
      "outputs": [],
      "stateMutability": "nonpayable",
      "type": "function"
    },
    {
      "inputs": [
        {
          "internalType": "uint32[8]",
          "name": "phaseBlocks_",
          "type": "uint32[8]"
        },
        {
          "internalType": "uint256",
          "name": "blockNumber_",
          "type": "uint256"
        }
      ],
      "name": "phaseAtBlockNumber",
      "outputs": [
        {
          "internalType": "uint256",
          "name": "",
          "type": "uint256"
        }
      ],
      "stateMutability": "pure",
      "type": "function"
    },
    {
      "inputs": [
        {
          "internalType": "uint256",
          "name": "",
          "type": "uint256"
        }
      ],
      "name": "phaseBlocks",
      "outputs": [
        {
          "internalType": "uint32",
          "name": "",
          "type": "uint32"
        }
      ],
      "stateMutability": "view",
      "type": "function"
    },
    {
      "inputs": [
        {
          "internalType": "uint256",
          "name": "amount_",
          "type": "uint256"
        }
      ],
      "name": "pullERC20",
      "outputs": [],
      "stateMutability": "nonpayable",
      "type": "function"
    },
    {
      "inputs": [
        {
          "internalType": "contract IERC20[]",
          "name": "treasuryAssets_",
          "type": "address[]"
        },
        {
          "internalType": "uint256",
          "name": "redeemAmount_",
          "type": "uint256"
        }
      ],
      "name": "redeem",
      "outputs": [],
      "stateMutability": "nonpayable",
      "type": "function"
    },
    {
      "inputs": [],
      "name": "symbol",
      "outputs": [
        {
          "internalType": "string",
          "name": "",
          "type": "string"
        }
      ],
      "stateMutability": "view",
      "type": "function"
    },
    {
      "inputs": [],
      "name": "totalSupply",
      "outputs": [
        {
          "internalType": "uint256",
          "name": "",
          "type": "uint256"
        }
      ],
      "stateMutability": "view",
      "type": "function"
    },
    {
      "inputs": [
        {
          "internalType": "address",
          "name": "recipient",
          "type": "address"
        },
        {
          "internalType": "uint256",
          "name": "amount",
          "type": "uint256"
        }
      ],
      "name": "transfer",
      "outputs": [
        {
          "internalType": "bool",
          "name": "",
          "type": "bool"
        }
      ],
      "stateMutability": "nonpayable",
      "type": "function"
    },
    {
      "inputs": [
        {
          "internalType": "address",
          "name": "sender",
          "type": "address"
        },
        {
          "internalType": "address",
          "name": "recipient",
          "type": "address"
        },
        {
          "internalType": "uint256",
          "name": "amount",
          "type": "uint256"
        }
      ],
      "name": "transferFrom",
      "outputs": [
        {
          "internalType": "bool",
          "name": "",
          "type": "bool"
        }
      ],
      "stateMutability": "nonpayable",
      "type": "function"
    }
  ],
  "bytecode": "0x608060405234801561001057600080fd5b506135e6806100206000396000f3fe608060405234801561001057600080fd5b50600436106101c45760003560e01c806379cc6790116100f9578063b8ffd02c11610097578063e7ae91fe11610071578063e7ae91fe14610449578063ece760e91461045c578063f1ebd5dd1461046f578063f677de961461047857600080fd5b8063b8ffd02c146103b7578063dd62ed3e146103ca578063e38434631461041057600080fd5b8063a2f5b6d0116100d3578063a2f5b6d01461036b578063a457c2d71461037e578063a9059cbb14610391578063b7a3c828146103a457600080fd5b806379cc67901461032857806395d89b411461033b5780639923c94b1461034357600080fd5b80633833be621161016657806342966c681161014057806342966c68146102b9578063548b00c2146102cc578063634991af146102df57806370a08231146102f257600080fd5b80633833be621461025b578063392243e11461026e57806339509351146102a657600080fd5b8063095ea7b3116101a2578063095ea7b31461020e57806318160ddd1461023157806323b872dd14610239578063313ce5671461024c57600080fd5b8063038ef03e146101c9578063055ad42e146101de57806306fdde03146101f9575b600080fd5b6101dc6101d7366004612dfc565b61048b565b005b6101e66104dd565b6040519081526020015b60405180910390f35b610201610548565b6040516101f09190612e45565b61022161021c366004612e96565b6105da565b60405190151581526020016101f0565b6038546101e6565b610221610247366004612ec2565b6105f1565b604051601281526020016101f0565b6101dc610269366004612dfc565b6106de565b61022161027c366004612dfc565b73ffffffffffffffffffffffffffffffffffffffff166000908152609d6020526040902054151590565b6102216102b4366004612e96565b6107c3565b6101dc6102c7366004612f03565b61080c565b6101dc6102da366004613061565b610819565b6101e66102ed366004613171565b610beb565b6101e6610300366004612dfc565b73ffffffffffffffffffffffffffffffffffffffff1660009081526036602052604090205490565b6101dc610336366004612e96565b610c3f565b610201610cf8565b610356610351366004612f03565b610d07565b60405163ffffffff90911681526020016101f0565b6101dc61037936600461322b565b610d37565b61022161038c366004612e96565b610edf565b61022161039f366004612e96565b610fb7565b6101dc6103b2366004612f03565b610fc4565b6101e66103c5366004613171565b610fef565b6101e66103d83660046132bf565b73ffffffffffffffffffffffffffffffffffffffff918216600090815260376020908152604080832093909416825291909152205490565b61022161041e366004612dfc565b73ffffffffffffffffffffffffffffffffffffffff166000908152609d602052604090205460011090565b6101dc610457366004612dfc565b61102e565b61022161046a366004612e96565b611110565b6101e6609e5481565b6101dc6104863660046132f8565b6111bc565b6040805133815273ffffffffffffffffffffffffffffffffffffffff831660208201527f2ab01e95cf254bfe2f3e7e2a70a40262c15f0c753a586568529e3b109c567d5691015b60405180910390a150565b6040805161010081019182905260009161054391906001906008908286855b82829054906101000a900463ffffffff1663ffffffff16815260200190600401906020826003010492830192600103820291508084116104fc579050505050505043610beb565b905090565b60606039805461055790613398565b80601f016020809104026020016040519081016040528092919081815260200182805461058390613398565b80156105d05780601f106105a5576101008083540402835291602001916105d0565b820191906000526020600020905b8154815290600101906020018083116105b357829003601f168201915b5050505050905090565b60006105e7338484611238565b5060015b92915050565b60006105fe8484846113eb565b73ffffffffffffffffffffffffffffffffffffffff84166000908152603760209081526040808320338452909152902054828110156106c4576040517f08c379a000000000000000000000000000000000000000000000000000000000815260206004820152602860248201527f45524332303a207472616e7366657220616d6f756e742065786365656473206160448201527f6c6c6f77616e636500000000000000000000000000000000000000000000000060648201526084015b60405180910390fd5b6106d18533858403611238565b60019150505b9392505050565b609c5473ffffffffffffffffffffffffffffffffffffffff16331461075f576040517f08c379a000000000000000000000000000000000000000000000000000000000815260206004820152600a60248201527f4f4e4c595f41444d494e0000000000000000000000000000000000000000000060448201526064016106bb565b73ffffffffffffffffffffffffffffffffffffffff81166000818152609d6020908152604091829020805460011790558151338152908101929092527f4d987a7fff11f6c57bdc4d0bd5a7c4cc2dfe97c90212583bca465b19df29b64791016104d2565b33600081815260376020908152604080832073ffffffffffffffffffffffffffffffffffffffff8716845290915281205490916105e791859061080790869061341b565b611238565b61081633826116ab565b50565b600054610100900460ff166108345760005460ff1615610838565b303b155b6108c4576040517f08c379a000000000000000000000000000000000000000000000000000000000815260206004820152602e60248201527f496e697469616c697a61626c653a20636f6e747261637420697320616c72656160448201527f647920696e697469616c697a656400000000000000000000000000000000000060648201526084016106bb565b600054610100900460ff1615801561090357600080547fffffffffffffffffffffffffffffffffffffffffffffffffffffffffffff0000166101011790555b61090b6118a4565b610918826040015161194e565b602080830151805191015161092d9190611a76565b610982604051806040016040528084602001516040015173ffffffffffffffffffffffffffffffffffffffff168152602001846000015173ffffffffffffffffffffffffffffffffffffffff16815250611b1f565b670de0b6b3a764000082602001516060015110156109fc576040517f08c379a000000000000000000000000000000000000000000000000000000000815260206004820152601660248201527f4d494e494d554d5f494e495449414c5f535550504c590000000000000000000060448201526064016106bb565b606082810151609e556000808052609d602090815260037fc5dc36ae4e7617e4c4d23ddfcde33c79e9ed64c300aed766a9288a6b9b31f63d558401805160409081015173ffffffffffffffffffffffffffffffffffffffff90811684529281902060019055905190810151609c80547fffffffffffffffffffffffff0000000000000000000000000000000000000000169382169390931790925590910151610aa59190611d02565b8151610ab09061048b565b602080830151604090810151606080860151835133815273ffffffffffffffffffffffffffffffffffffffff90931694830194909452918101929092527fdb660173da0d0145219dbc22b6c7f5d0b641019e264bd7537ecf21215be200bd910160405180910390a160408083015190517fe053ea3100000000000000000000000000000000000000000000000000000000815233600482015273ffffffffffffffffffffffffffffffffffffffff9091169063e053ea3190602401602060405180830381865afa158015610b88573d6000803e3d6000fd5b505050506040513d601f19601f82011682018060405250810190610bac9190613433565b50610bb8600143611e2e565b8015610be757600080547fffffffffffffffffffffffffffffffffffffffffffffffffffffffffffff00ff1690555b5050565b6000805b6008811015610c3557838160088110610c0a57610c0a61344c565b602002015163ffffffff16831015610c235790506105eb565b80610c2d8161347b565b915050610bef565b5060089392505050565b6000610c4b83336103d8565b905081811015610cdc576040517f08c379a0000000000000000000000000000000000000000000000000000000008152602060048201526024808201527f45524332303a206275726e20616d6f756e74206578636565647320616c6c6f7760448201527f616e63650000000000000000000000000000000000000000000000000000000060648201526084016106bb565b610ce98333848403611238565b610cf383836116ab565b505050565b6060603a805461055790613398565b60018160088110610d1757600080fd5b60089182820401919006600402915054906101000a900463ffffffff1681565b600180610d426104dd565b14610da9576040517f08c379a000000000000000000000000000000000000000000000000000000000815260206004820152600960248201527f4241445f5048415345000000000000000000000000000000000000000000000060448201526064016106bb565b609c5473ffffffffffffffffffffffffffffffffffffffff163314610e2a576040517f08c379a000000000000000000000000000000000000000000000000000000000815260206004820152600a60248201527f4f4e4c595f41444d494e0000000000000000000000000000000000000000000060448201526064016106bb565b610e35600243611e2e565b60005b8251811015610cf3576000838281518110610e5557610e5561344c565b602002602001015190506000610e8d8273ffffffffffffffffffffffffffffffffffffffff1660009081526036602052604090205490565b90508015610eca57610eca82610ec58473ffffffffffffffffffffffffffffffffffffffff1660009081526036602052604090205490565b6116ab565b50508080610ed79061347b565b915050610e38565b33600090815260376020908152604080832073ffffffffffffffffffffffffffffffffffffffff8616845290915281205482811015610fa0576040517f08c379a000000000000000000000000000000000000000000000000000000000815260206004820152602560248201527f45524332303a2064656372656173656420616c6c6f77616e63652062656c6f7760448201527f207a65726f00000000000000000000000000000000000000000000000000000060648201526084016106bb565b610fad3385858403611238565b5060019392505050565b60006105e73384846113eb565b609a54609b546108169173ffffffffffffffffffffffffffffffffffffffff918216911630846120d7565b6000808211610fff576000611021565b8261100b6001846134b4565b6008811061101b5761101b61344c565b60200201515b63ffffffff169392505050565b609c5473ffffffffffffffffffffffffffffffffffffffff1633146110af576040517f08c379a000000000000000000000000000000000000000000000000000000000815260206004820152600a60248201527f4f4e4c595f41444d494e0000000000000000000000000000000000000000000060448201526064016106bb565b73ffffffffffffffffffffffffffffffffffffffff81166000818152609d6020908152604091829020600390558151338152908101929092527f2960695afa2609b7591ca0b79d5586f853e610ce0515852f7a5ced78fd32ade991016104d2565b6002546040517fe053ea3100000000000000000000000000000000000000000000000000000000815273ffffffffffffffffffffffffffffffffffffffff84811660048301526000926111b09291169063e053ea3190602401602060405180830381865afa158015611186573d6000803e3d6000fd5b505050506040513d601f19601f820116820180604052508101906111aa9190613433565b836121b3565b60035410159392505050565b6002806111c76104dd565b1461122e576040517f08c379a000000000000000000000000000000000000000000000000000000000815260206004820152600960248201527f4241445f5048415345000000000000000000000000000000000000000000000060448201526064016106bb565b610cf38383612268565b73ffffffffffffffffffffffffffffffffffffffff83166112da576040517f08c379a0000000000000000000000000000000000000000000000000000000008152602060048201526024808201527f45524332303a20617070726f76652066726f6d20746865207a65726f2061646460448201527f726573730000000000000000000000000000000000000000000000000000000060648201526084016106bb565b73ffffffffffffffffffffffffffffffffffffffff821661137d576040517f08c379a000000000000000000000000000000000000000000000000000000000815260206004820152602260248201527f45524332303a20617070726f766520746f20746865207a65726f20616464726560448201527f737300000000000000000000000000000000000000000000000000000000000060648201526084016106bb565b73ffffffffffffffffffffffffffffffffffffffff83811660008181526037602090815260408083209487168084529482529182902085905590518481527f8c5be1e5ebec7d5bd14f71427d1e84f3dd0314c0f7b2291e5b200ac8c7c3b925910160405180910390a3505050565b73ffffffffffffffffffffffffffffffffffffffff831661148e576040517f08c379a000000000000000000000000000000000000000000000000000000000815260206004820152602560248201527f45524332303a207472616e736665722066726f6d20746865207a65726f20616460448201527f647265737300000000000000000000000000000000000000000000000000000060648201526084016106bb565b73ffffffffffffffffffffffffffffffffffffffff8216611531576040517f08c379a000000000000000000000000000000000000000000000000000000000815260206004820152602360248201527f45524332303a207472616e7366657220746f20746865207a65726f206164647260448201527f657373000000000000000000000000000000000000000000000000000000000060648201526084016106bb565b61153c83838361260d565b73ffffffffffffffffffffffffffffffffffffffff8316600090815260366020526040902054818110156115f2576040517f08c379a000000000000000000000000000000000000000000000000000000000815260206004820152602660248201527f45524332303a207472616e7366657220616d6f756e742065786365656473206260448201527f616c616e6365000000000000000000000000000000000000000000000000000060648201526084016106bb565b73ffffffffffffffffffffffffffffffffffffffff80851660009081526036602052604080822085850390559185168152908120805484929061163690849061341b565b925050819055508273ffffffffffffffffffffffffffffffffffffffff168473ffffffffffffffffffffffffffffffffffffffff167fddf252ad1be2c89b69c2b068fc378daa952ba7f163c4a11628f55a4df523b3ef8460405161169c91815260200190565b60405180910390a35b50505050565b73ffffffffffffffffffffffffffffffffffffffff821661174e576040517f08c379a000000000000000000000000000000000000000000000000000000000815260206004820152602160248201527f45524332303a206275726e2066726f6d20746865207a65726f2061646472657360448201527f730000000000000000000000000000000000000000000000000000000000000060648201526084016106bb565b61175a8260008361260d565b73ffffffffffffffffffffffffffffffffffffffff821660009081526036602052604090205481811015611810576040517f08c379a000000000000000000000000000000000000000000000000000000000815260206004820152602260248201527f45524332303a206275726e20616d6f756e7420657863656564732062616c616e60448201527f636500000000000000000000000000000000000000000000000000000000000060648201526084016106bb565b73ffffffffffffffffffffffffffffffffffffffff8316600090815260366020526040812083830390556038805484929061184c9084906134b4565b909155505060405182815260009073ffffffffffffffffffffffffffffffffffffffff8516907fddf252ad1be2c89b69c2b068fc378daa952ba7f163c4a11628f55a4df523b3ef9060200160405180910390a3505050565b6001805463ffffffff16106118bb576118bb6134cb565b604080516101008101825263ffffffff80825260208201819052918101829052606081018290526080810182905260a0810182905260c0810182905260e081019190915261190c6001826008612cb5565b5060408051338152600060208201819052918101919091527fba85f6676f17ca992195e3cb204ae48c68666b109edc14a794e5d894387d25d3906060016104d2565b73ffffffffffffffffffffffffffffffffffffffff81166119cb576040517f08c379a000000000000000000000000000000000000000000000000000000000815260206004820152601160248201527f5a45524f5f544945525f4144445245535300000000000000000000000000000060448201526064016106bb565b60025473ffffffffffffffffffffffffffffffffffffffff16156119f1576119f16134cb565b600280547fffffffffffffffffffffffff00000000000000000000000000000000000000001673ffffffffffffffffffffffffffffffffffffffff83169081179091554360038190556040805133815260208101939093528201527fc9a9852079c3604c610068c3a50e09dc64e772e55e636968f6f8d5ae366856d2906060016104d2565b600054610100900460ff16611b0d576040517f08c379a000000000000000000000000000000000000000000000000000000000815260206004820152602b60248201527f496e697469616c697a61626c653a20636f6e7472616374206973206e6f74206960448201527f6e697469616c697a696e6700000000000000000000000000000000000000000060648201526084016106bb565b611b15612812565b610be782826128ab565b805173ffffffffffffffffffffffffffffffffffffffff16611b9d576040517f08c379a000000000000000000000000000000000000000000000000000000000815260206004820152600b60248201527f5a45524f5f53454e44455200000000000000000000000000000000000000000060448201526064016106bb565b602081015173ffffffffffffffffffffffffffffffffffffffff16611c1e576040517f08c379a000000000000000000000000000000000000000000000000000000000815260206004820152600a60248201527f5a45524f5f544f4b454e0000000000000000000000000000000000000000000060448201526064016106bb565b609a5473ffffffffffffffffffffffffffffffffffffffff1615611c4457611c446134cb565b609b5473ffffffffffffffffffffffffffffffffffffffff1615611c6a57611c6a6134cb565b8051609a805473ffffffffffffffffffffffffffffffffffffffff9283167fffffffffffffffffffffffff00000000000000000000000000000000000000009182168117909255602080850151609b805491909516921682179093556040805133815293840192909252908201527fe67a5c2dcf68e8fac05314f53ecd2ff0b403ed683c4bfdad15eaec7a8a63f555906060016104d2565b73ffffffffffffffffffffffffffffffffffffffff8216611d7f576040517f08c379a000000000000000000000000000000000000000000000000000000000815260206004820152601f60248201527f45524332303a206d696e7420746f20746865207a65726f20616464726573730060448201526064016106bb565b611d8b6000838361260d565b8060386000828254611d9d919061341b565b909155505073ffffffffffffffffffffffffffffffffffffffff821660009081526036602052604081208054839290611dd790849061341b565b909155505060405181815273ffffffffffffffffffffffffffffffffffffffff8316906000907fddf252ad1be2c89b69c2b068fc378daa952ba7f163c4a11628f55a4df523b3ef9060200160405180910390a35050565b80431115611e98576040517f08c379a000000000000000000000000000000000000000000000000000000000815260206004820152600f60248201527f4e4558545f424c4f434b5f50415354000000000000000000000000000000000060448201526064016106bb565b63ffffffff8110611f05576040517f08c379a000000000000000000000000000000000000000000000000000000000815260206004820152601860248201527f4e4558545f424c4f434b5f554e494e495449414c495a4544000000000000000060448201526064016106bb565b7fffffffffffffffffffffffffffffffffffffffffffffffffffffffffffffffff820180611f316104dd565b14611f98576040517f08c379a000000000000000000000000000000000000000000000000000000000815260206004820152600a60248201527f4e4558545f50484153450000000000000000000000000000000000000000000060448201526064016106bb565b60018160088110611fab57611fab61344c565b60088104919091015460079091166004026101000a900463ffffffff90811614612031576040517f08c379a000000000000000000000000000000000000000000000000000000000815260206004820152600e60248201527f4e4558545f424c4f434b5f53455400000000000000000000000000000000000060448201526064016106bb565b81600182600881106120455761204561344c565b600891828204019190066004026101000a81548163ffffffff021916908363ffffffff1602179055507fba85f6676f17ca992195e3cb204ae48c68666b109edc14a794e5d894387d25d33384846040516120ca9392919073ffffffffffffffffffffffffffffffffffffffff9390931683526020830191909152604082015260600190565b60405180910390a1505050565b60405173ffffffffffffffffffffffffffffffffffffffff808516602483015283166044820152606481018290526116a59085907f23b872dd00000000000000000000000000000000000000000000000000000000906084015b604080517fffffffffffffffffffffffffffffffffffffffffffffffffffffffffffffffe08184030181529190526020810180517bffffffffffffffffffffffffffffffffffffffffffffffffffffffff167fffffffff0000000000000000000000000000000000000000000000000000000090931692909217909152612969565b6000816008811115612221576040517f08c379a000000000000000000000000000000000000000000000000000000000815260206004820152600860248201527f4d41585f5449455200000000000000000000000000000000000000000000000060448201526064016106bb565b8261222f5760009150612261565b63ffffffff60207fffffffffffffffffffffffffffffffffffffffffffffffffffffffffffffffff85010285901c1691505b5092915050565b815160008167ffffffffffffffff81111561228557612285612f1c565b6040519080825280602002602001820160405280156122ae578160200160208202803683370190505b5090506000821161231b576040517f08c379a000000000000000000000000000000000000000000000000000000000815260206004820152600c60248201527f454d5054595f415353455453000000000000000000000000000000000000000060448201526064016106bb565b60003073ffffffffffffffffffffffffffffffffffffffff166318160ddd6040518163ffffffff1660e01b8152600401602060405180830381865afa158015612368573d6000803e3d6000fd5b505050506040513d601f19601f8201168201806040525081019061238c9190613433565b90506000805b8481101561257f5782868883815181106123ae576123ae61344c565b60209081029190910101516040517f70a0823100000000000000000000000000000000000000000000000000000000815230600482015273ffffffffffffffffffffffffffffffffffffffff909116906370a0823190602401602060405180830381865afa158015612424573d6000803e3d6000fd5b505050506040513d601f19601f820116820180604052508101906124489190613433565b61245291906134fa565b61245c9190613537565b9150600082116124c8576040517f08c379a000000000000000000000000000000000000000000000000000000000815260206004820152600b60248201527f5a45524f5f414d4f554e5400000000000000000000000000000000000000000060448201526064016106bb565b7f3f693fff038bb8a046aa76d9516190ac7444f7d69cf952c4cbdc086fdef2d6fc338883815181106124fc576124fc61344c565b60200260200101518885604051612547949392919073ffffffffffffffffffffffffffffffffffffffff94851681529290931660208301526040820152606081019190915260800190565b60405180910390a1818482815181106125625761256261344c565b6020908102919091010152806125778161347b565b915050612392565b5061258a33866116ab565b60005b84811015612604576125f2338583815181106125ab576125ab61344c565b60200260200101518984815181106125c5576125c561344c565b602002602001015173ffffffffffffffffffffffffffffffffffffffff16612a759092919063ffffffff16565b806125fc8161347b565b91505061258d565b50505050505050565b73ffffffffffffffffffffffffffffffffffffffff821630141561268d576040517f08c379a000000000000000000000000000000000000000000000000000000000815260206004820152600f60248201527f544f4b454e5f53454e445f53454c46000000000000000000000000000000000060448201526064016106bb565b6000811180156126f2575073ffffffffffffffffffffffffffffffffffffffff83166000908152609d6020526040902054600110806126f0575073ffffffffffffffffffffffffffffffffffffffff82166000908152609d602052604090205415155b155b15610cf35760006127016104dd565b905060018114156127835761271883609e54611110565b61277e576040517f08c379a000000000000000000000000000000000000000000000000000000000815260206004820152600860248201527f4d494e5f5449455200000000000000000000000000000000000000000000000060448201526064016106bb565b6116a5565b600281141561280a5773ffffffffffffffffffffffffffffffffffffffff83161561277e576040517f08c379a000000000000000000000000000000000000000000000000000000000815260206004820152600660248201527f46524f5a454e000000000000000000000000000000000000000000000000000060448201526064016106bb565b6116a56134cb565b600054610100900460ff166128a9576040517f08c379a000000000000000000000000000000000000000000000000000000000815260206004820152602b60248201527f496e697469616c697a61626c653a20636f6e7472616374206973206e6f74206960448201527f6e697469616c697a696e6700000000000000000000000000000000000000000060648201526084016106bb565b565b600054610100900460ff16612942576040517f08c379a000000000000000000000000000000000000000000000000000000000815260206004820152602b60248201527f496e697469616c697a61626c653a20636f6e7472616374206973206e6f74206960448201527f6e697469616c697a696e6700000000000000000000000000000000000000000060648201526084016106bb565b8151612955906039906020850190612d51565b508051610cf390603a906020840190612d51565b60006129cb826040518060400160405280602081526020017f5361666545524332303a206c6f772d6c6576656c2063616c6c206661696c65648152508573ffffffffffffffffffffffffffffffffffffffff16612acb9092919063ffffffff16565b805190915015610cf357808060200190518101906129e99190613572565b610cf3576040517f08c379a000000000000000000000000000000000000000000000000000000000815260206004820152602a60248201527f5361666545524332303a204552433230206f7065726174696f6e20646964206e60448201527f6f7420737563636565640000000000000000000000000000000000000000000060648201526084016106bb565b60405173ffffffffffffffffffffffffffffffffffffffff8316602482015260448101829052610cf39084907fa9059cbb0000000000000000000000000000000000000000000000000000000090606401612131565b6060612ada8484600085612ae2565b949350505050565b606082471015612b74576040517f08c379a000000000000000000000000000000000000000000000000000000000815260206004820152602660248201527f416464726573733a20696e73756666696369656e742062616c616e636520666f60448201527f722063616c6c000000000000000000000000000000000000000000000000000060648201526084016106bb565b843b612bdc576040517f08c379a000000000000000000000000000000000000000000000000000000000815260206004820152601d60248201527f416464726573733a2063616c6c20746f206e6f6e2d636f6e747261637400000060448201526064016106bb565b6000808673ffffffffffffffffffffffffffffffffffffffff168587604051612c059190613594565b60006040518083038185875af1925050503d8060008114612c42576040519150601f19603f3d011682016040523d82523d6000602084013e612c47565b606091505b5091509150612c57828286612c62565b979650505050505050565b60608315612c715750816106d7565b825115612c815782518084602001fd5b816040517f08c379a00000000000000000000000000000000000000000000000000000000081526004016106bb9190612e45565b600183019183908215612d415791602002820160005b83821115612d0f57835183826101000a81548163ffffffff021916908363ffffffff1602179055509260200192600401602081600301049283019260010302612ccb565b8015612d3f5782816101000a81549063ffffffff0219169055600401602081600301049283019260010302612d0f565b505b50612d4d929150612dc5565b5090565b828054612d5d90613398565b90600052602060002090601f016020900481019282612d7f5760008555612d41565b82601f10612d9857805160ff1916838001178555612d41565b82800160010185558215612d41579182015b82811115612d41578251825591602001919060010190612daa565b5b80821115612d4d5760008155600101612dc6565b73ffffffffffffffffffffffffffffffffffffffff8116811461081657600080fd5b600060208284031215612e0e57600080fd5b81356106d781612dda565b60005b83811015612e34578181015183820152602001612e1c565b838111156116a55750506000910152565b6020815260008251806020840152612e64816040850160208701612e19565b601f017fffffffffffffffffffffffffffffffffffffffffffffffffffffffffffffffe0169190910160400192915050565b60008060408385031215612ea957600080fd5b8235612eb481612dda565b946020939093013593505050565b600080600060608486031215612ed757600080fd5b8335612ee281612dda565b92506020840135612ef281612dda565b929592945050506040919091013590565b600060208284031215612f1557600080fd5b5035919050565b7f4e487b7100000000000000000000000000000000000000000000000000000000600052604160045260246000fd5b6040516080810167ffffffffffffffff81118282101715612f6e57612f6e612f1c565b60405290565b604051601f82017fffffffffffffffffffffffffffffffffffffffffffffffffffffffffffffffe016810167ffffffffffffffff81118282101715612fbb57612fbb612f1c565b604052919050565b600082601f830112612fd457600080fd5b813567ffffffffffffffff811115612fee57612fee612f1c565b61301f60207fffffffffffffffffffffffffffffffffffffffffffffffffffffffffffffffe0601f84011601612f74565b81815284602083860101111561303457600080fd5b816020850160208301376000918101602001919091529392505050565b803561305c81612dda565b919050565b60006020828403121561307357600080fd5b813567ffffffffffffffff8082111561308b57600080fd5b908301906080828603121561309f57600080fd5b6130a7612f4b565b82356130b281612dda565b81526020830135828111156130c657600080fd5b8301608081880312156130d857600080fd5b6130e0612f4b565b8135848111156130ef57600080fd5b6130fb89828501612fc3565b82525060208201358481111561311057600080fd5b61311c89828501612fc3565b6020830152506040820135935061313284612dda565b83604082015260608201356060820152806020840152505061315660408401613051565b60408201526060830135606082015280935050505092915050565b600080610120838503121561318557600080fd5b83601f84011261319457600080fd5b60405161010080820182811067ffffffffffffffff821117156131b9576131b9612f1c565b604052840181868211156131cc57600080fd5b855b828110156131f957803563ffffffff811681146131eb5760008081fd5b8252602091820191016131ce565b509196903595509350505050565b600067ffffffffffffffff82111561322157613221612f1c565b5060051b60200190565b6000602080838503121561323e57600080fd5b823567ffffffffffffffff81111561325557600080fd5b8301601f8101851361326657600080fd5b803561327961327482613207565b612f74565b81815260059190911b8201830190838101908783111561329857600080fd5b928401925b82841015612c575783356132b081612dda565b8252928401929084019061329d565b600080604083850312156132d257600080fd5b82356132dd81612dda565b915060208301356132ed81612dda565b809150509250929050565b6000806040838503121561330b57600080fd5b823567ffffffffffffffff81111561332257600080fd5b8301601f8101851361333357600080fd5b8035602061334361327483613207565b82815260059290921b8301810191818101908884111561336257600080fd5b938201935b8385101561338957843561337a81612dda565b82529382019390820190613367565b98969091013596505050505050565b600181811c908216806133ac57607f821691505b602082108114156133e6577f4e487b7100000000000000000000000000000000000000000000000000000000600052602260045260246000fd5b50919050565b7f4e487b7100000000000000000000000000000000000000000000000000000000600052601160045260246000fd5b6000821982111561342e5761342e6133ec565b500190565b60006020828403121561344557600080fd5b5051919050565b7f4e487b7100000000000000000000000000000000000000000000000000000000600052603260045260246000fd5b60007fffffffffffffffffffffffffffffffffffffffffffffffffffffffffffffffff8214156134ad576134ad6133ec565b5060010190565b6000828210156134c6576134c66133ec565b500390565b7f4e487b7100000000000000000000000000000000000000000000000000000000600052600160045260246000fd5b6000817fffffffffffffffffffffffffffffffffffffffffffffffffffffffffffffffff0483118215151615613532576135326133ec565b500290565b60008261356d577f4e487b7100000000000000000000000000000000000000000000000000000000600052601260045260246000fd5b500490565b60006020828403121561358457600080fd5b815180151581146106d757600080fd5b600082516135a6818460208701612e19565b919091019291505056fea26469706673582212207bb2c4293a1ad85e583df2ce0f39fc12aab1e3c0ce5957526edf58dfa9ca587c64736f6c634300080a0033",
  "linkReferences": {},
  "deployedLinkReferences": {}
}