{
  "_format": "hh-sol-artifact-1",
  "contractName": "SaleFactory",
  "sourceName": "contracts/sale/SaleFactory.sol",
  "abi": [
    {
      "inputs": [
        {
          "components": [
            {
              "internalType": "contract RedeemableERC20Factory",
              "name": "redeemableERC20Factory",
              "type": "address"
            }
          ],
          "internalType": "struct SaleConstructorConfig",
          "name": "config_",
          "type": "tuple"
        }
      ],
      "stateMutability": "nonpayable",
      "type": "constructor"
    },
    {
      "anonymous": false,
      "inputs": [
        {
          "indexed": false,
          "internalType": "address",
          "name": "sender",
          "type": "address"
        },
        {
          "indexed": false,
          "internalType": "address",
          "name": "implementation",
          "type": "address"
        }
      ],
      "name": "Implementation",
      "type": "event"
    },
    {
      "anonymous": false,
      "inputs": [
        {
          "indexed": false,
          "internalType": "address",
          "name": "sender",
          "type": "address"
        },
        {
          "indexed": false,
          "internalType": "address",
          "name": "child",
          "type": "address"
        }
      ],
      "name": "NewChild",
      "type": "event"
    },
    {
      "inputs": [
        {
          "internalType": "bytes",
          "name": "data_",
          "type": "bytes"
        }
      ],
      "name": "createChild",
      "outputs": [
        {
          "internalType": "address",
          "name": "",
          "type": "address"
        }
      ],
      "stateMutability": "nonpayable",
      "type": "function"
    },
    {
      "inputs": [
        {
          "components": [
            {
              "components": [
                {
                  "internalType": "bytes[]",
                  "name": "sources",
                  "type": "bytes[]"
                },
                {
                  "internalType": "uint256[]",
                  "name": "constants",
                  "type": "uint256[]"
                },
                {
                  "internalType": "uint256",
                  "name": "stackLength",
                  "type": "uint256"
                },
                {
                  "internalType": "uint256",
                  "name": "argumentsLength",
                  "type": "uint256"
                }
              ],
              "internalType": "struct StateConfig",
              "name": "canStartStateConfig",
              "type": "tuple"
            },
            {
              "components": [
                {
                  "internalType": "bytes[]",
                  "name": "sources",
                  "type": "bytes[]"
                },
                {
                  "internalType": "uint256[]",
                  "name": "constants",
                  "type": "uint256[]"
                },
                {
                  "internalType": "uint256",
                  "name": "stackLength",
                  "type": "uint256"
                },
                {
                  "internalType": "uint256",
                  "name": "argumentsLength",
                  "type": "uint256"
                }
              ],
              "internalType": "struct StateConfig",
              "name": "canEndStateConfig",
              "type": "tuple"
            },
            {
              "components": [
                {
                  "internalType": "bytes[]",
                  "name": "sources",
                  "type": "bytes[]"
                },
                {
                  "internalType": "uint256[]",
                  "name": "constants",
                  "type": "uint256[]"
                },
                {
                  "internalType": "uint256",
                  "name": "stackLength",
                  "type": "uint256"
                },
                {
                  "internalType": "uint256",
                  "name": "argumentsLength",
                  "type": "uint256"
                }
              ],
              "internalType": "struct StateConfig",
              "name": "calculatePriceStateConfig",
              "type": "tuple"
            },
            {
              "internalType": "address",
              "name": "recipient",
              "type": "address"
            },
            {
              "internalType": "contract IERC20",
              "name": "reserve",
              "type": "address"
            },
            {
              "internalType": "uint256",
              "name": "cooldownDuration",
              "type": "uint256"
            },
            {
              "internalType": "uint256",
              "name": "minimumRaise",
              "type": "uint256"
            },
            {
              "internalType": "uint256",
              "name": "dustSize",
              "type": "uint256"
            }
          ],
          "internalType": "struct SaleConfig",
          "name": "config_",
          "type": "tuple"
        },
        {
          "components": [
            {
              "components": [
                {
                  "internalType": "string",
                  "name": "name",
                  "type": "string"
                },
                {
                  "internalType": "string",
                  "name": "symbol",
                  "type": "string"
                },
                {
                  "internalType": "address",
                  "name": "distributor",
                  "type": "address"
                },
                {
                  "internalType": "uint256",
                  "name": "initialSupply",
                  "type": "uint256"
                }
              ],
              "internalType": "struct ERC20Config",
              "name": "erc20Config",
              "type": "tuple"
            },
            {
              "internalType": "contract ITier",
              "name": "tier",
              "type": "address"
            },
            {
              "internalType": "uint256",
              "name": "minimumTier",
              "type": "uint256"
            }
          ],
          "internalType": "struct SaleRedeemableERC20Config",
          "name": "saleRedeemableERC20Config_",
          "type": "tuple"
        }
      ],
      "name": "createChildTyped",
      "outputs": [
        {
          "internalType": "contract Sale",
          "name": "",
          "type": "address"
        }
      ],
      "stateMutability": "nonpayable",
      "type": "function"
    },
    {
      "inputs": [
        {
          "internalType": "address",
          "name": "maybeChild_",
          "type": "address"
        }
      ],
      "name": "isChild",
      "outputs": [
        {
          "internalType": "bool",
          "name": "",
          "type": "bool"
        }
      ],
      "stateMutability": "view",
      "type": "function"
    }
  ],
  "bytecode": "0x60a060405234801561001057600080fd5b5060405162005df638038062005df683398101604081905261003191610123565b60016000908155604051829061004690610115565b90516001600160a01b03168152602001604051809103906000f080158015610072573d6000803e3d6000fd5b5090506001600160a01b0381166100c25760405162461bcd60e51b815260206004820152601060248201526f182fa4a6a82622a6a2a72a20aa24a7a760811b604482015260640160405180910390fd5b604080513381526001600160a01b03831660208201527f7fac34ecf0b1b374cd9659e3d17db602659d53f1162b1f20142e6c02694aed70910160405180910390a16001600160a01b031660805250610188565b6149e3806200141383390190565b60006020828403121561013557600080fd5b604051602081016001600160401b038111828210171561016557634e487b7160e01b600052604160045260246000fd5b60405282516001600160a01b038116811461017f57600080fd5b81529392505050565b60805161126f620001a460003960006102be015261126f6000f3fe608060405234801561001057600080fd5b50600436106100415760003560e01c80632ea72a491461004657806381b377d814610083578063fc91a89714610096575b600080fd5b610059610054366004610457565b6100df565b60405173ffffffffffffffffffffffffffffffffffffffff90911681526020015b60405180910390f35b6100596100913660046104c9565b6101fd565b6100cf6100a436600461056d565b73ffffffffffffffffffffffffffffffffffffffff1660009081526001602052604090205460ff1690565b604051901515815260200161007a565b600060026000541415610153576040517f08c379a000000000000000000000000000000000000000000000000000000000815260206004820152601f60248201527f5265656e7472616e637947756172643a207265656e7472616e742063616c6c0060448201526064015b60405180910390fd5b6002600090815561016484846102a3565b73ffffffffffffffffffffffffffffffffffffffff811660008181526001602081815260409283902080547fffffffffffffffffffffffffffffffffffffffffffffffffffffffffffffff00169092179091558151338152908101929092529192507f7da70c4e5387d7038610b79ca7d304caaef815826e51e67cf247135387a79bce910160405180910390a160016000559392505050565b60003073ffffffffffffffffffffffffffffffffffffffff16632ea72a49848460405160200161022e9291906108dc565b6040516020818303038152906040526040518263ffffffff1660e01b81526004016102599190610a65565b6020604051808303816000875af1158015610278573d6000803e3d6000fd5b505050506040513d601f19601f8201168201806040525081019061029c9190610a78565b9392505050565b600080806102b384860186610e8a565b9150915060006102e27f0000000000000000000000000000000000000000000000000000000000000000610375565b6040517f6e97b87300000000000000000000000000000000000000000000000000000000815290915073ffffffffffffffffffffffffffffffffffffffff821690636e97b873906103399086908690600401611142565b600060405180830381600087803b15801561035357600080fd5b505af1158015610367573d6000803e3d6000fd5b509298975050505050505050565b60006040517f3d602d80600a3d3981f3363d3d373d3d3d363d7300000000000000000000000081528260601b60148201527f5af43d82803e903d91602b57fd5bf3000000000000000000000000000000000060288201526037816000f091505073ffffffffffffffffffffffffffffffffffffffff8116610452576040517f08c379a000000000000000000000000000000000000000000000000000000000815260206004820152601660248201527f455243313136373a20637265617465206661696c656400000000000000000000604482015260640161014a565b919050565b6000806020838503121561046a57600080fd5b823567ffffffffffffffff8082111561048257600080fd5b818501915085601f83011261049657600080fd5b8135818111156104a557600080fd5b8660208285010111156104b757600080fd5b60209290920196919550909350505050565b600080604083850312156104dc57600080fd5b823567ffffffffffffffff808211156104f457600080fd5b90840190610100828703121561050957600080fd5b9092506020840135908082111561051f57600080fd5b5083016060818603121561053257600080fd5b809150509250929050565b73ffffffffffffffffffffffffffffffffffffffff8116811461055f57600080fd5b50565b80356104528161053d565b60006020828403121561057f57600080fd5b813561029c8161053d565b600082357fffffffffffffffffffffffffffffffffffffffffffffffffffffffffffffff818336030181126105be57600080fd5b90910192915050565b60008083357fffffffffffffffffffffffffffffffffffffffffffffffffffffffffffffffe18436030181126105fc57600080fd5b830160208101925035905067ffffffffffffffff81111561061c57600080fd5b8060051b360383131561062e57600080fd5b9250929050565b8183528181602085013750600060208284010152600060207fffffffffffffffffffffffffffffffffffffffffffffffffffffffffffffffe0601f840116840101905092915050565b60008083357fffffffffffffffffffffffffffffffffffffffffffffffffffffffffffffffe18436030181126106b357600080fd5b830160208101925035905067ffffffffffffffff8111156106d357600080fd5b80360383131561062e57600080fd5b81835260007f07ffffffffffffffffffffffffffffffffffffffffffffffffffffffffffffff83111561071457600080fd5b8260051b8083602087013760009401602001938452509192915050565b60006080830161074183846105c7565b608086528281845260a08701905060a08260051b88010193508260005b838110156107b9577fffffffffffffffffffffffffffffffffffffffffffffffffffffffffffffff60898703018352610797828661067e565b6107a2888284610635565b97505050602092830192919091019060010161075e565b50505050506107cb60208401846105c7565b85830360208701526107de8382846106e2565b9250505060408301356040850152606083013560608501528091505092915050565b600061080c828361058a565b6060845261081a818261067e565b6080606087015261082f60e087018284610635565b91505061083f602083018361067e565b7fffffffffffffffffffffffffffffffffffffffffffffffffffffffffffffffa0878403016080880152610874838284610635565b9250505060408201356108868161053d565b73ffffffffffffffffffffffffffffffffffffffff80821660a0880152606084013560c0880152602086013593506108bd8461053d565b8084166020880152505060408401356040860152809250505092915050565b6040815260006108ec848561058a565b610100806040850152610903610140850183610731565b9150610912602087018761058a565b7fffffffffffffffffffffffffffffffffffffffffffffffffffffffffffffffc0808685030160608701526109478483610731565b9350610956604089018961058a565b9150808685030160808701525061096d8382610731565b92505061097c60608701610562565b73ffffffffffffffffffffffffffffffffffffffff1660a08501526109a360808701610562565b73ffffffffffffffffffffffffffffffffffffffff811660c08601525060a086013560e085015260c0860135818501525060e085013561012084015282810360208401526109f18185610800565b95945050505050565b6000815180845260005b81811015610a2057602081850181015186830182015201610a04565b81811115610a32576000602083870101525b50601f017fffffffffffffffffffffffffffffffffffffffffffffffffffffffffffffffe0169290920160200192915050565b60208152600061029c60208301846109fa565b600060208284031215610a8a57600080fd5b815161029c8161053d565b7f4e487b7100000000000000000000000000000000000000000000000000000000600052604160045260246000fd5b6040516080810167ffffffffffffffff81118282101715610ae757610ae7610a95565b60405290565b6040516060810167ffffffffffffffff81118282101715610ae757610ae7610a95565b604051610100810167ffffffffffffffff81118282101715610ae757610ae7610a95565b604051601f82017fffffffffffffffffffffffffffffffffffffffffffffffffffffffffffffffe016810167ffffffffffffffff81118282101715610b7b57610b7b610a95565b604052919050565b600067ffffffffffffffff821115610b9d57610b9d610a95565b5060051b60200190565b600067ffffffffffffffff831115610bc157610bc1610a95565b610bf260207fffffffffffffffffffffffffffffffffffffffffffffffffffffffffffffffe0601f86011601610b34565b9050828152838383011115610c0657600080fd5b828260208301376000602084830101529392505050565b600082601f830112610c2e57600080fd5b81356020610c43610c3e83610b83565b610b34565b82815260059290921b84018101918181019086841115610c6257600080fd5b8286015b84811015610c7d5780358352918301918301610c66565b509695505050505050565b600060808284031215610c9a57600080fd5b610ca2610ac4565b9050813567ffffffffffffffff80821115610cbc57600080fd5b818401915084601f830112610cd057600080fd5b81356020610ce0610c3e83610b83565b82815260059290921b84018101918181019088841115610cff57600080fd5b8286015b84811015610d4c57803586811115610d1b5760008081fd5b8701603f81018b13610d2d5760008081fd5b610d3e8b8683013560408401610ba7565b845250918301918301610d03565b5086525085810135935082841115610d6357600080fd5b610d6f87858801610c1d565b8186015250505050604082013560408201526060820135606082015292915050565b600082601f830112610da257600080fd5b61029c83833560208501610ba7565b600060608284031215610dc357600080fd5b610dcb610aed565b9050813567ffffffffffffffff80821115610de557600080fd5b9083019060808286031215610df957600080fd5b610e01610ac4565b823582811115610e1057600080fd5b610e1c87828601610d91565b825250602083013582811115610e3157600080fd5b610e3d87828601610d91565b60208301525060408301359150610e538261053d565b81604082015260608301356060820152808452505050610e7560208301610562565b60208201526040820135604082015292915050565b60008060408385031215610e9d57600080fd5b823567ffffffffffffffff80821115610eb557600080fd5b908401906101008287031215610eca57600080fd5b610ed2610b10565b823582811115610ee157600080fd5b610eed88828601610c88565b825250602083013582811115610f0257600080fd5b610f0e88828601610c88565b602083015250604083013582811115610f2657600080fd5b610f3288828601610c88565b604083015250610f4460608401610562565b6060820152610f5560808401610562565b608082015260a083013560a082015260c083013560c082015260e083013560e0820152809450506020850135915080821115610f9057600080fd5b50610f9d85828601610db1565b9150509250929050565b600081518084526020808501945080840160005b83811015610fd757815187529582019590820190600101610fbb565b509495945050505050565b60006080830182516080855281815180845260a08701915060a08160051b88010193506020808401935060005b8281101561105b577fffffffffffffffffffffffffffffffffffffffffffffffffffffffffffffff608987030184526110498686516109fa565b9550938101939281019260010161100f565b50808701519350878503818901525050506110768282610fa7565b91505060408301516040850152606083015160608501528091505092915050565b60008151606084528051608060608601526110b560e08601826109fa565b905060208201517fffffffffffffffffffffffffffffffffffffffffffffffffffffffffffffffa08683030160808701526110f082826109fa565b915050604082015173ffffffffffffffffffffffffffffffffffffffff80821660a0880152606084015160c0880152806020870151166020880152505060408401516040860152809250505092915050565b6040815260008351610100806040850152611161610140850183610fe2565b915060208601517fffffffffffffffffffffffffffffffffffffffffffffffffffffffffffffffc08086850301606087015261119d8483610fe2565b93506040880151915080868503016080870152506111bb8382610fe2565b92505060608601516111e560a086018273ffffffffffffffffffffffffffffffffffffffff169052565b50608086015173ffffffffffffffffffffffffffffffffffffffff811660c08601525060a086015160e085015260c0860151818501525060e085015161012084015282810360208401526109f1818561109756fea264697066735822122018815c7ffa89f0a68cbe4fefe12fd5ca4ddb387be28090cd6266c0cdae743cdf64736f6c634300080a00336101606040523480156200001257600080fd5b50604051620049e3380380620049e38339810160408190526200003591620000f4565b6001600490815560808190526200004f906002906200015c565b60a081905262000062906001906200015c565b60c081905262000075906004906200015c565b60e081905262000088906008906200015c565b6101008190526200009c906006906200015c565b6101205280516001600160a01b039081166101405260408051338152835190921660208301527f8c720856cdfa3d0c89d8cf4cd5ccda94282c50fc7d3a9d5613181ce48ede2996910160405180910390a15062000183565b6000602082840312156200010757600080fd5b604051602081016001600160401b03811182821017156200013857634e487b7160e01b600052604160045260246000fd5b60405282516001600160a01b03811681146200015357600080fd5b81529392505050565b600082198211156200017e57634e487b7160e01b600052601160045260246000fd5b500190565b60805160a05160c05160e0516101005161012051610140516147e262000201600039600061085201526000818161219801526121ee01526000818161214201526121c50152600081816120ec015261216f015260008181612096015261211901526000818161203b01526120c30152600061206801526147e26000f3fe608060405234801561001057600080fd5b50600436106100d45760003560e01c8063cd3293de11610081578063efbe1c1c1161005b578063efbe1c1c146101b4578063f9020e33146101bc578063fc0c546a146101cf57600080fd5b8063cd3293de1461015a578063d48827e914610199578063ec309038146101ac57600080fd5b8063abf3969e116100b2578063abf3969e14610114578063ae10426514610131578063be9a65551461015257600080fd5b806315a0ea6a146100d9578063504d14f8146100ee5780636e97b87314610101575b600080fd5b6100ec6100e7366004613533565b6101ed565b005b6100ec6100fc366004613550565b6102b2565b6100ec61010f366004613983565b6105c2565b61011c6109ad565b60405190151581526020015b60405180910390f35b61014461013f366004613aa0565b610a28565b604051908152602001610128565b6100ec610ab1565b600b5473ffffffffffffffffffffffffffffffffffffffff165b60405173ffffffffffffffffffffffffffffffffffffffff9091168152602001610128565b6100ec6101a7366004613ab9565b610bff565b61011c61133b565b6100ec611362565b60125460ff166040516101289190613b9c565b600c5473ffffffffffffffffffffffffffffffffffffffff16610174565b600260125460ff16600381111561020657610206613b32565b14610272576040517f08c379a000000000000000000000000000000000000000000000000000000000815260206004820152600b60248201527f4e4f545f5355434345535300000000000000000000000000000000000000000060448201526064015b60405180910390fd5b73ffffffffffffffffffffffffffffffffffffffff80821660009081526015602052604081208054919055600b5490916102ae9116838361160a565b5050565b600260125460ff1660038111156102cb576102cb613b32565b1415610333576040517f08c379a000000000000000000000000000000000000000000000000000000000815260206004820152600e60248201527f524546554e445f535543434553530000000000000000000000000000000000006044820152606401610269565b6000816040516020016103469190613bf6565b604080517fffffffffffffffffffffffffffffffffffffffffffffffffffffffffffffffe081840301815291815281516020928301203360009081526013845282812082825290935291205490915060ff166103fe576040517f08c379a000000000000000000000000000000000000000000000000000000000815260206004820152600f60248201527f494e56414c49445f5245434549505400000000000000000000000000000000006044820152606401610269565b336000908152601360209081526040808320848452909152812080547fffffffffffffffffffffffffffffffffffffffffffffffffffffffffffffff00169055670de0b6b3a764000061045960608501356080860135613c33565b6104639190613c9f565b905080600e60008282546104779190613cb3565b925050819055508260600135600d60008282546104949190613cca565b9091555050604083018035906015906000906104b39060208801613533565b73ffffffffffffffffffffffffffffffffffffffff1673ffffffffffffffffffffffffffffffffffffffff16815260200190815260200160002060008282546104fc9190613cb3565b909155506000905060125460ff16600381111561051b5761051b613b32565b1415610529576105296116de565b7f92f85a40e83c8d882fe8d6e484c07c775950072962f3b22dd739834849a5a324338460405161055a929190613ce2565b60405180910390a1600c5461058b9073ffffffffffffffffffffffffffffffffffffffff163330606087013561187d565b6105bd3361059d604086013584613cca565b600b5473ffffffffffffffffffffffffffffffffffffffff16919061160a565b505050565b600054610100900460ff166105dd5760005460ff16156105e1565b303b155b61066d576040517f08c379a000000000000000000000000000000000000000000000000000000000815260206004820152602e60248201527f496e697469616c697a61626c653a20636f6e747261637420697320616c72656160448201527f647920696e697469616c697a65640000000000000000000000000000000000006064820152608401610269565b600054610100900460ff161580156106ac57600080547fffffffffffffffffffffffffffffffffffffffffffffffffffffffffffff0000166101011790555b6106b98360a001516118e1565b6106ce6106c9846000015161199c565b611a8f565b600660006101000a81548173ffffffffffffffffffffffffffffffffffffffff021916908373ffffffffffffffffffffffffffffffffffffffff16021790555061071e6106c9846020015161199c565b600760006101000a81548173ffffffffffffffffffffffffffffffffffffffff021916908373ffffffffffffffffffffffffffffffffffffffff16021790555061076e6106c9846040015161199c565b600880547fffffffffffffffffffffffff000000000000000000000000000000000000000090811673ffffffffffffffffffffffffffffffffffffffff9384161790915560608581015160058054841691851691909117905560c086015160095560e0860151600a55601280547fffffffffffffffffffffffffffffffffffffffffffffffffffffffffffffff0016905560808087018051600b8054918716919095161790935585513060409182015280519182018152925184168152855160208281019190915280870151851682850152838701519282019290925291516000937f00000000000000000000000000000000000000000000000000000000000000001692632ea72a49926108839201613d82565b6040516020818303038152906040526040518263ffffffff1660e01b81526004016108ae9190613e5d565b6020604051808303816000875af11580156108cd573d6000803e3d6000fd5b505050506040513d601f19601f820116820180604052508101906108f19190613e70565b600c80547fffffffffffffffffffffffff00000000000000000000000000000000000000001673ffffffffffffffffffffffffffffffffffffffff8316179055835160600151600d556040519091507f2b36a69ed67ed9c9dfb9b31aa4b048e7fad627a62ee67fc08dab1aabbabe636b9061097190339087908590613f6c565b60405180910390a15080156105bd57600080547fffffffffffffffffffffffffffffffffffffffffffffffffffffffffffff00ff169055505050565b60075460009081906109d49073ffffffffffffffffffffffffffffffffffffffff16611afd565b90506109f160405180602001604052806000815250826000611b51565b6000816020015160018360000151610a099190613cb3565b81518110610a1957610a19614090565b60200260200101511191505090565b6008546000908190610a4f9073ffffffffffffffffffffffffffffffffffffffff16611afd565b9050610a7e83604051602001610a6791815260200190565b604051602081830303815290604052826000611b51565b60208101518151610a9190600190613cb3565b81518110610aa157610aa1614090565b6020026020010151915050919050565b600060125460ff166003811115610aca57610aca613b32565b14610b31576040517f08c379a000000000000000000000000000000000000000000000000000000000815260206004820152600b60248201527f4e4f545f50454e44494e470000000000000000000000000000000000000000006044820152606401610269565b610b3961133b565b610b9f576040517f08c379a000000000000000000000000000000000000000000000000000000000815260206004820152600a60248201527f43414e545f5354415254000000000000000000000000000000000000000000006044820152606401610269565b601280547fffffffffffffffffffffffffffffffffffffffffffffffffffffffffffffff001660011790556040513381527f84d0447ca38875fa61115673259a210915bc1dd53a3c112d6f0790f15956a9659060200160405180910390a1565b60035460009073ffffffffffffffffffffffffffffffffffffffff1615610c3e5760035473ffffffffffffffffffffffffffffffffffffffff16610c6c565b600380547fffffffffffffffffffffffff000000000000000000000000000000000000000016339081179091555b73ffffffffffffffffffffffffffffffffffffffff8116600090815260026020526040902054909150431015610cfe576040517f08c379a000000000000000000000000000000000000000000000000000000000815260206004820152600860248201527f434f4f4c444f574e0000000000000000000000000000000000000000000000006044820152606401610269565b600060015443610d0e9190613cca565b73ffffffffffffffffffffffffffffffffffffffff8316600081815260026020908152604091829020849055815192835282018390529192507fdd9ec76fd04aab7ee6b385c04a7bdf966620500e72b134bfc3f19654fae20f25910160405180910390a160026004541415610ddf576040517f08c379a000000000000000000000000000000000000000000000000000000000815260206004820152601f60248201527f5265656e7472616e637947756172643a207265656e7472616e742063616c6c006044820152606401610269565b60026004556060830151610e4f576040517f08c379a000000000000000000000000000000000000000000000000000000000815260206004820152600960248201527f305f4445534952454400000000000000000000000000000000000000000000006044820152606401610269565b826060015183604001511115610ec1576040517f08c379a000000000000000000000000000000000000000000000000000000000815260206004820152601460248201527f4d494e494d554d5f4f5645525f444553495245440000000000000000000000006044820152606401610269565b600160125460ff166003811115610eda57610eda613b32565b14610f41576040517f08c379a000000000000000000000000000000000000000000000000000000000815260206004820152600a60248201527f4e4f545f414354495645000000000000000000000000000000000000000000006044820152606401610269565b6000610f6a8460400151610f64600d548760600151611ce690919063ffffffff16565b90611cfe565b9050600d54811115610fd8576040517f08c379a000000000000000000000000000000000000000000000000000000000815260206004820152601260248201527f494e53554646494349454e545f53544f434b00000000000000000000000000006044820152606401610269565b6000610fe382610a28565b90508460800151811115611053576040517f08c379a000000000000000000000000000000000000000000000000000000000815260206004820152600d60248201527f4d4158494d554d5f5052494345000000000000000000000000000000000000006044820152606401610269565b6000670de0b6b3a76400006110688484613c33565b6110729190613c9f565b6040805160a081018252601480548083528a5173ffffffffffffffffffffffffffffffffffffffff166020808501919091528b01519383019390935260608201879052608082018690529293509160006110cb836140bf565b9091555050336000908152601360209081526040808320905160019391926110f5918691016140f8565b604080518083037fffffffffffffffffffffffffffffffffffffffffffffffffffffffffffffffe00181529181528151602092830120835282820193909352908201600090812080547fffffffffffffffffffffffffffffffffffffffffffffffffffffffffffffff001694151594909417909355898101518a5173ffffffffffffffffffffffffffffffffffffffff16845260159091529082208054919290916111a1908490613cca565b9250508190555083600d60008282546111ba9190613cb3565b9250508190555081600e60008282546111d39190613cca565b909155505043600f5560108490556011839055602087015161121e90339030906111fd9086613cca565b600b5473ffffffffffffffffffffffffffffffffffffffff1692919061187d565b600c546112429073ffffffffffffffffffffffffffffffffffffffff16338661160a565b6001600d54101561125a57611255611362565b6112ca565b600a54600d5410156112ca576040517f08c379a00000000000000000000000000000000000000000000000000000000081526004016102699060208082526004908201527f4455535400000000000000000000000000000000000000000000000000000000604082015260600190565b7fde28bbdf409354cf811d2e1f52147a0a2a1b89be5848c4b5a41587f63b7cfa6a3388836040516112fd93929190614147565b60405180910390a1505060016004555050600380547fffffffffffffffffffffffff0000000000000000000000000000000000000000169055505050565b60065460009081906109d49073ffffffffffffffffffffffffffffffffffffffff16611afd565b600160125460ff16600381111561137b5761137b613b32565b146113e2576040517f08c379a000000000000000000000000000000000000000000000000000000000815260206004820152600a60248201527f4e4f545f414354495645000000000000000000000000000000000000000000006044820152606401610269565b6001600d5410806113f657506113f66109ad565b61145c576040517f08c379a000000000000000000000000000000000000000000000000000000000815260206004820152600860248201527f43414e545f454e440000000000000000000000000000000000000000000000006044820152606401610269565b6000600d8190556040805160018082528183019092529060208083019080368337019050509050308160008151811061149757611497614090565b73ffffffffffffffffffffffffffffffffffffffff90921660209283029190910190910152600954600e5410156000816114d25760036114d5565b60025b90507f9aef4e6c636914c533cde859f632ab5e2b68cfd8f06b6a2e18f89783f00072cd33826040516115089291906141ea565b60405180910390a1601280548291907fffffffffffffffffffffffffffffffffffffffffffffffffffffffffffffff0016600183600381111561154d5761154d613b32565b0217905550600c546040517fa2f5b6d000000000000000000000000000000000000000000000000000000000815273ffffffffffffffffffffffffffffffffffffffff9091169063a2f5b6d0906115a8908690600401614214565b600060405180830381600087803b1580156115c257600080fd5b505af11580156115d6573d6000803e3d6000fd5b5050505081156105bd57600554600e54600b546105bd9273ffffffffffffffffffffffffffffffffffffffff918216929116905b60405173ffffffffffffffffffffffffffffffffffffffff83166024820152604481018290526105bd9084907fa9059cbb00000000000000000000000000000000000000000000000000000000906064015b604080517fffffffffffffffffffffffffffffffffffffffffffffffffffffffffffffffe08184030181529190526020810180517bffffffffffffffffffffffffffffffffffffffffffffffffffffffff167fffffffff0000000000000000000000000000000000000000000000000000000090931692909217909152611d0e565b60035460009073ffffffffffffffffffffffffffffffffffffffff161561171d5760035473ffffffffffffffffffffffffffffffffffffffff1661174b565b600380547fffffffffffffffffffffffff000000000000000000000000000000000000000016339081179091555b73ffffffffffffffffffffffffffffffffffffffff81166000908152600260205260409020549091504310156117dd576040517f08c379a000000000000000000000000000000000000000000000000000000000815260206004820152600860248201527f434f4f4c444f574e0000000000000000000000000000000000000000000000006044820152606401610269565b6000600154436117ed9190613cca565b73ffffffffffffffffffffffffffffffffffffffff8316600081815260026020908152604091829020849055815192835282018390529192507fdd9ec76fd04aab7ee6b385c04a7bdf966620500e72b134bfc3f19654fae20f25910160405180910390a15050600380547fffffffffffffffffffffffff0000000000000000000000000000000000000000169055565b60405173ffffffffffffffffffffffffffffffffffffffff808516602483015283166044820152606481018290526118db9085907f23b872dd000000000000000000000000000000000000000000000000000000009060840161165c565b50505050565b6000811161194b576040517f08c379a000000000000000000000000000000000000000000000000000000000815260206004820152600a60248201527f434f4f4c444f574e5f30000000000000000000000000000000000000000000006044820152606401610269565b6001541561195b5761195b61426e565b600181905560408051338152602081018390527f6153539ba1c54ed4ef5b6f1fda4b7183eeaa1b5707c152abed56f61e09452521910160405180910390a150565b6119ce6040518060a0016040528060008152602001606081526020016060815260200160608152602001606081525090565b6040518060a0016040528060008152602001836040015167ffffffffffffffff8111156119fd576119fd613562565b604051908082528060200260200182016040528015611a26578160200160208202803683370190505b5081526020018360000151815260200183602001518152602001836060015167ffffffffffffffff811115611a5d57611a5d613562565b604051908082528060200260200182016040528015611a86578160200160208202803683370190505b50905292915050565b600080611aba83604051602001611aa69190614312565b604051602081830303815290604052611e1a565b90507ff95eed63f55d96a35306669cc3b5f652f8d44552e3e4b17b2f78f13571114abd338285604051611aef93929190614325565b60405180910390a192915050565b611b2f6040518060a0016040528060008152602001606081526020016060815260200160608152602001606081525090565b611b3882611ea5565b806020019051810190611b4b9190614475565b92915050565b602082810151604084015183830201909101516060840151608085015182516000948594859492939092915b84881015611cd9576002880197508784015180601e1a975080601f1a9650506004871015611ccd576001871415611be0578160808716611bba5750825b8a516020607f89160260200182015160208202602001840152600181018c525050611b7d565b6002871415611c0b5789516020870260200182015160208202602001830152600181018b5250611b7d565b6003871415611c2457611c1f8b8b88611ed3565b611b7d565b607f6101fe600188901b161786166080871615611c90578a517fffffffffffffffffffffffffffffffffffffffffffffffffffffffffffffffff01808c5260208c015180519091908110611c7a57611c7a614090565b602002602001015160001415611c905750611b7d565b8060000b600014611cc75760008160000b1215611cbb57801960020160020260ff1689039850611cc7565b8060020260ff16890198505b50611b7d565b611c1f8b8b8989612039565b5050505050505050505050565b6000818310611cf55781611cf7565b825b9392505050565b600081831015611cf55781611cf7565b6000611d70826040518060400160405280602081526020017f5361666545524332303a206c6f772d6c6576656c2063616c6c206661696c65648152508573ffffffffffffffffffffffffffffffffffffffff1661238d9092919063ffffffff16565b8051909150156105bd5780806020019051810190611d8e9190614558565b6105bd576040517f08c379a000000000000000000000000000000000000000000000000000000000815260206004820152602a60248201527f5361666545524332303a204552433230206f7065726174696f6e20646964206e60448201527f6f742073756363656564000000000000000000000000000000000000000000006064820152608401610269565b600080611e4583604051602001611e31919061457a565b6040516020818303038152906040526123a4565b90508051602082016000f0915073ffffffffffffffffffffffffffffffffffffffff8216611e9f576040517f08d4abb600000000000000000000000000000000000000000000000000000000815260040160405180910390fd5b50919050565b6060611b4b8260017fffffffffffffffffffffffffffffffffffffffffffffffffffffffffffffffff6123d0565b81517fffffffffffffffffffffffffffffffffffffffffffffffffffffffffffffffff600583901c918290030183526007821690610100600384811c1681901c91908290039060010160008167ffffffffffffffff811115611f3757611f37613562565b604051908082528060200260200182016040528015611f60578160200160208202803683370190505b50905060005b82811015611fb75787602001518189600001510181518110611f8a57611f8a614090565b6020026020010151828281518110611fa457611fa4614090565b6020908102919091010152600101611f66565b5060005b61010081101561202e5760005b8381101561201b5784828603848381518110611fe657611fe6614090565b6020026020010151901b901c8960800151828151811061200857612008614090565b6020908102919091010152600101611fc8565b50612027898988611b51565b8401611fbb565b505050505050505050565b7f00000000000000000000000000000000000000000000000000000000000000008210156120945761208f84847f00000000000000000000000000000000000000000000000000000000000000008503846124b8565b6118db565b7f00000000000000000000000000000000000000000000000000000000000000008210156120ea5761208f84847f0000000000000000000000000000000000000000000000000000000000000000850384612594565b7f00000000000000000000000000000000000000000000000000000000000000008210156121405761208f84847f0000000000000000000000000000000000000000000000000000000000000000850384612619565b7f00000000000000000000000000000000000000000000000000000000000000008210156121965761208f84847f0000000000000000000000000000000000000000000000000000000000000000850384612703565b7f00000000000000000000000000000000000000000000000000000000000000008210156121ec5761208f84847f0000000000000000000000000000000000000000000000000000000000000000850384612a4d565b7f0000000000000000000000000000000000000000000000000000000000000000820391506006821061227b576040517f08c379a000000000000000000000000000000000000000000000000000000000815260206004820152600a60248201527f4d41585f4f50434f4445000000000000000000000000000000000000000000006044820152606401610269565b816122ab57600d54602084015184518151811061229a5761229a614090565b602002602001018181525050612381565b60018214156122ce57600e54602084015184518151811061229a5761229a614090565b60028214156122f157600f54602084015184518151811061229a5761229a614090565b600382141561231457601054602084015184518151811061229a5761229a614090565b600482141561233757601154602084015184518151811061229a5761229a614090565b60058214156123815760008480602001905181019061235691906145a0565b905080846020015185600001518151811061237357612373614090565b602002602001018181525050505b50508051600101905250565b606061239c8484600085612f14565b949350505050565b60608151826040516020016123ba9291906145b9565b6040516020818303038152906040529050919050565b6060833b806123ef575050604080516020810190915260008152611cf7565b8084111561240d575050604080516020810190915260008152611cf7565b83831015612458576040517f2c4a89fa000000000000000000000000000000000000000000000000000000008152600481018290526024810185905260448101849052606401610269565b838303848203600082821061246d578261246f565b815b60408051603f83017fffffffffffffffffffffffffffffffffffffffffffffffffffffffffffffffe0168101909152818152955090508087602087018a3c505050509392505050565b60028210612522576040517f08c379a000000000000000000000000000000000000000000000000000000000815260206004820152600a60248201527f4d41585f4f50434f4445000000000000000000000000000000000000000000006044820152606401610269565b816125595743836020015184600001518151811061254257612542614090565b6020908102919091010152825160010183526118db565b60018214156118db5742836020015184600001518151811061257d5761257d614090565b602090810291909101015250508051600101905250565b600182106125fe576040517f08c379a000000000000000000000000000000000000000000000000000000000815260206004820152600a60248201527f4d41585f4f50434f4445000000000000000000000000000000000000000000006044820152606401610269565b60208301518351815133929190811061257d5761257d614090565b60048210612683576040517f08c379a000000000000000000000000000000000000000000000000000000000815260206004820152600a60248201527f4d41585f4f50434f4445000000000000000000000000000000000000000000006044820152606401610269565b8251602084015160208202810151846126a0578015602084028301525b84156126fa5760018303925082865260208302820151600086600181146126d657600281146126e057600381146126ea576126f0565b83831491506126f0565b83831091506126f0565b83831191505b5060208502840152505b50505050505050565b6008821061276d576040517f08c379a000000000000000000000000000000000000000000000000000000000815260206004820152600a60248201527f4d41585f4f50434f4445000000000000000000000000000000000000000000006044820152606401610269565b8251818103808552602085015180517fffffffffffffffffffffffffffffffffffffffffffffffffffffffffffffffff909301928291600091839081106127b6576127b6614090565b60200260200101519050600086141561280e575b838210156128095760208701518051600190930192839081106127ef576127ef614090565b6020026020010151816128029190613cca565b90506127ca565b612a1a565b6001861415612857575b8382101561280957602087015180516001909301928390811061283d5761283d614090565b6020026020010151816128509190613cb3565b9050612818565b60028614156128a0575b8382101561280957602087015180516001909301928390811061288657612886614090565b6020026020010151816128999190613c33565b9050612861565b60038614156128e9575b838210156128095760208701518051600190930192839081106128cf576128cf614090565b6020026020010151816128e29190613c9f565b90506128aa565b6004861415612932575b8382101561280957602087015180516001909301928390811061291857612918614090565b60200260200101518161292b9190614650565b90506128f3565b600586141561297a575b8382101561280957602087015180516001909301928390811061296157612961614090565b6020026020010151816129749190614784565b5061293c565b60068614156129cc5760005b848310156129c65760208801518051600190940193849081106129ab576129ab614090565b60200260200101519050818110156129c1578091505b612986565b50612a1a565b6007861415612a1a5760005b84831015612a185760208801518051600190940193849081106129fd576129fd614090565b6020026020010151905081811115612a13578091505b6129d8565b505b8087602001518481518110612a3157612a31614090565b6020908102919091010152505084516001019094525050505050565b60068210612ab7576040517f08c379a000000000000000000000000000000000000000000000000000000000815260206004820152600a60248201527f4d41585f4f50434f4445000000000000000000000000000000000000000000006044820152606401610269565b600082612be7575082517ffffffffffffffffffffffffffffffffffffffffffffffffffffffffffffffffe018084526020840151805182908110612afd57612afd614090565b602002602001015173ffffffffffffffffffffffffffffffffffffffff1663e053ea3185602001518360010181518110612b3957612b39614090565b60200260200101516040518263ffffffff1660e01b8152600401612b79919073ffffffffffffffffffffffffffffffffffffffff91909116815260200190565b602060405180830381865afa158015612b96573d6000803e3d6000fd5b505050506040513d601f19601f82011682018060405250810190612bba91906145a0565b84602001518281518110612bd057612bd0614090565b602090810291909101015283516001018452612f0d565b6001831415612c2b577fffffffffffffffffffffffffffffffffffffffffffffffffffffffffffffffff8460200151856000015181518110612bd057612bd0614090565b6002831415612c505760008460200151856000015181518110612bd057612bd0614090565b6003831415612d04575082517ffffffffffffffffffffffffffffffffffffffffffffffffffffffffffffffffe01808452602084015180516000919083908110612c9c57612c9c614090565b60200260200101519050600085602001518360010181518110612cc157612cc1614090565b60200260200101519050612cd58282613094565b86602001518481518110612ceb57612ceb614090565b6020908102919091010152505083516001018452612f0d565b6004831415612dcc575082517ffffffffffffffffffffffffffffffffffffffffffffffffffffffffffffffffe0180845260208401518051600f80851692600486901c909116916000919085908110612d5f57612d5f614090565b60200260200101519050600087602001518560010181518110612d8457612d84614090565b60200260200101519050612d9a828585846130f3565b88602001518681518110612db057612db0614090565b602090810291909101015250508551600101865250612f0d9050565b6005831415612f0d575082517fffffffffffffffffffffffffffffffffffffffffffffffffffffffffffffffff601f8316918290030180855290600783901c906003600585901c16908360008267ffffffffffffffff811115612e3157612e31613562565b604051908082528060200260200182016040528015612e5a578160200160208202803683370190505b50905060005b83811015612eaf5789602001518381518110612e7e57612e7e614090565b6020026020010151828281518110612e9857612e98614090565b602090810291909101015260019283019201612e60565b50600089602001518381518110612ec857612ec8614090565b60200260200101519050612ede82828888613206565b8a602001518881518110612ef457612ef4614090565b6020908102919091010152505087516001018852505050505b5050505050565b606082471015612fa6576040517f08c379a000000000000000000000000000000000000000000000000000000000815260206004820152602660248201527f416464726573733a20696e73756666696369656e742062616c616e636520666f60448201527f722063616c6c00000000000000000000000000000000000000000000000000006064820152608401610269565b843b61300e576040517f08c379a000000000000000000000000000000000000000000000000000000000815260206004820152601d60248201527f416464726573733a2063616c6c20746f206e6f6e2d636f6e74726163740000006044820152606401610269565b6000808673ffffffffffffffffffffffffffffffffffffffff1685876040516130379190614790565b60006040518083038185875af1925050503d8060008114613074576040519150601f19603f3d011682016040523d82523d6000602084013e613079565b606091505b5091509150613089828286613356565b979650505050505050565b60008060015b600881116130eb5760006130ae86836133a9565b905060006130bc86846133a9565b905060006130ca838361345e565b90506130da856001860383613474565b9450506001909201915061309a9050565b509392505050565b6000836008811115613161576040517f08c379a000000000000000000000000000000000000000000000000000000000815260206004820152600860248201527f4d41585f544945520000000000000000000000000000000000000000000000006044820152606401610269565b8360088111156131cd576040517f08c379a000000000000000000000000000000000000000000000000000000000815260206004820152600860248201527f4d41585f544945520000000000000000000000000000000000000000000000006044820152606401610269565b6000865b868110156131f95763ffffffff6020820290811b1999909916868a1b179891506001016131d1565b5096979650505050505050565b835160009081908190819060015b600881116133485760009250828761324d57507fffffffffffffffffffffffffffffffffffffffffffffffffffffffffffffffff613251565b5060005b60005b838110156133065761327f8c828151811061327157613271614090565b6020026020010151846133a9565b95508a86116132d1578861329e576132978683611ce6565b91506132c8565b60018914156132b1576132978683611cfe565b6002891480156132bf575084155b156132c8578591505b600194506132fe565b896132fe577fffffffffffffffffffffffffffffffffffffffffffffffffffffffffffffffff9150613306565b600101613254565b508361332f57507fffffffffffffffffffffffffffffffffffffffffffffffffffffffffffffffff5b61333d866001840383613474565b955050600101613214565b509298975050505050505050565b60608315613365575081611cf7565b8251156133755782518084602001fd5b816040517f08c379a00000000000000000000000000000000000000000000000000000000081526004016102699190613e5d565b6000816008811115613417576040517f08c379a000000000000000000000000000000000000000000000000000000000815260206004820152600860248201527f4d41585f544945520000000000000000000000000000000000000000000000006044820152606401610269565b826134255760009150613457565b63ffffffff60207fffffffffffffffffffffffffffffffffffffffffffffffffffffffffffffffff85010285901c1691505b5092915050565b600081831161346e576000611cf7565b50900390565b60008260088111156134e2576040517f08c379a000000000000000000000000000000000000000000000000000000000815260206004820152600860248201527f4d41585f544945520000000000000000000000000000000000000000000000006044820152606401610269565b505060209190910290811b63ffffffff90911b19919091161790565b73ffffffffffffffffffffffffffffffffffffffff8116811461352057600080fd5b50565b803561352e816134fe565b919050565b60006020828403121561354557600080fd5b8135611cf7816134fe565b600060a08284031215611e9f57600080fd5b7f4e487b7100000000000000000000000000000000000000000000000000000000600052604160045260246000fd5b6040516080810167ffffffffffffffff811182821017156135b4576135b4613562565b60405290565b6040516060810167ffffffffffffffff811182821017156135b4576135b4613562565b604051610100810167ffffffffffffffff811182821017156135b4576135b4613562565b60405160a0810167ffffffffffffffff811182821017156135b4576135b4613562565b604051601f82017fffffffffffffffffffffffffffffffffffffffffffffffffffffffffffffffe016810167ffffffffffffffff8111828210171561366b5761366b613562565b604052919050565b600067ffffffffffffffff82111561368d5761368d613562565b5060051b60200190565b600067ffffffffffffffff8211156136b1576136b1613562565b50601f017fffffffffffffffffffffffffffffffffffffffffffffffffffffffffffffffe01660200190565b60006136f06136eb84613697565b613624565b905082815283838301111561370457600080fd5b828260208301376000602084830101529392505050565b600082601f83011261372c57600080fd5b8135602061373c6136eb83613673565b82815260059290921b8401810191818101908684111561375b57600080fd5b8286015b84811015613776578035835291830191830161375f565b509695505050505050565b60006080828403121561379357600080fd5b61379b613591565b9050813567ffffffffffffffff808211156137b557600080fd5b818401915084601f8301126137c957600080fd5b813560206137d96136eb83613673565b82815260059290921b840181019181810190888411156137f857600080fd5b8286015b84811015613845578035868111156138145760008081fd5b8701603f81018b136138265760008081fd5b6138378b86830135604084016136dd565b8452509183019183016137fc565b508652508581013593508284111561385c57600080fd5b6138688785880161371b565b8186015250505050604082013560408201526060820135606082015292915050565b600082601f83011261389b57600080fd5b611cf7838335602085016136dd565b6000606082840312156138bc57600080fd5b6138c46135ba565b9050813567ffffffffffffffff808211156138de57600080fd5b90830190608082860312156138f257600080fd5b6138fa613591565b82358281111561390957600080fd5b6139158782860161388a565b82525060208301358281111561392a57600080fd5b6139368782860161388a565b6020830152506040830135915061394c826134fe565b8160408201526060830135606082015280845250505061396e60208301613523565b60208201526040820135604082015292915050565b6000806040838503121561399657600080fd5b823567ffffffffffffffff808211156139ae57600080fd5b9084019061010082870312156139c357600080fd5b6139cb6135dd565b8235828111156139da57600080fd5b6139e688828601613781565b8252506020830135828111156139fb57600080fd5b613a0788828601613781565b602083015250604083013582811115613a1f57600080fd5b613a2b88828601613781565b604083015250613a3d60608401613523565b6060820152613a4e60808401613523565b608082015260a083013560a082015260c083013560c082015260e083013560e0820152809450506020850135915080821115613a8957600080fd5b50613a96858286016138aa565b9150509250929050565b600060208284031215613ab257600080fd5b5035919050565b600060a08284031215613acb57600080fd5b60405160a0810181811067ffffffffffffffff82111715613aee57613aee613562565b6040528235613afc816134fe565b80825250602083013560208201526040830135604082015260608301356060820152608083013560808201528091505092915050565b7f4e487b7100000000000000000000000000000000000000000000000000000000600052602160045260246000fd5b60048110613b98577f4e487b7100000000000000000000000000000000000000000000000000000000600052602160045260246000fd5b9052565b60208101611b4b8284613b61565b803582526020810135613bbc816134fe565b73ffffffffffffffffffffffffffffffffffffffff1660208301526040818101359083015260608082013590830152608090810135910152565b60a08101611b4b8284613baa565b7f4e487b7100000000000000000000000000000000000000000000000000000000600052601160045260246000fd5b6000817fffffffffffffffffffffffffffffffffffffffffffffffffffffffffffffffff0483118215151615613c6b57613c6b613c04565b500290565b7f4e487b7100000000000000000000000000000000000000000000000000000000600052601260045260246000fd5b600082613cae57613cae613c70565b500490565b600082821015613cc557613cc5613c04565b500390565b60008219821115613cdd57613cdd613c04565b500190565b73ffffffffffffffffffffffffffffffffffffffff8316815260c08101611cf76020830184613baa565b60005b83811015613d27578181015183820152602001613d0f565b838111156118db5750506000910152565b60008151808452613d50816020860160208601613d0c565b601f017fffffffffffffffffffffffffffffffffffffffffffffffffffffffffffffffe0169290920160200192915050565b60208152600073ffffffffffffffffffffffffffffffffffffffff8084511660208401526020840151608060408501528051608060a0860152613dc9610120860182613d38565b905060208201517fffffffffffffffffffffffffffffffffffffffffffffffffffffffffffffff608683030160c0870152613e048282613d38565b9150508260408301511660e0860152606082015161010086015260408601519250613e47606086018473ffffffffffffffffffffffffffffffffffffffff169052565b6060860151608086015280935050505092915050565b602081526000611cf76020830184613d38565b600060208284031215613e8257600080fd5b8151611cf7816134fe565b600081518084526020808501808196508360051b8101915082860160005b85811015613ed5578284038952613ec3848351613d38565b98850198935090840190600101613eab565b5091979650505050505050565b600081518084526020808501945080840160005b83811015613f1257815187529582019590820190600101613ef6565b509495945050505050565b6000815160808452613f326080850182613e8d565b905060208301518482036020860152613f4b8282613ee2565b91505060408301516040850152606083015160608501528091505092915050565b73ffffffffffffffffffffffffffffffffffffffff841681526060602082015260008351610100806060850152613fa7610160850183613f1d565b915060208601517fffffffffffffffffffffffffffffffffffffffffffffffffffffffffffffffa080868503016080870152613fe38483613f1d565b935060408801519150808685030160a0870152506140018382613f1d565b925050606086015161402b60c086018273ffffffffffffffffffffffffffffffffffffffff169052565b50608086015173ffffffffffffffffffffffffffffffffffffffff811660e08601525060a08601519084015260c085015161012084015260e085015161014084015273ffffffffffffffffffffffffffffffffffffffff84166040840152905061239c565b7f4e487b7100000000000000000000000000000000000000000000000000000000600052603260045260246000fd5b60007fffffffffffffffffffffffffffffffffffffffffffffffffffffffffffffffff8214156140f1576140f1613c04565b5060010190565b60a08101611b4b82848051825273ffffffffffffffffffffffffffffffffffffffff60208201511660208301526040810151604083015260608101516060830152608081015160808301525050565b60006101608201905073ffffffffffffffffffffffffffffffffffffffff808616835280855116602084015250602084015160408301526040840151606083015260608401516080830152608084015160a083015261239c60c08301848051825273ffffffffffffffffffffffffffffffffffffffff60208201511660208301526040810151604083015260608101516060830152608081015160808301525050565b73ffffffffffffffffffffffffffffffffffffffff8316815260408101611cf76020830184613b61565b6020808252825182820181905260009190848201906040850190845b8181101561426257835173ffffffffffffffffffffffffffffffffffffffff1683529284019291840191600101614230565b50909695505050505050565b7f4e487b7100000000000000000000000000000000000000000000000000000000600052600160045260246000fd5b805182526000602082015160a060208501526142bc60a0850182613ee2565b9050604083015184820360408601526142d58282613e8d565b915050606083015184820360608601526142ef8282613ee2565b915050608083015184820360808601526143098282613ee2565b95945050505050565b602081526000611cf7602083018461429d565b600073ffffffffffffffffffffffffffffffffffffffff808616835280851660208401525060606040830152614309606083018461429d565b600082601f83011261436f57600080fd5b8151602061437f6136eb83613673565b82815260059290921b8401810191818101908684111561439e57600080fd5b8286015b8481101561377657805183529183019183016143a2565b600082601f8301126143ca57600080fd5b815160206143da6136eb83613673565b82815260059290921b840181019181810190868411156143f957600080fd5b8286015b8481101561377657805167ffffffffffffffff81111561441d5760008081fd5b8701603f8101891361442f5760008081fd5b8481015160406144416136eb83613697565b8281528b828486010111156144565760008081fd5b61446583898301848701613d0c565b86525050509183019183016143fd565b60006020828403121561448757600080fd5b815167ffffffffffffffff8082111561449f57600080fd5b9083019060a082860312156144b357600080fd5b6144bb613601565b825181526020830151828111156144d157600080fd5b6144dd8782860161435e565b6020830152506040830151828111156144f557600080fd5b614501878286016143b9565b60408301525060608301518281111561451957600080fd5b6145258782860161435e565b60608301525060808301518281111561453d57600080fd5b6145498782860161435e565b60808301525095945050505050565b60006020828403121561456a57600080fd5b81518015158114611cf757600080fd5b6000815260008251614593816001850160208701613d0c565b9190910160010192915050565b6000602082840312156145b257600080fd5b5051919050565b7f630000000000000000000000000000000000000000000000000000000000000081527fffffffff000000000000000000000000000000000000000000000000000000008360e01b1660018201527f80600e6000396000f3000000000000000000000000000000000000000000000060058201526000825161464281600e850160208701613d0c565b91909101600e019392505050565b60008261465f5761465f613c70565b500690565b600181815b808511156146bd57817fffffffffffffffffffffffffffffffffffffffffffffffffffffffffffffffff048211156146a3576146a3613c04565b808516156146b057918102915b93841c9390800290614669565b509250929050565b6000826146d457506001611b4b565b816146e157506000611b4b565b81600181146146f757600281146147015761471d565b6001915050611b4b565b60ff84111561471257614712613c04565b50506001821b611b4b565b5060208310610133831016604e8410600b8410161715614740575081810a611b4b565b61474a8383614664565b807fffffffffffffffffffffffffffffffffffffffffffffffffffffffffffffffff0482111561477c5761477c613c04565b029392505050565b6000611cf783836146c5565b600082516147a2818460208701613d0c565b919091019291505056fea26469706673582212200102f62676fc3a8e62e5bb83fc9e814012f302e05ba561a7d9480893fc7ef36464736f6c634300080a0033",
  "linkReferences": {},
  "deployedLinkReferences": {}
}