{
  "_format": "hh-sol-artifact-1",
  "contractName": "SaleFactory",
  "sourceName": "contracts/sale/SaleFactory.sol",
  "abi": [
    {
      "inputs": [
        {
          "components": [
            {
              "internalType": "contract RedeemableERC20Factory",
              "name": "redeemableERC20Factory",
              "type": "address"
            }
          ],
          "internalType": "struct SaleConstructorConfig",
          "name": "config_",
          "type": "tuple"
        }
      ],
      "stateMutability": "nonpayable",
      "type": "constructor"
    },
    {
      "anonymous": false,
      "inputs": [
        {
          "indexed": false,
          "internalType": "address",
          "name": "sender",
          "type": "address"
        },
        {
          "indexed": false,
          "internalType": "address",
          "name": "implementation",
          "type": "address"
        }
      ],
      "name": "Implementation",
      "type": "event"
    },
    {
      "anonymous": false,
      "inputs": [
        {
          "indexed": false,
          "internalType": "address",
          "name": "sender",
          "type": "address"
        },
        {
          "indexed": false,
          "internalType": "address",
          "name": "child",
          "type": "address"
        }
      ],
      "name": "NewChild",
      "type": "event"
    },
    {
      "inputs": [
        {
          "internalType": "bytes",
          "name": "data_",
          "type": "bytes"
        }
      ],
      "name": "createChild",
      "outputs": [
        {
          "internalType": "address",
          "name": "",
          "type": "address"
        }
      ],
      "stateMutability": "nonpayable",
      "type": "function"
    },
    {
      "inputs": [
        {
          "components": [
            {
              "components": [
                {
                  "internalType": "bytes[]",
                  "name": "sources",
                  "type": "bytes[]"
                },
                {
                  "internalType": "uint256[]",
                  "name": "constants",
                  "type": "uint256[]"
                },
                {
                  "internalType": "uint256",
                  "name": "stackLength",
                  "type": "uint256"
                },
                {
                  "internalType": "uint256",
                  "name": "argumentsLength",
                  "type": "uint256"
                }
              ],
              "internalType": "struct StateConfig",
              "name": "canStartStateConfig",
              "type": "tuple"
            },
            {
              "components": [
                {
                  "internalType": "bytes[]",
                  "name": "sources",
                  "type": "bytes[]"
                },
                {
                  "internalType": "uint256[]",
                  "name": "constants",
                  "type": "uint256[]"
                },
                {
                  "internalType": "uint256",
                  "name": "stackLength",
                  "type": "uint256"
                },
                {
                  "internalType": "uint256",
                  "name": "argumentsLength",
                  "type": "uint256"
                }
              ],
              "internalType": "struct StateConfig",
              "name": "canEndStateConfig",
              "type": "tuple"
            },
            {
              "components": [
                {
                  "internalType": "bytes[]",
                  "name": "sources",
                  "type": "bytes[]"
                },
                {
                  "internalType": "uint256[]",
                  "name": "constants",
                  "type": "uint256[]"
                },
                {
                  "internalType": "uint256",
                  "name": "stackLength",
                  "type": "uint256"
                },
                {
                  "internalType": "uint256",
                  "name": "argumentsLength",
                  "type": "uint256"
                }
              ],
              "internalType": "struct StateConfig",
              "name": "calculatePriceStateConfig",
              "type": "tuple"
            },
            {
              "internalType": "address",
              "name": "recipient",
              "type": "address"
            },
            {
              "internalType": "contract IERC20",
              "name": "reserve",
              "type": "address"
            },
            {
              "internalType": "uint256",
              "name": "cooldownDuration",
              "type": "uint256"
            },
            {
              "internalType": "uint256",
              "name": "minimumRaise",
              "type": "uint256"
            },
            {
              "internalType": "uint256",
              "name": "dustSize",
              "type": "uint256"
            }
          ],
          "internalType": "struct SaleConfig",
          "name": "config_",
          "type": "tuple"
        },
        {
          "components": [
            {
              "components": [
                {
                  "internalType": "string",
                  "name": "name",
                  "type": "string"
                },
                {
                  "internalType": "string",
                  "name": "symbol",
                  "type": "string"
                },
                {
                  "internalType": "address",
                  "name": "distributor",
                  "type": "address"
                },
                {
                  "internalType": "uint256",
                  "name": "initialSupply",
                  "type": "uint256"
                }
              ],
              "internalType": "struct ERC20Config",
              "name": "erc20Config",
              "type": "tuple"
            },
            {
              "internalType": "contract ITier",
              "name": "tier",
              "type": "address"
            },
            {
              "internalType": "uint256",
              "name": "minimumTier",
              "type": "uint256"
            },
            {
              "internalType": "address",
              "name": "distributionEndForwardingAddress",
              "type": "address"
            }
          ],
          "internalType": "struct SaleRedeemableERC20Config",
          "name": "saleRedeemableERC20Config_",
          "type": "tuple"
        }
      ],
      "name": "createChildTyped",
      "outputs": [
        {
          "internalType": "contract Sale",
          "name": "",
          "type": "address"
        }
      ],
      "stateMutability": "nonpayable",
      "type": "function"
    },
    {
      "inputs": [
        {
          "internalType": "address",
          "name": "maybeChild_",
          "type": "address"
        }
      ],
      "name": "isChild",
      "outputs": [
        {
          "internalType": "bool",
          "name": "",
          "type": "bool"
        }
      ],
      "stateMutability": "view",
      "type": "function"
    }
  ],
  "bytecode": "0x60a060405234801561001057600080fd5b5060405162006ae238038062006ae283398101604081905261003191610123565b60016000908155604051829061004690610115565b90516001600160a01b03168152602001604051809103906000f080158015610072573d6000803e3d6000fd5b5090506001600160a01b0381166100c25760405162461bcd60e51b815260206004820152601060248201526f182fa4a6a82622a6a2a72a20aa24a7a760811b604482015260640160405180910390fd5b604080513381526001600160a01b03831660208201527f7fac34ecf0b1b374cd9659e3d17db602659d53f1162b1f20142e6c02694aed70910160405180910390a16001600160a01b031660805250610188565b61568d806200145583390190565b60006020828403121561013557600080fd5b604051602081016001600160401b038111828210171561016557634e487b7160e01b600052604160045260246000fd5b60405282516001600160a01b038116811461017f57600080fd5b81529392505050565b6080516112b1620001a460003960006102be01526112b16000f3fe608060405234801561001057600080fd5b50600436106100415760003560e01c806305d8d7f6146100465780632ea72a4914610083578063fc91a89714610096575b600080fd5b610059610054366004610457565b6100df565b60405173ffffffffffffffffffffffffffffffffffffffff90911681526020015b60405180910390f35b6100596100913660046104cb565b610185565b6100cf6100a436600461056d565b73ffffffffffffffffffffffffffffffffffffffff1660009081526001602052604090205460ff1690565b604051901515815260200161007a565b60003073ffffffffffffffffffffffffffffffffffffffff16632ea72a498484604051602001610110929190610912565b6040516020818303038152906040526040518263ffffffff1660e01b815260040161013b9190610a9b565b6020604051808303816000875af115801561015a573d6000803e3d6000fd5b505050506040513d601f19601f8201168201806040525081019061017e9190610aae565b9392505050565b6000600260005414156101f9576040517f08c379a000000000000000000000000000000000000000000000000000000000815260206004820152601f60248201527f5265656e7472616e637947756172643a207265656e7472616e742063616c6c0060448201526064015b60405180910390fd5b6002600090815561020a84846102a3565b73ffffffffffffffffffffffffffffffffffffffff811660008181526001602081815260409283902080547fffffffffffffffffffffffffffffffffffffffffffffffffffffffffffffff00169092179091558151338152908101929092529192507f7da70c4e5387d7038610b79ca7d304caaef815826e51e67cf247135387a79bce910160405180910390a160016000559392505050565b600080806102b384860186610eae565b9150915060006102e27f0000000000000000000000000000000000000000000000000000000000000000610375565b6040517f10fbfddf00000000000000000000000000000000000000000000000000000000815290915073ffffffffffffffffffffffffffffffffffffffff8216906310fbfddf906103399086908690600401611184565b600060405180830381600087803b15801561035357600080fd5b505af1158015610367573d6000803e3d6000fd5b509298975050505050505050565b60006040517f3d602d80600a3d3981f3363d3d373d3d3d363d7300000000000000000000000081528260601b60148201527f5af43d82803e903d91602b57fd5bf3000000000000000000000000000000000060288201526037816000f091505073ffffffffffffffffffffffffffffffffffffffff8116610452576040517f08c379a000000000000000000000000000000000000000000000000000000000815260206004820152601660248201527f455243313136373a20637265617465206661696c65640000000000000000000060448201526064016101f0565b919050565b6000806040838503121561046a57600080fd5b823567ffffffffffffffff8082111561048257600080fd5b90840190610100828703121561049757600080fd5b909250602084013590808211156104ad57600080fd5b508301608081860312156104c057600080fd5b809150509250929050565b600080602083850312156104de57600080fd5b823567ffffffffffffffff808211156104f657600080fd5b818501915085601f83011261050a57600080fd5b81358181111561051957600080fd5b86602082850101111561052b57600080fd5b60209290920196919550909350505050565b73ffffffffffffffffffffffffffffffffffffffff8116811461055f57600080fd5b50565b80356104528161053d565b60006020828403121561057f57600080fd5b813561017e8161053d565b600082357fffffffffffffffffffffffffffffffffffffffffffffffffffffffffffffff818336030181126105be57600080fd5b90910192915050565b60008083357fffffffffffffffffffffffffffffffffffffffffffffffffffffffffffffffe18436030181126105fc57600080fd5b830160208101925035905067ffffffffffffffff81111561061c57600080fd5b8060051b360383131561062e57600080fd5b9250929050565b8183528181602085013750600060208284010152600060207fffffffffffffffffffffffffffffffffffffffffffffffffffffffffffffffe0601f840116840101905092915050565b60008083357fffffffffffffffffffffffffffffffffffffffffffffffffffffffffffffffe18436030181126106b357600080fd5b830160208101925035905067ffffffffffffffff8111156106d357600080fd5b80360383131561062e57600080fd5b81835260007f07ffffffffffffffffffffffffffffffffffffffffffffffffffffffffffffff83111561071457600080fd5b8260051b8083602087013760009401602001938452509192915050565b60006080830161074183846105c7565b608086528281845260a08701905060a08260051b88010193508260005b838110156107b9577fffffffffffffffffffffffffffffffffffffffffffffffffffffffffffffff60898703018352610797828661067e565b6107a2888284610635565b97505050602092830192919091019060010161075e565b50505050506107cb60208401846105c7565b85830360208701526107de8382846106e2565b9250505060408301356040850152606083013560608501528091505092915050565b600061080c828361058a565b6080845261081a818261067e565b60808087015261082f61010087018284610635565b91505061083f602083018361067e565b7fffffffffffffffffffffffffffffffffffffffffffffffffffffffffffffff808784030160a0880152610874838284610635565b9250505060408201356108868161053d565b73ffffffffffffffffffffffffffffffffffffffff1660c0860152606082013560e08601526108b760208501610562565b73ffffffffffffffffffffffffffffffffffffffff811660208701529150604084013560408601526108eb60608501610562565b73ffffffffffffffffffffffffffffffffffffffff8116606087015291505b949350505050565b604081526000610922848561058a565b610100806040850152610939610140850183610731565b9150610948602087018761058a565b7fffffffffffffffffffffffffffffffffffffffffffffffffffffffffffffffc08086850301606087015261097d8483610731565b935061098c604089018961058a565b915080868503016080870152506109a38382610731565b9250506109b260608701610562565b73ffffffffffffffffffffffffffffffffffffffff1660a08501526109d960808701610562565b73ffffffffffffffffffffffffffffffffffffffff811660c08601525060a086013560e085015260c0860135818501525060e08501356101208401528281036020840152610a278185610800565b95945050505050565b6000815180845260005b81811015610a5657602081850181015186830182015201610a3a565b81811115610a68576000602083870101525b50601f017fffffffffffffffffffffffffffffffffffffffffffffffffffffffffffffffe0169290920160200192915050565b60208152600061017e6020830184610a30565b600060208284031215610ac057600080fd5b815161017e8161053d565b7f4e487b7100000000000000000000000000000000000000000000000000000000600052604160045260246000fd5b6040516080810167ffffffffffffffff81118282101715610b1d57610b1d610acb565b60405290565b604051610100810167ffffffffffffffff81118282101715610b1d57610b1d610acb565b604051601f82017fffffffffffffffffffffffffffffffffffffffffffffffffffffffffffffffe016810167ffffffffffffffff81118282101715610b8e57610b8e610acb565b604052919050565b600067ffffffffffffffff821115610bb057610bb0610acb565b5060051b60200190565b600067ffffffffffffffff831115610bd457610bd4610acb565b610c0560207fffffffffffffffffffffffffffffffffffffffffffffffffffffffffffffffe0601f86011601610b47565b9050828152838383011115610c1957600080fd5b828260208301376000602084830101529392505050565b600082601f830112610c4157600080fd5b81356020610c56610c5183610b96565b610b47565b82815260059290921b84018101918181019086841115610c7557600080fd5b8286015b84811015610c905780358352918301918301610c79565b509695505050505050565b600060808284031215610cad57600080fd5b610cb5610afa565b9050813567ffffffffffffffff80821115610ccf57600080fd5b818401915084601f830112610ce357600080fd5b81356020610cf3610c5183610b96565b82815260059290921b84018101918181019088841115610d1257600080fd5b8286015b84811015610d5f57803586811115610d2e5760008081fd5b8701603f81018b13610d405760008081fd5b610d518b8683013560408401610bba565b845250918301918301610d16565b5086525085810135935082841115610d7657600080fd5b610d8287858801610c30565b8186015250505050604082013560408201526060820135606082015292915050565b600082601f830112610db557600080fd5b61017e83833560208501610bba565b600060808284031215610dd657600080fd5b610dde610afa565b9050813567ffffffffffffffff80821115610df857600080fd5b9083019060808286031215610e0c57600080fd5b610e14610afa565b823582811115610e2357600080fd5b610e2f87828601610da4565b825250602083013582811115610e4457600080fd5b610e5087828601610da4565b60208301525060408301359150610e668261053d565b81604082015260608301356060820152808452505050610e8860208301610562565b602082015260408201356040820152610ea360608301610562565b606082015292915050565b60008060408385031215610ec157600080fd5b823567ffffffffffffffff80821115610ed957600080fd5b908401906101008287031215610eee57600080fd5b610ef6610b23565b823582811115610f0557600080fd5b610f1188828601610c9b565b825250602083013582811115610f2657600080fd5b610f3288828601610c9b565b602083015250604083013582811115610f4a57600080fd5b610f5688828601610c9b565b604083015250610f6860608401610562565b6060820152610f7960808401610562565b608082015260a083013560a082015260c083013560c082015260e083013560e0820152809450506020850135915080821115610fb457600080fd5b50610fc185828601610dc4565b9150509250929050565b600081518084526020808501945080840160005b83811015610ffb57815187529582019590820190600101610fdf565b509495945050505050565b60006080830182516080855281815180845260a08701915060a08160051b88010193506020808401935060005b8281101561107f577fffffffffffffffffffffffffffffffffffffffffffffffffffffffffffffff6089870301845261106d868651610a30565b95509381019392810192600101611033565b508087015193508785038189015250505061109a8282610fcb565b91505060408301516040850152606083015160608501528091505092915050565b600081516080845280516080808601526110d9610100860182610a30565b905060208201517fffffffffffffffffffffffffffffffffffffffffffffffffffffffffffffff808683030160a08701526111148282610a30565b915050604082015173ffffffffffffffffffffffffffffffffffffffff80821660c0880152606084015160e08801528060208701511660208801525050604084015160408601526060840151915061090a606086018373ffffffffffffffffffffffffffffffffffffffff169052565b60408152600083516101008060408501526111a3610140850183611006565b915060208601517fffffffffffffffffffffffffffffffffffffffffffffffffffffffffffffffc0808685030160608701526111df8483611006565b93506040880151915080868503016080870152506111fd8382611006565b925050606086015161122760a086018273ffffffffffffffffffffffffffffffffffffffff169052565b50608086015173ffffffffffffffffffffffffffffffffffffffff811660c08601525060a086015160e085015260c0860151818501525060e08501516101208401528281036020840152610a2781856110bb56fea2646970667358221220795bd721f1557143190ae74fbe8860be8ac1781990f44d4be3d9117726c28a1864736f6c634300080a00336101c06040523480156200001257600080fd5b506040516200568d3803806200568d833981016040819052620000359162000130565b6001600490815560808190526200004f9060029062000198565b60a0819052620000629060019062000198565b60c0819052620000759060079062000198565b60e0819052620000889060089062000198565b6101008190526200009c9060069062000198565b610120819052620000b09060029062000198565b610140819052620000c49060029062000198565b610160819052620000d89060029062000198565b6101805280516001600160a01b039081166101a05260408051338152835190921660208301527f8c720856cdfa3d0c89d8cf4cd5ccda94282c50fc7d3a9d5613181ce48ede2996910160405180910390a150620001bf565b6000602082840312156200014357600080fd5b604051602081016001600160401b03811182821017156200017457634e487b7160e01b600052604160045260246000fd5b60405282516001600160a01b03811681146200018f57600080fd5b81529392505050565b60008219821115620001ba57634e487b7160e01b600052601160045260246000fd5b500190565b60805160a05160c05160e05161010051610120516101405161016051610180516101a05161541a6200027360003960006105370152600081816122f2015261234801526000818161229c015261231f01526000818161224601526122c90152600081816121f0015261227301526000818161219a015261221d01526000818161214401526121c70152600081816120ee0152612171015260008181612093015261211b015260006120c0015261541a6000f3fe608060405234801561001057600080fd5b50600436106100d45760003560e01c8063cd3293de11610081578063efbe1c1c1161005b578063efbe1c1c146101b4578063f9020e33146101bc578063fc0c546a146101cf57600080fd5b8063cd3293de1461015a578063d48827e914610199578063ec309038146101ac57600080fd5b8063abf3969e116100b2578063abf3969e14610114578063ae10426514610131578063be9a65551461015257600080fd5b806310fbfddf146100d957806315a0ea6a146100ee578063504d14f814610101575b600080fd5b6100ec6100e7366004614529565b6101ed565b005b6100ec6100fc366004614646565b610695565b6100ec61010f366004614663565b610755565b61011c610a60565b60405190151581526020015b60405180910390f35b61014461013f366004614675565b610adb565b604051908152602001610128565b6100ec610b64565b600b5473ffffffffffffffffffffffffffffffffffffffff165b60405173ffffffffffffffffffffffffffffffffffffffff9091168152602001610128565b6100ec6101a736600461468e565b610cb2565b61011c6113ee565b6100ec611415565b60125460ff166040516101289190614771565b600c5473ffffffffffffffffffffffffffffffffffffffff16610174565b600054610100900460ff166102085760005460ff161561020c565b303b155b61029d576040517f08c379a000000000000000000000000000000000000000000000000000000000815260206004820152602e60248201527f496e697469616c697a61626c653a20636f6e747261637420697320616c72656160448201527f647920696e697469616c697a656400000000000000000000000000000000000060648201526084015b60405180910390fd5b600054610100900460ff161580156102dc57600080547fffffffffffffffffffffffffffffffffffffffffffffffffffffffffffff0000166101011790555b6102e98360a00151611662565b6102fe6102f9846000015161171d565b611810565b600660006101000a81548173ffffffffffffffffffffffffffffffffffffffff021916908373ffffffffffffffffffffffffffffffffffffffff16021790555061034e6102f9846020015161171d565b600760006101000a81548173ffffffffffffffffffffffffffffffffffffffff021916908373ffffffffffffffffffffffffffffffffffffffff16021790555061039e6102f9846040015161171d565b600880547fffffffffffffffffffffffff000000000000000000000000000000000000000090811673ffffffffffffffffffffffffffffffffffffffff9384161790915560608581015160058054909316908416179091558301511661046c5760008360c001511161046c576040517f08c379a000000000000000000000000000000000000000000000000000000000815260206004820152600b60248201527f4d494e5f52414953455f300000000000000000000000000000000000000000006044820152606401610294565b60c083015160095560e0830151600a55601280547fffffffffffffffffffffffffffffffffffffffffffffffffffffffffffffff0016905560808084018051600b80547fffffffffffffffffffffffff00000000000000000000000000000000000000001673ffffffffffffffffffffffffffffffffffffffff928316179055845130604091820152805160a08101825292518216835285516020808501919091528087015183168483015281870151606080860191909152870151831694840194909452516000937f000000000000000000000000000000000000000000000000000000000000000090921692632ea72a499261056a92016147f5565b6040516020818303038152906040526040518263ffffffff1660e01b815260040161059591906148f7565b6020604051808303816000875af11580156105b4573d6000803e3d6000fd5b505050506040513d601f19601f820116820180604052508101906105d8919061490a565b600c80547fffffffffffffffffffffffff00000000000000000000000000000000000000001673ffffffffffffffffffffffffffffffffffffffff8316179055835160600151600d556040519091507f2b36a69ed67ed9c9dfb9b31aa4b048e7fad627a62ee67fc08dab1aabbabe636b9061065890339087908590614a03565b60405180910390a150801561069057600080547fffffffffffffffffffffffffffffffffffffffffffffffffffffffffffff00ff1690555b505050565b600260125460ff1660038111156106ae576106ae614707565b14610715576040517f08c379a000000000000000000000000000000000000000000000000000000000815260206004820152600b60248201527f4e4f545f535543434553530000000000000000000000000000000000000000006044820152606401610294565b73ffffffffffffffffffffffffffffffffffffffff80821660009081526015602052604081208054919055600b5490916107519116838361187e565b5050565b600260125460ff16600381111561076e5761076e614707565b14156107d6576040517f08c379a000000000000000000000000000000000000000000000000000000000815260206004820152600e60248201527f524546554e445f535543434553530000000000000000000000000000000000006044820152606401610294565b6000816040516020016107e99190614b73565b604080517fffffffffffffffffffffffffffffffffffffffffffffffffffffffffffffffe081840301815291815281516020928301203360009081526013845282812082825290935291205490915060ff166108a1576040517f08c379a000000000000000000000000000000000000000000000000000000000815260206004820152600f60248201527f494e56414c49445f5245434549505400000000000000000000000000000000006044820152606401610294565b336000908152601360209081526040808320848452909152812080547fffffffffffffffffffffffffffffffffffffffffffffffffffffffffffffff00169055670de0b6b3a76400006108fc60608501356080860135614bb0565b6109069190614c1c565b905080600e600082825461091a9190614c30565b925050819055508260600135600d60008282546109379190614c47565b9091555050604083018035906015906000906109569060208801614646565b73ffffffffffffffffffffffffffffffffffffffff1673ffffffffffffffffffffffffffffffffffffffff168152602001908152602001600020600082825461099f9190614c30565b909155506000905060125460ff1660038111156109be576109be614707565b14156109cc576109cc611952565b7f92f85a40e83c8d882fe8d6e484c07c775950072962f3b22dd739834849a5a32433846040516109fd929190614c5f565b60405180910390a1600c54610a2e9073ffffffffffffffffffffffffffffffffffffffff1633306060870135611af1565b61069033610a40604086013584614c47565b600b5473ffffffffffffffffffffffffffffffffffffffff16919061187e565b6007546000908190610a879073ffffffffffffffffffffffffffffffffffffffff16611b55565b9050610aa460405180602001604052806000815250826000611ba9565b6000816020015160018360000151610abc9190614c30565b81518110610acc57610acc614c89565b60200260200101511191505090565b6008546000908190610b029073ffffffffffffffffffffffffffffffffffffffff16611b55565b9050610b3183604051602001610b1a91815260200190565b604051602081830303815290604052826000611ba9565b60208101518151610b4490600190614c30565b81518110610b5457610b54614c89565b6020026020010151915050919050565b600060125460ff166003811115610b7d57610b7d614707565b14610be4576040517f08c379a000000000000000000000000000000000000000000000000000000000815260206004820152600b60248201527f4e4f545f50454e44494e470000000000000000000000000000000000000000006044820152606401610294565b610bec6113ee565b610c52576040517f08c379a000000000000000000000000000000000000000000000000000000000815260206004820152600a60248201527f43414e545f5354415254000000000000000000000000000000000000000000006044820152606401610294565b601280547fffffffffffffffffffffffffffffffffffffffffffffffffffffffffffffff001660011790556040513381527f84d0447ca38875fa61115673259a210915bc1dd53a3c112d6f0790f15956a9659060200160405180910390a1565b60035460009073ffffffffffffffffffffffffffffffffffffffff1615610cf15760035473ffffffffffffffffffffffffffffffffffffffff16610d1f565b600380547fffffffffffffffffffffffff000000000000000000000000000000000000000016339081179091555b73ffffffffffffffffffffffffffffffffffffffff8116600090815260026020526040902054909150431015610db1576040517f08c379a000000000000000000000000000000000000000000000000000000000815260206004820152600860248201527f434f4f4c444f574e0000000000000000000000000000000000000000000000006044820152606401610294565b600060015443610dc19190614c47565b73ffffffffffffffffffffffffffffffffffffffff8316600081815260026020908152604091829020849055815192835282018390529192507fdd9ec76fd04aab7ee6b385c04a7bdf966620500e72b134bfc3f19654fae20f25910160405180910390a160026004541415610e92576040517f08c379a000000000000000000000000000000000000000000000000000000000815260206004820152601f60248201527f5265656e7472616e637947756172643a207265656e7472616e742063616c6c006044820152606401610294565b60026004556060830151610f02576040517f08c379a000000000000000000000000000000000000000000000000000000000815260206004820152600960248201527f305f4445534952454400000000000000000000000000000000000000000000006044820152606401610294565b826060015183604001511115610f74576040517f08c379a000000000000000000000000000000000000000000000000000000000815260206004820152601460248201527f4d494e494d554d5f4f5645525f444553495245440000000000000000000000006044820152606401610294565b600160125460ff166003811115610f8d57610f8d614707565b14610ff4576040517f08c379a000000000000000000000000000000000000000000000000000000000815260206004820152600a60248201527f4e4f545f414354495645000000000000000000000000000000000000000000006044820152606401610294565b600061101d8460400151611017600d548760600151611d3e90919063ffffffff16565b90611d56565b9050600d5481111561108b576040517f08c379a000000000000000000000000000000000000000000000000000000000815260206004820152601260248201527f494e53554646494349454e545f53544f434b00000000000000000000000000006044820152606401610294565b600061109682610adb565b90508460800151811115611106576040517f08c379a000000000000000000000000000000000000000000000000000000000815260206004820152600d60248201527f4d4158494d554d5f5052494345000000000000000000000000000000000000006044820152606401610294565b6000670de0b6b3a764000061111b8484614bb0565b6111259190614c1c565b6040805160a081018252601480548083528a5173ffffffffffffffffffffffffffffffffffffffff166020808501919091528b015193830193909352606082018790526080820186905292935091600061117e83614cb8565b9091555050336000908152601360209081526040808320905160019391926111a891869101614cf1565b604080518083037fffffffffffffffffffffffffffffffffffffffffffffffffffffffffffffffe00181529181528151602092830120835282820193909352908201600090812080547fffffffffffffffffffffffffffffffffffffffffffffffffffffffffffffff001694151594909417909355898101518a5173ffffffffffffffffffffffffffffffffffffffff1684526015909152908220805491929091611254908490614c47565b9250508190555083600d600082825461126d9190614c30565b9250508190555081600e60008282546112869190614c47565b909155505043600f556010849055601183905560208701516112d190339030906112b09086614c47565b600b5473ffffffffffffffffffffffffffffffffffffffff16929190611af1565b600c546112f59073ffffffffffffffffffffffffffffffffffffffff16338661187e565b6001600d54101561130d57611308611415565b61137d565b600a54600d54101561137d576040517f08c379a00000000000000000000000000000000000000000000000000000000081526004016102949060208082526004908201527f4455535400000000000000000000000000000000000000000000000000000000604082015260600190565b7fde28bbdf409354cf811d2e1f52147a0a2a1b89be5848c4b5a41587f63b7cfa6a3388836040516113b093929190614d40565b60405180910390a1505060016004555050600380547fffffffffffffffffffffffff0000000000000000000000000000000000000000169055505050565b6006546000908190610a879073ffffffffffffffffffffffffffffffffffffffff16611b55565b600160125460ff16600381111561142e5761142e614707565b14611495576040517f08c379a000000000000000000000000000000000000000000000000000000000815260206004820152600a60248201527f4e4f545f414354495645000000000000000000000000000000000000000000006044820152606401610294565b6001600d5410806114a957506114a9610a60565b61150f576040517f08c379a000000000000000000000000000000000000000000000000000000000815260206004820152600860248201527f43414e545f454e440000000000000000000000000000000000000000000000006044820152606401610294565b6000600d819055600954600e541015908161152b57600361152e565b60025b90507f9aef4e6c636914c533cde859f632ab5e2b68cfd8f06b6a2e18f89783f00072cd3382604051611561929190614de3565b60405180910390a1601280548291907fffffffffffffffffffffffffffffffffffffffffffffffffffffffffffffff001660018360038111156115a6576115a6614707565b0217905550600c546040517f8b24259b00000000000000000000000000000000000000000000000000000000815230600482015273ffffffffffffffffffffffffffffffffffffffff90911690638b24259b90602401600060405180830381600087803b15801561161657600080fd5b505af115801561162a573d6000803e3d6000fd5b50505050811561075157600554600e54600b546107519273ffffffffffffffffffffffffffffffffffffffff9182169291169061187e565b600081116116cc576040517f08c379a000000000000000000000000000000000000000000000000000000000815260206004820152600a60248201527f434f4f4c444f574e5f30000000000000000000000000000000000000000000006044820152606401610294565b600154156116dc576116dc614e0d565b600181905560408051338152602081018390527f6153539ba1c54ed4ef5b6f1fda4b7183eeaa1b5707c152abed56f61e09452521910160405180910390a150565b61174f6040518060a0016040528060008152602001606081526020016060815260200160608152602001606081525090565b6040518060a0016040528060008152602001836040015167ffffffffffffffff81111561177e5761177e6140e5565b6040519080825280602002602001820160405280156117a7578160200160208202803683370190505b5081526020018360000151815260200183602001518152602001836060015167ffffffffffffffff8111156117de576117de6140e5565b604051908082528060200260200182016040528015611807578160200160208202803683370190505b50905292915050565b60008061183b836040516020016118279190614ea8565b604051602081830303815290604052611d66565b90507ff95eed63f55d96a35306669cc3b5f652f8d44552e3e4b17b2f78f13571114abd33828560405161187093929190614ebb565b60405180910390a192915050565b60405173ffffffffffffffffffffffffffffffffffffffff83166024820152604481018290526106909084907fa9059cbb00000000000000000000000000000000000000000000000000000000906064015b604080517fffffffffffffffffffffffffffffffffffffffffffffffffffffffffffffffe08184030181529190526020810180517bffffffffffffffffffffffffffffffffffffffffffffffffffffffff167fffffffff0000000000000000000000000000000000000000000000000000000090931692909217909152611df1565b60035460009073ffffffffffffffffffffffffffffffffffffffff16156119915760035473ffffffffffffffffffffffffffffffffffffffff166119bf565b600380547fffffffffffffffffffffffff000000000000000000000000000000000000000016339081179091555b73ffffffffffffffffffffffffffffffffffffffff8116600090815260026020526040902054909150431015611a51576040517f08c379a000000000000000000000000000000000000000000000000000000000815260206004820152600860248201527f434f4f4c444f574e0000000000000000000000000000000000000000000000006044820152606401610294565b600060015443611a619190614c47565b73ffffffffffffffffffffffffffffffffffffffff8316600081815260026020908152604091829020849055815192835282018390529192507fdd9ec76fd04aab7ee6b385c04a7bdf966620500e72b134bfc3f19654fae20f25910160405180910390a15050600380547fffffffffffffffffffffffff0000000000000000000000000000000000000000169055565b60405173ffffffffffffffffffffffffffffffffffffffff80851660248301528316604482015260648101829052611b4f9085907f23b872dd00000000000000000000000000000000000000000000000000000000906084016118d0565b50505050565b611b876040518060a0016040528060008152602001606081526020016060815260200160608152602001606081525090565b611b9082611efd565b806020019051810190611ba3919061500b565b92915050565b602082810151604084015183830201909101516060840151608085015182516000948594859492939092915b84881015611d31576002880197508784015180601e1a975080601f1a9650506004871015611d25576001871415611c38578160808716611c125750825b8a516020607f89160260200182015160208202602001840152600181018c525050611bd5565b6002871415611c635789516020870260200182015160208202602001830152600181018b5250611bd5565b6003871415611c7c57611c778b8b88611f2b565b611bd5565b607f6101fe600188901b161786166080871615611ce8578a517fffffffffffffffffffffffffffffffffffffffffffffffffffffffffffffffff01808c5260208c015180519091908110611cd257611cd2614c89565b602002602001015160001415611ce85750611bd5565b8060000b600014611d1f5760008160000b1215611d1357801960020160020260ff1689039850611d1f565b8060020260ff16890198505b50611bd5565b611c778b8b8989612091565b5050505050505050505050565b6000818310611d4d5781611d4f565b825b9392505050565b600081831015611d4d5781611d4f565b600080611d9183604051602001611d7d91906150ee565b604051602081830303815290604052612570565b90508051602082016000f0915073ffffffffffffffffffffffffffffffffffffffff8216611deb576040517f08d4abb600000000000000000000000000000000000000000000000000000000815260040160405180910390fd5b50919050565b6000611e53826040518060400160405280602081526020017f5361666545524332303a206c6f772d6c6576656c2063616c6c206661696c65648152508573ffffffffffffffffffffffffffffffffffffffff1661259c9092919063ffffffff16565b8051909150156106905780806020019051810190611e719190615114565b610690576040517f08c379a000000000000000000000000000000000000000000000000000000000815260206004820152602a60248201527f5361666545524332303a204552433230206f7065726174696f6e20646964206e60448201527f6f742073756363656564000000000000000000000000000000000000000000006064820152608401610294565b6060611ba38260017fffffffffffffffffffffffffffffffffffffffffffffffffffffffffffffffff6125b3565b81517fffffffffffffffffffffffffffffffffffffffffffffffffffffffffffffffff600583901c918290030183526007821690610100600384811c1681901c91908290039060010160008167ffffffffffffffff811115611f8f57611f8f6140e5565b604051908082528060200260200182016040528015611fb8578160200160208202803683370190505b50905060005b8281101561200f5787602001518189600001510181518110611fe257611fe2614c89565b6020026020010151828281518110611ffc57611ffc614c89565b6020908102919091010152600101611fbe565b5060005b6101008110156120865760005b83811015612073578482860384838151811061203e5761203e614c89565b6020026020010151901b901c8960800151828151811061206057612060614c89565b6020908102919091010152600101612020565b5061207f898988611ba9565b8401612013565b505050505050505050565b7f00000000000000000000000000000000000000000000000000000000000000008210156120ec576120e784847f000000000000000000000000000000000000000000000000000000000000000085038461269b565b611b4f565b7f0000000000000000000000000000000000000000000000000000000000000000821015612142576120e784847f0000000000000000000000000000000000000000000000000000000000000000850384612760565b7f0000000000000000000000000000000000000000000000000000000000000000821015612198576120e784847f00000000000000000000000000000000000000000000000000000000000000008503846127e5565b7f00000000000000000000000000000000000000000000000000000000000000008210156121ee576120e784847f00000000000000000000000000000000000000000000000000000000000000008503846129f5565b7f0000000000000000000000000000000000000000000000000000000000000000821015612244576120e784847f0000000000000000000000000000000000000000000000000000000000000000850384612d3f565b7f000000000000000000000000000000000000000000000000000000000000000082101561229a576120e784847f000000000000000000000000000000000000000000000000000000000000000085038461323c565b7f00000000000000000000000000000000000000000000000000000000000000008210156122f0576120e784847f00000000000000000000000000000000000000000000000000000000000000008503846134c3565b7f0000000000000000000000000000000000000000000000000000000000000000821015612346576120e784847f0000000000000000000000000000000000000000000000000000000000000000850384613672565b7f000000000000000000000000000000000000000000000000000000000000000082039150600882106123d5576040517f08c379a000000000000000000000000000000000000000000000000000000000815260206004820152600a60248201527f4d41585f4f50434f4445000000000000000000000000000000000000000000006044820152606401610294565b8161240557600d5460208401518451815181106123f4576123f4614c89565b602002602001018181525050612564565b600182141561242857600e5460208401518451815181106123f4576123f4614c89565b600282141561244b57600f5460208401518451815181106123f4576123f4614c89565b600382141561246e5760105460208401518451815181106123f4576123f4614c89565b60048214156124915760115460208401518451815181106123f4576123f4614c89565b60058214156124df576000848060200190518101906124b09190615136565b90508084602001518560000151815181106124cd576124cd614c89565b60200260200101818152505050612564565b600682141561251b57600c5460208401518451815173ffffffffffffffffffffffffffffffffffffffff9093169281106123f4576123f4614c89565b600782141561256457600b5460208401518451815173ffffffffffffffffffffffffffffffffffffffff90931692811061255757612557614c89565b6020026020010181815250505b50508051600101905250565b606081518260405160200161258692919061514f565b6040516020818303038152906040529050919050565b60606125ab8484600085613afb565b949350505050565b6060833b806125d2575050604080516020810190915260008152611d4f565b808411156125f0575050604080516020810190915260008152611d4f565b8383101561263b576040517f2c4a89fa000000000000000000000000000000000000000000000000000000008152600481018290526024810185905260448101849052606401610294565b83830384820360008282106126505782612652565b815b60408051603f83017fffffffffffffffffffffffffffffffffffffffffffffffffffffffffffffffe0168101909152818152955090508087602087018a3c505050509392505050565b60028210612705576040517f08c379a000000000000000000000000000000000000000000000000000000000815260206004820152600a60248201527f4d41585f4f50434f4445000000000000000000000000000000000000000000006044820152606401610294565b8161273c5743836020015184600001518151811061272557612725614c89565b602090810291909101015282516001018352611b4f565b6001821415611b4f5742836020015184600001518151811061255757612557614c89565b600182106127ca576040517f08c379a000000000000000000000000000000000000000000000000000000000815260206004820152600a60248201527f4d41585f4f50434f4445000000000000000000000000000000000000000000006044820152606401610294565b60208301518351815133929190811061255757612557614c89565b6007821061284f576040517f08c379a000000000000000000000000000000000000000000000000000000000815260206004820152600a60248201527f4d41585f4f50434f4445000000000000000000000000000000000000000000006044820152606401610294565b8251602080850151818302010183801561289857600181146128c55760028114612930576003811461294a5760048114612964576005811461297e57600681146129b6576129ec565b7fffffffffffffffffffffffffffffffffffffffffffffffffffffffffffffffe0820180511590526129ec565b7ffffffffffffffffffffffffffffffffffffffffffffffffffffffffffffffffe830186527fffffffffffffffffffffffffffffffffffffffffffffffffffffffffffffffa08201805180156129215760208201518252612929565b604082015182525b50506129ec565b6001830386526040820360208101518151148152506129ec565b6001830386526040820360208101518151108152506129ec565b6001830386526040820360208101518151118152506129ec565b83156129b1576001840383038652602084028203805b838110156129295780516129a9575060008152825b602001612994565b6129ec565b83156129ec576001840383038652602084028203805b8381101561208657805180156129e3578491508083525b506020016129cc565b50505050505050565b60088210612a5f576040517f08c379a000000000000000000000000000000000000000000000000000000000815260206004820152600a60248201527f4d41585f4f50434f4445000000000000000000000000000000000000000000006044820152606401610294565b8251818103808552602085015180517fffffffffffffffffffffffffffffffffffffffffffffffffffffffffffffffff90930192829160009183908110612aa857612aa8614c89565b602002602001015190506000861415612b00575b83821015612afb576020870151805160019093019283908110612ae157612ae1614c89565b602002602001015181612af49190614c47565b9050612abc565b612d0c565b6001861415612b49575b83821015612afb576020870151805160019093019283908110612b2f57612b2f614c89565b602002602001015181612b429190614c30565b9050612b0a565b6002861415612b92575b83821015612afb576020870151805160019093019283908110612b7857612b78614c89565b602002602001015181612b8b9190614bb0565b9050612b53565b6003861415612bdb575b83821015612afb576020870151805160019093019283908110612bc157612bc1614c89565b602002602001015181612bd49190614c1c565b9050612b9c565b6004861415612c24575b83821015612afb576020870151805160019093019283908110612c0a57612c0a614c89565b602002602001015181612c1d91906151e6565b9050612be5565b6005861415612c6c575b83821015612afb576020870151805160019093019283908110612c5357612c53614c89565b602002602001015181612c66919061531a565b50612c2e565b6006861415612cbe5760005b84831015612cb8576020880151805160019094019384908110612c9d57612c9d614c89565b6020026020010151905081811015612cb3578091505b612c78565b50612d0c565b6007861415612d0c5760005b84831015612d0a576020880151805160019094019384908110612cef57612cef614c89565b6020026020010151905081811115612d05578091505b612cca565b505b8087602001518481518110612d2357612d23614c89565b6020908102919091010152505084516001019094525050505050565b60068210612da9576040517f08c379a000000000000000000000000000000000000000000000000000000000815260206004820152600a60248201527f4d41585f4f50434f4445000000000000000000000000000000000000000000006044820152606401610294565b600082612ef8575082517fffffffffffffffffffffffffffffffffffffffffffffffffffffffffffffffff81018452602084015180517ffffffffffffffffffffffffffffffffffffffffffffffffffffffffffffffffe9092019182908110612e1457612e14614c89565b602002602001015173ffffffffffffffffffffffffffffffffffffffff1663e053ea3185602001518360010181518110612e5057612e50614c89565b60200260200101516040518263ffffffff1660e01b8152600401612e90919073ffffffffffffffffffffffffffffffffffffffff91909116815260200190565b602060405180830381865afa158015612ead573d6000803e3d6000fd5b505050506040513d601f19601f82011682018060405250810190612ed19190615136565b84602001518281518110612ee757612ee7614c89565b602002602001018181525050613235565b6001831415612f53577fffffffffffffffffffffffffffffffffffffffffffffffffffffffffffffffff8460200151856000015181518110612f3c57612f3c614c89565b602090810291909101015283516001018452613235565b6002831415612f785760008460200151856000015181518110612f3c57612f3c614c89565b600383141561302c575082517ffffffffffffffffffffffffffffffffffffffffffffffffffffffffffffffffe01808452602084015180516000919083908110612fc457612fc4614c89565b60200260200101519050600085602001518360010181518110612fe957612fe9614c89565b60200260200101519050612ffd8282613c7b565b8660200151848151811061301357613013614c89565b6020908102919091010152505083516001018452613235565b60048314156130f4575082517ffffffffffffffffffffffffffffffffffffffffffffffffffffffffffffffffe0180845260208401518051600f80851692600486901c90911691600091908590811061308757613087614c89565b602002602001015190506000876020015185600101815181106130ac576130ac614c89565b602002602001015190506130c282858584613cda565b886020015186815181106130d8576130d8614c89565b6020908102919091010152505085516001018652506132359050565b6005831415613235575082517fffffffffffffffffffffffffffffffffffffffffffffffffffffffffffffffff601f8316918290030180855290600783901c906003600585901c16908360008267ffffffffffffffff811115613159576131596140e5565b604051908082528060200260200182016040528015613182578160200160208202803683370190505b50905060005b838110156131d757896020015183815181106131a6576131a6614c89565b60200260200101518282815181106131c0576131c0614c89565b602090810291909101015260019283019201613188565b506000896020015183815181106131f0576131f0614c89565b6020026020010151905061320682828888613ded565b8a60200151888151811061321c5761321c614c89565b6020908102919091010152505087516001018852505050505b5050505050565b600282106132a6576040517f08c379a000000000000000000000000000000000000000000000000000000000815260206004820152600a60248201527f4d41585f4f50434f4445000000000000000000000000000000000000000000006044820152606401610294565b816133f85782517fffffffffffffffffffffffffffffffffffffffffffffffffffffffffffffffff810184526020840151805190917ffffffffffffffffffffffffffffffffffffffffffffffffffffffffffffffffe0190811061330c5761330c614c89565b602002602001015173ffffffffffffffffffffffffffffffffffffffff166370a08231846020015185600001518151811061334957613349614c89565b60200260200101516040518263ffffffff1660e01b8152600401613389919073ffffffffffffffffffffffffffffffffffffffff91909116815260200190565b602060405180830381865afa1580156133a6573d6000803e3d6000fd5b505050506040513d601f19601f820116820180604052508101906133ca9190615136565b83602001516001856000015103815181106133e7576133e7614c89565b602002602001018181525050611b4f565b6001821415611b4f57826020015160018460000151038151811061341e5761341e614c89565b602002602001015173ffffffffffffffffffffffffffffffffffffffff166318160ddd6040518163ffffffff1660e01b8152600401602060405180830381865afa158015613470573d6000803e3d6000fd5b505050506040513d601f19601f820116820180604052508101906134949190615136565b83602001516001856000015103815181106134b1576134b1614c89565b60200260200101818152505050505050565b6002821061352d576040517f08c379a000000000000000000000000000000000000000000000000000000000815260206004820152600a60248201527f4d41585f4f50434f4445000000000000000000000000000000000000000000006044820152606401610294565b82517fffffffffffffffffffffffffffffffffffffffffffffffffffffffffffffffff0183528161357557826020015160018460000151038151811061330c5761330c614c89565b6001821415611b4f57826020015160018460000151038151811061359b5761359b614c89565b602002602001015173ffffffffffffffffffffffffffffffffffffffff16636352211e84602001518560000151815181106135d8576135d8614c89565b60200260200101516040518263ffffffff1660e01b81526004016135fe91815260200190565b602060405180830381865afa15801561361b573d6000803e3d6000fd5b505050506040513d601f19601f8201168201806040525081019061363f919061490a565b73ffffffffffffffffffffffffffffffffffffffff1683602001516001856000015103815181106134b1576134b1614c89565b600282106136dc576040517f08c379a000000000000000000000000000000000000000000000000000000000815260206004820152600a60248201527f4d41585f4f50434f4445000000000000000000000000000000000000000000006044820152606401610294565b8161384f5782517ffffffffffffffffffffffffffffffffffffffffffffffffffffffffffffffffe81018452602084015180517ffffffffffffffffffffffffffffffffffffffffffffffffffffffffffffffffd909201918290811061374457613744614c89565b602002602001015173ffffffffffffffffffffffffffffffffffffffff1662fdd58e8560200151836001018151811061377f5761377f614c89565b6020026020010151866020015184600201815181106137a0576137a0614c89565b60200260200101516040518363ffffffff1660e01b81526004016137e692919073ffffffffffffffffffffffffffffffffffffffff929092168252602082015260400190565b602060405180830381865afa158015613803573d6000803e3d6000fd5b505050506040513d601f19601f820116820180604052508101906138279190615136565b8460200151828151811061383d5761383d614c89565b60200260200101818152505050611b4f565b6001821415611b4f576001810160008167ffffffffffffffff811115613877576138776140e5565b6040519080825280602002602001820160405280156138a0578160200160208202803683370190505b50905060008267ffffffffffffffff8111156138be576138be6140e5565b6040519080825280602002602001820160405280156138e7578160200160208202803683370190505b5086518490037fffffffffffffffffffffffffffffffffffffffffffffffffffffffffffffffff818101895260208901518051939450918690030191600091908390811061393757613937614c89565b6020026020010151905060005b858110156139ee5788602001518184016001018151811061396757613967614c89565b602002602001015185828151811061398157613981614c89565b73ffffffffffffffffffffffffffffffffffffffff909216602092830291909101820152890151805160018589018401019081106139c1576139c1614c89565b60200260200101518482815181106139db576139db614c89565b6020908102919091010152600101613944565b506040517f4e1273f400000000000000000000000000000000000000000000000000000000815260009073ffffffffffffffffffffffffffffffffffffffff831690634e1273f490613a469088908890600401615326565b600060405180830381865afa158015613a63573d6000803e3d6000fd5b505050506040513d6000823e601f3d9081017fffffffffffffffffffffffffffffffffffffffffffffffffffffffffffffffe0168201604052613aa99190810190615393565b905060005b86811015611d3157818181518110613ac857613ac8614c89565b60200260200101518a6020015182860181518110613ae857613ae8614c89565b6020908102919091010152600101613aae565b606082471015613b8d576040517f08c379a000000000000000000000000000000000000000000000000000000000815260206004820152602660248201527f416464726573733a20696e73756666696369656e742062616c616e636520666f60448201527f722063616c6c00000000000000000000000000000000000000000000000000006064820152608401610294565b843b613bf5576040517f08c379a000000000000000000000000000000000000000000000000000000000815260206004820152601d60248201527f416464726573733a2063616c6c20746f206e6f6e2d636f6e74726163740000006044820152606401610294565b6000808673ffffffffffffffffffffffffffffffffffffffff168587604051613c1e91906153c8565b60006040518083038185875af1925050503d8060008114613c5b576040519150601f19603f3d011682016040523d82523d6000602084013e613c60565b606091505b5091509150613c70828286613f3d565b979650505050505050565b60008060015b60088111613cd2576000613c958683613f90565b90506000613ca38684613f90565b90506000613cb18383614045565b9050613cc185600186038361405b565b94505060019092019150613c819050565b509392505050565b6000836008811115613d48576040517f08c379a000000000000000000000000000000000000000000000000000000000815260206004820152600860248201527f4d41585f544945520000000000000000000000000000000000000000000000006044820152606401610294565b836008811115613db4576040517f08c379a000000000000000000000000000000000000000000000000000000000815260206004820152600860248201527f4d41585f544945520000000000000000000000000000000000000000000000006044820152606401610294565b6000865b86811015613de05763ffffffff6020820290811b1999909916868a1b17989150600101613db8565b5096979650505050505050565b835160009081908190819060015b60088111613f2f57600092508287613e3457507fffffffffffffffffffffffffffffffffffffffffffffffffffffffffffffffff613e38565b5060005b60005b83811015613eed57613e668c8281518110613e5857613e58614c89565b602002602001015184613f90565b95508a8611613eb85788613e8557613e7e8683611d3e565b9150613eaf565b6001891415613e9857613e7e8683611d56565b600289148015613ea6575084155b15613eaf578591505b60019450613ee5565b89613ee5577fffffffffffffffffffffffffffffffffffffffffffffffffffffffffffffffff9150613eed565b600101613e3b565b5083613f1657507fffffffffffffffffffffffffffffffffffffffffffffffffffffffffffffffff5b613f2486600184038361405b565b955050600101613dfb565b509298975050505050505050565b60608315613f4c575081611d4f565b825115613f5c5782518084602001fd5b816040517f08c379a000000000000000000000000000000000000000000000000000000000815260040161029491906148f7565b6000816008811115613ffe576040517f08c379a000000000000000000000000000000000000000000000000000000000815260206004820152600860248201527f4d41585f544945520000000000000000000000000000000000000000000000006044820152606401610294565b8261400c576000915061403e565b63ffffffff60207fffffffffffffffffffffffffffffffffffffffffffffffffffffffffffffffff85010285901c1691505b5092915050565b6000818311614055576000611d4f565b50900390565b60008260088111156140c9576040517f08c379a000000000000000000000000000000000000000000000000000000000815260206004820152600860248201527f4d41585f544945520000000000000000000000000000000000000000000000006044820152606401610294565b505060209190910290811b63ffffffff90911b19919091161790565b7f4e487b7100000000000000000000000000000000000000000000000000000000600052604160045260246000fd5b6040516080810167ffffffffffffffff81118282101715614137576141376140e5565b60405290565b604051610100810167ffffffffffffffff81118282101715614137576141376140e5565b60405160a0810167ffffffffffffffff81118282101715614137576141376140e5565b604051601f82017fffffffffffffffffffffffffffffffffffffffffffffffffffffffffffffffe016810167ffffffffffffffff811182821017156141cb576141cb6140e5565b604052919050565b600067ffffffffffffffff8211156141ed576141ed6140e5565b5060051b60200190565b600067ffffffffffffffff821115614211576142116140e5565b50601f017fffffffffffffffffffffffffffffffffffffffffffffffffffffffffffffffe01660200190565b600061425061424b846141f7565b614184565b905082815283838301111561426457600080fd5b828260208301376000602084830101529392505050565b600082601f83011261428c57600080fd5b8135602061429c61424b836141d3565b82815260059290921b840181019181810190868411156142bb57600080fd5b8286015b848110156142d657803583529183019183016142bf565b509695505050505050565b6000608082840312156142f357600080fd5b6142fb614114565b9050813567ffffffffffffffff8082111561431557600080fd5b818401915084601f83011261432957600080fd5b8135602061433961424b836141d3565b82815260059290921b8401810191818101908884111561435857600080fd5b8286015b848110156143a5578035868111156143745760008081fd5b8701603f81018b136143865760008081fd5b6143978b868301356040840161423d565b84525091830191830161435c565b50865250858101359350828411156143bc57600080fd5b6143c88785880161427b565b8186015250505050604082013560408201526060820135606082015292915050565b73ffffffffffffffffffffffffffffffffffffffff8116811461440c57600080fd5b50565b803561441a816143ea565b919050565b600082601f83011261443057600080fd5b611d4f8383356020850161423d565b60006080828403121561445157600080fd5b614459614114565b9050813567ffffffffffffffff8082111561447357600080fd5b908301906080828603121561448757600080fd5b61448f614114565b82358281111561449e57600080fd5b6144aa8782860161441f565b8252506020830135828111156144bf57600080fd5b6144cb8782860161441f565b602083015250604083013591506144e1826143ea565b816040820152606083013560608201528084525050506145036020830161440f565b60208201526040820135604082015261451e6060830161440f565b606082015292915050565b6000806040838503121561453c57600080fd5b823567ffffffffffffffff8082111561455457600080fd5b90840190610100828703121561456957600080fd5b61457161413d565b82358281111561458057600080fd5b61458c888286016142e1565b8252506020830135828111156145a157600080fd5b6145ad888286016142e1565b6020830152506040830135828111156145c557600080fd5b6145d1888286016142e1565b6040830152506145e36060840161440f565b60608201526145f46080840161440f565b608082015260a083013560a082015260c083013560c082015260e083013560e082015280945050602085013591508082111561462f57600080fd5b5061463c8582860161443f565b9150509250929050565b60006020828403121561465857600080fd5b8135611d4f816143ea565b600060a08284031215611deb57600080fd5b60006020828403121561468757600080fd5b5035919050565b600060a082840312156146a057600080fd5b60405160a0810181811067ffffffffffffffff821117156146c3576146c36140e5565b60405282356146d1816143ea565b80825250602083013560208201526040830135604082015260608301356060820152608083013560808201528091505092915050565b7f4e487b7100000000000000000000000000000000000000000000000000000000600052602160045260246000fd5b6004811061476d577f4e487b7100000000000000000000000000000000000000000000000000000000600052602160045260246000fd5b9052565b60208101611ba38284614736565b60005b8381101561479a578181015183820152602001614782565b83811115611b4f5750506000910152565b600081518084526147c381602086016020860161477f565b601f017fffffffffffffffffffffffffffffffffffffffffffffffffffffffffffffffe0169290920160200192915050565b60208152600073ffffffffffffffffffffffffffffffffffffffff808451166020840152602084015160a060408501528051608060c086015261483c6101408601826147ab565b905060208201517fffffffffffffffffffffffffffffffffffffffffffffffffffffffffffffff408683030160e087015261487782826147ab565b915050826040830151166101008601526060820151610120860152604086015192506148bb606086018473ffffffffffffffffffffffffffffffffffffffff169052565b60608601516080860152608086015192506148ee60a086018473ffffffffffffffffffffffffffffffffffffffff169052565b95945050505050565b602081526000611d4f60208301846147ab565b60006020828403121561491c57600080fd5b8151611d4f816143ea565b6000815180845260208085019450848260051b860182860160005b8581101561496c57838303895261495a8383516147ab565b98850198925090840190600101614942565b5090979650505050505050565b600081518084526020808501945080840160005b838110156149a95781518752958201959082019060010161498d565b509495945050505050565b60008151608084526149c96080850182614927565b9050602083015184820360208601526149e28282614979565b91505060408301516040850152606083015160608501528091505092915050565b73ffffffffffffffffffffffffffffffffffffffff841681526060602082015260008351610100806060850152614a3e6101608501836149b4565b915060208601517fffffffffffffffffffffffffffffffffffffffffffffffffffffffffffffffa080868503016080870152614a7a84836149b4565b935060408801519150808685030160a087015250614a9883826149b4565b9250506060860151614ac260c086018273ffffffffffffffffffffffffffffffffffffffff169052565b50608086015173ffffffffffffffffffffffffffffffffffffffff811660e08601525060a08601519084015260c085015161012084015260e085015161014084015273ffffffffffffffffffffffffffffffffffffffff8416604084015290506125ab565b803582526020810135614b39816143ea565b73ffffffffffffffffffffffffffffffffffffffff1660208301526040818101359083015260608082013590830152608090810135910152565b60a08101611ba38284614b27565b7f4e487b7100000000000000000000000000000000000000000000000000000000600052601160045260246000fd5b6000817fffffffffffffffffffffffffffffffffffffffffffffffffffffffffffffffff0483118215151615614be857614be8614b81565b500290565b7f4e487b7100000000000000000000000000000000000000000000000000000000600052601260045260246000fd5b600082614c2b57614c2b614bed565b500490565b600082821015614c4257614c42614b81565b500390565b60008219821115614c5a57614c5a614b81565b500190565b73ffffffffffffffffffffffffffffffffffffffff8316815260c08101611d4f6020830184614b27565b7f4e487b7100000000000000000000000000000000000000000000000000000000600052603260045260246000fd5b60007fffffffffffffffffffffffffffffffffffffffffffffffffffffffffffffffff821415614cea57614cea614b81565b5060010190565b60a08101611ba382848051825273ffffffffffffffffffffffffffffffffffffffff60208201511660208301526040810151604083015260608101516060830152608081015160808301525050565b60006101608201905073ffffffffffffffffffffffffffffffffffffffff808616835280855116602084015250602084015160408301526040840151606083015260608401516080830152608084015160a08301526125ab60c08301848051825273ffffffffffffffffffffffffffffffffffffffff60208201511660208301526040810151604083015260608101516060830152608081015160808301525050565b73ffffffffffffffffffffffffffffffffffffffff8316815260408101611d4f6020830184614736565b7f4e487b7100000000000000000000000000000000000000000000000000000000600052600160045260246000fd5b805182526000602082015160a06020850152614e5b60a0850182614979565b905060408301518482036040860152614e748282614927565b91505060608301518482036060860152614e8e8282614979565b915050608083015184820360808601526148ee8282614979565b602081526000611d4f6020830184614e3c565b600073ffffffffffffffffffffffffffffffffffffffff8086168352808516602084015250606060408301526148ee6060830184614e3c565b600082601f830112614f0557600080fd5b81516020614f1561424b836141d3565b82815260059290921b84018101918181019086841115614f3457600080fd5b8286015b848110156142d65780518352918301918301614f38565b600082601f830112614f6057600080fd5b81516020614f7061424b836141d3565b82815260059290921b84018101918181019086841115614f8f57600080fd5b8286015b848110156142d657805167ffffffffffffffff811115614fb35760008081fd5b8701603f81018913614fc55760008081fd5b848101516040614fd761424b836141f7565b8281528b82848601011115614fec5760008081fd5b614ffb8389830184870161477f565b8652505050918301918301614f93565b60006020828403121561501d57600080fd5b815167ffffffffffffffff8082111561503557600080fd5b9083019060a0828603121561504957600080fd5b615051614161565b8251815260208301518281111561506757600080fd5b61507387828601614ef4565b60208301525060408301518281111561508b57600080fd5b61509787828601614f4f565b6040830152506060830151828111156150af57600080fd5b6150bb87828601614ef4565b6060830152506080830151828111156150d357600080fd5b6150df87828601614ef4565b60808301525095945050505050565b600081526000825161510781600185016020870161477f565b9190910160010192915050565b60006020828403121561512657600080fd5b81518015158114611d4f57600080fd5b60006020828403121561514857600080fd5b5051919050565b7f630000000000000000000000000000000000000000000000000000000000000081527fffffffff000000000000000000000000000000000000000000000000000000008360e01b1660018201527f80600e6000396000f300000000000000000000000000000000000000000000006005820152600082516151d881600e85016020870161477f565b91909101600e019392505050565b6000826151f5576151f5614bed565b500690565b600181815b8085111561525357817fffffffffffffffffffffffffffffffffffffffffffffffffffffffffffffffff0482111561523957615239614b81565b8085161561524657918102915b93841c93908002906151ff565b509250929050565b60008261526a57506001611ba3565b8161527757506000611ba3565b816001811461528d5760028114615297576152b3565b6001915050611ba3565b60ff8411156152a8576152a8614b81565b50506001821b611ba3565b5060208310610133831016604e8410600b84101617156152d6575081810a611ba3565b6152e083836151fa565b807fffffffffffffffffffffffffffffffffffffffffffffffffffffffffffffffff0482111561531257615312614b81565b029392505050565b6000611d4f838361525b565b604080825283519082018190526000906020906060840190828701845b8281101561537557815173ffffffffffffffffffffffffffffffffffffffff1684529284019290840190600101615343565b505050838103828501526153898186614979565b9695505050505050565b6000602082840312156153a557600080fd5b815167ffffffffffffffff8111156153bc57600080fd5b6125ab84828501614ef4565b600082516153da81846020870161477f565b919091019291505056fea2646970667358221220d383b0ca78544096477bb37776ed40e167aae57ec972ea3f1ecbfbcff53f9df164736f6c634300080a0033",
  "linkReferences": {},
  "deployedLinkReferences": {}
}