{
  "_format": "hh-sol-artifact-1",
  "contractName": "VerifyFactory",
  "sourceName": "contracts/verify/VerifyFactory.sol",
  "abi": [
    {
      "inputs": [],
      "stateMutability": "nonpayable",
      "type": "constructor"
    },
    {
      "anonymous": false,
      "inputs": [
        {
          "indexed": false,
          "internalType": "address",
          "name": "sender",
          "type": "address"
        },
        {
          "indexed": false,
          "internalType": "address",
          "name": "implementation",
          "type": "address"
        }
      ],
      "name": "Implementation",
      "type": "event"
    },
    {
      "anonymous": false,
      "inputs": [
        {
          "indexed": false,
          "internalType": "address",
          "name": "sender",
          "type": "address"
        },
        {
          "indexed": false,
          "internalType": "address",
          "name": "child",
          "type": "address"
        }
      ],
      "name": "NewChild",
      "type": "event"
    },
    {
      "inputs": [
        {
          "internalType": "bytes",
          "name": "data_",
          "type": "bytes"
        }
      ],
      "name": "createChild",
      "outputs": [
        {
          "internalType": "address",
          "name": "",
          "type": "address"
        }
      ],
      "stateMutability": "nonpayable",
      "type": "function"
    },
    {
      "inputs": [
        {
          "internalType": "address",
          "name": "admin_",
          "type": "address"
        }
      ],
      "name": "createChildTyped",
      "outputs": [
        {
          "internalType": "contract Verify",
          "name": "",
          "type": "address"
        }
      ],
      "stateMutability": "nonpayable",
      "type": "function"
    },
    {
      "inputs": [
        {
          "internalType": "address",
          "name": "maybeChild_",
          "type": "address"
        }
      ],
      "name": "isChild",
      "outputs": [
        {
          "internalType": "bool",
          "name": "",
          "type": "bool"
        }
      ],
      "stateMutability": "view",
      "type": "function"
    }
  ],
  "bytecode": "0x60a060405234801561001057600080fd5b506001600090815560405161002490610096565b604051809103906000f080158015610040573d6000803e3d6000fd5b50604080513381526001600160a01b03831660208201529192507f7fac34ecf0b1b374cd9659e3d17db602659d53f1162b1f20142e6c02694aed70910160405180910390a16001600160a01b03166080526100a3565b61205c8061068883390190565b6080516105ca6100be60003960006102b501526105ca6000f3fe608060405234801561001057600080fd5b50600436106100415760003560e01c80632ea72a4914610046578063b536745114610083578063fc91a89714610096575b600080fd5b610059610054366004610449565b6100df565b60405173ffffffffffffffffffffffffffffffffffffffff90911681526020015b60405180910390f35b6100596100913660046104e0565b6101fd565b6100cf6100a43660046104e0565b73ffffffffffffffffffffffffffffffffffffffff1660009081526001602052604090205460ff1690565b604051901515815260200161007a565b600060026000541415610153576040517f08c379a000000000000000000000000000000000000000000000000000000000815260206004820152601f60248201527f5265656e7472616e637947756172643a207265656e7472616e742063616c6c0060448201526064015b60405180910390fd5b60026000908155610164848461029d565b73ffffffffffffffffffffffffffffffffffffffff811660008181526001602081815260409283902080547fffffffffffffffffffffffffffffffffffffffffffffffffffffffffffffff00169092179091558151338152908101929092529192507f7da70c4e5387d7038610b79ca7d304caaef815826e51e67cf247135387a79bce910160405180910390a160016000559392505050565b6040805173ffffffffffffffffffffffffffffffffffffffff831660208201526000913091632ea72a4991016040516020818303038152906040526040518263ffffffff1660e01b81526004016102549190610504565b6020604051808303816000875af1158015610273573d6000803e3d6000fd5b505050506040513d601f19601f820116820180604052508101906102979190610577565b92915050565b6000806102ac838501856104e0565b905060006102d97f0000000000000000000000000000000000000000000000000000000000000000610367565b6040517fc4d66de800000000000000000000000000000000000000000000000000000000815273ffffffffffffffffffffffffffffffffffffffff84811660048301529192509082169063c4d66de890602401600060405180830381600087803b15801561034657600080fd5b505af115801561035a573d6000803e3d6000fd5b5092979650505050505050565b60006040517f3d602d80600a3d3981f3363d3d373d3d3d363d7300000000000000000000000081528260601b60148201527f5af43d82803e903d91602b57fd5bf3000000000000000000000000000000000060288201526037816000f091505073ffffffffffffffffffffffffffffffffffffffff8116610444576040517f08c379a000000000000000000000000000000000000000000000000000000000815260206004820152601660248201527f455243313136373a20637265617465206661696c656400000000000000000000604482015260640161014a565b919050565b6000806020838503121561045c57600080fd5b823567ffffffffffffffff8082111561047457600080fd5b818501915085601f83011261048857600080fd5b81358181111561049757600080fd5b8660208285010111156104a957600080fd5b60209290920196919550909350505050565b73ffffffffffffffffffffffffffffffffffffffff811681146104dd57600080fd5b50565b6000602082840312156104f257600080fd5b81356104fd816104bb565b9392505050565b600060208083528351808285015260005b8181101561053157858101830151858201604001528201610515565b81811115610543576000604083870101525b50601f017fffffffffffffffffffffffffffffffffffffffffffffffffffffffffffffffe016929092016040019392505050565b60006020828403121561058957600080fd5b81516104fd816104bb56fea26469706673582212201888360061e2c741ef993ccbf9c8a065a622ff2debf3f31ba189792bff31ecc864736f6c634300080a0033608060405234801561001057600080fd5b5061203c806100206000396000f3fe608060405234801561001057600080fd5b50600436106101825760003560e01c806349200777116100d8578063a217fddf1161008c578063c4d66de811610066578063c4d66de814610465578063d547741f14610478578063f14e1c321461048b57600080fd5b8063a217fddf14610423578063b8c55bfa1461042b578063ba6581111461045257600080fd5b80637547a867116100bd5780637547a8671461039157806381792e44146103b857806391d14854146103df57600080fd5b8063492007771461036b57806368fcae0c1461037e57600080fd5b8063248a9ca31161013a57806336568abe1161011457806336568abe1461031e5780633d111c7e1461033157806342c8a14d1461035857600080fd5b8063248a9ca3146102335780632f2ff15d1461025657806331e658a51461026957600080fd5b80630523522e1161016b5780630523522e146101c4578063100ec998146101d75780631e2109121461020c57600080fd5b8063014647f41461018757806301ffc9a71461019c575b600080fd5b61019a610195366004611b31565b61049e565b005b6101af6101aa366004611b84565b61083b565b60405190151581526020015b60405180910390f35b61019a6101d2366004611b31565b6108d4565b6101fe7f9d65f741849e7609dd1e2c70f0d7da5f5433b36bfcf3ba4d27d2bb08ad2155b181565b6040519081526020016101bb565b6101fe7f2d4d1d70bd81797c3479f5c3f873a5c9203d249659c3b317cdad46367472783c81565b6101fe610241366004611bc6565b60009081526020819052604090206001015490565b61019a610264366004611bdf565b6109d6565b6102ef610277366004611c0b565b60408051606080820183526000808352602080840182905292840181905273ffffffffffffffffffffffffffffffffffffffff9490941684526002825292829020825193840183525463ffffffff80821685526401000000008204811692850192909252680100000000000000009004169082015290565b60408051825163ffffffff908116825260208085015182169083015292820151909216908201526060016101bb565b61019a61032c366004611bdf565b610a01565b6101fe7f5ff1fb0ce9089603e6e193667ed17164e0360a6148f4a39fc194055588948a3181565b6101fe610366366004611c69565b610ab4565b61019a610379366004611b31565b610b22565b61019a61038c366004611b31565b610dfe565b6101fe7f794e4221ebb6dd4e460d558b4ec709511d44017d6610ba89daa896c0684ddfac81565b6101fe7fbb496ca6fee71a17f78592fbc6fc7f04a436edb9c709c4289d6bbfbc5fd45f4d81565b6101af6103ed366004611bdf565b60009182526020828152604080842073ffffffffffffffffffffffffffffffffffffffff93909316845291905290205460ff1690565b6101fe600081565b6101fe7f5a686c9d070917be517818979fb56f451f007e3ae83e96fb5a22a304929b070d81565b61019a610460366004611d14565b610f94565b61019a610473366004611c0b565b61111b565b61019a610486366004611bdf565b61148e565b61019a610499366004611b31565b6114b4565b73ffffffffffffffffffffffffffffffffffffffff8316610520576040517f08c379a000000000000000000000000000000000000000000000000000000000815260206004820152600960248201527f305f41444452455353000000000000000000000000000000000000000000000060448201526064015b60405180910390fd5b3360009081527fc21e5385eb0f0a5f01809eb1bc7004c565b4b7a3930450ce3f47ca195f3fbfa8602052604090205460ff166105b8576040517f08c379a000000000000000000000000000000000000000000000000000000000815260206004820152600d60248201527f4f4e4c595f415050524f564552000000000000000000000000000000000000006044820152606401610517565b73ffffffffffffffffffffffffffffffffffffffff83166000908152600260209081526040918290208251606081018452905463ffffffff80821680845264010000000083048216948401949094526801000000000000000090910416928101929092526001111561065e57604080516060808201835260008083526020808401829052928401528251908101835263ffffffff43811682529181018290529182015290505b602081015163ffffffff908116146106d2576040517f08c379a000000000000000000000000000000000000000000000000000000000815260206004820152600d60248201527f5052494f525f415050524f5645000000000000000000000000000000000000006044820152606401610517565b604081015163ffffffff90811614610746576040517f08c379a000000000000000000000000000000000000000000000000000000000815260206004820152600960248201527f5052494f525f42414e00000000000000000000000000000000000000000000006044820152606401610517565b63ffffffff438116602080840191825273ffffffffffffffffffffffffffffffffffffffff87166000908152600290915260409081902084518154935183870151861668010000000000000000027fffffffffffffffffffffffffffffffffffffffff00000000ffffffffffffffff918716640100000000027fffffffffffffffffffffffffffffffffffffffffffffffff000000000000000090961692909616919091179390931792909216929092179055517fd260a8fc3d84d9b8ae82c111d0dbf676366876cecaf3bb0fac9239f8707960719061082d903390879087908790611d9f565b60405180910390a150505050565b60007fffffffff0000000000000000000000000000000000000000000000000000000082167f7965db0b0000000000000000000000000000000000000000000000000000000014806108ce57507f01ffc9a7000000000000000000000000000000000000000000000000000000007fffffffff000000000000000000000000000000000000000000000000000000008316145b92915050565b336000908152600260208181526040928390208351606081018552905463ffffffff80821683526401000000008204811693830193909352680100000000000000009004909116928101929092529061092d9043610ab4565b14610994576040517f08c379a000000000000000000000000000000000000000000000000000000000815260206004820152600d60248201527f4f4e4c595f415050524f564544000000000000000000000000000000000000006044820152606401610517565b7f71328722ac2b1340de5247b509492d26bc509171013057a549e9d4fe12a248d5338484846040516109c99493929190611d9f565b60405180910390a1505050565b6000828152602081905260409020600101546109f281336115a9565b6109fc8383611679565b505050565b73ffffffffffffffffffffffffffffffffffffffff81163314610aa6576040517f08c379a000000000000000000000000000000000000000000000000000000000815260206004820152602f60248201527f416363657373436f6e74726f6c3a2063616e206f6e6c792072656e6f756e636560448201527f20726f6c657320666f722073656c6600000000000000000000000000000000006064820152608401610517565b610ab08282611769565b5050565b60006001836000015163ffffffff161015610ad1575060006108ce565b81836040015163ffffffff1611610aea575060036108ce565b81836020015163ffffffff1611610b03575060026108ce565b825163ffffffff168210610b19575060016108ce565b50600092915050565b73ffffffffffffffffffffffffffffffffffffffff8316610b9f576040517f08c379a000000000000000000000000000000000000000000000000000000000815260206004820152600960248201527f305f4144445245535300000000000000000000000000000000000000000000006044820152606401610517565b3360009081527f735f115fb46a48f193bc767158a2a2b7e8e8df9661580761de47a27880ba3345602052604090205460ff16610c37576040517f08c379a000000000000000000000000000000000000000000000000000000000815260206004820152600b60248201527f4f4e4c595f42414e4e45520000000000000000000000000000000000000000006044820152606401610517565b73ffffffffffffffffffffffffffffffffffffffff831660009081526002602052604090205463ffffffff16610cc9576040517f08c379a000000000000000000000000000000000000000000000000000000000815260206004820152600960248201527f4e4f545f414444454400000000000000000000000000000000000000000000006044820152606401610517565b73ffffffffffffffffffffffffffffffffffffffff831660009081526002602052604090205468010000000000000000900463ffffffff90811614610d6a576040517f08c379a000000000000000000000000000000000000000000000000000000000815260206004820152600960248201527f5052494f525f42414e00000000000000000000000000000000000000000000006044820152606401610517565b73ffffffffffffffffffffffffffffffffffffffff83166000908152600260205260409081902080547fffffffffffffffffffffffffffffffffffffffff00000000ffffffffffffffff16680100000000000000004363ffffffff1602179055517fb3e42de04a4943505b60c2b56736d694e459a13041abbcdb422043ffe0fb836d906109c9903390869086908690611d9f565b73ffffffffffffffffffffffffffffffffffffffff8316610e7b576040517f08c379a000000000000000000000000000000000000000000000000000000000815260206004820152600960248201527f305f4144445245535300000000000000000000000000000000000000000000006044820152606401610517565b3360009081527fd9d764858b43a233bf46227b55581d0d561bf145f134f1bef79ffaf13a4cbe5b602052604090205460ff16610f13576040517f08c379a000000000000000000000000000000000000000000000000000000000815260206004820152600c60248201527f4f4e4c595f52454d4f56455200000000000000000000000000000000000000006044820152606401610517565b73ffffffffffffffffffffffffffffffffffffffff83166000908152600260205260409081902080547fffffffffffffffffffffffffffffffffffffffff000000000000000000000000169055517f6802229665770c6e87ad6caf1462f48ffd48ebbd15c350d3e8c4e25121d19e69906109c9903390869086908690611d9f565b33600090815260026020526040902054600163ffffffff90911610611015576040517f08c379a000000000000000000000000000000000000000000000000000000000815260206004820152600960248201527f5052494f525f41444400000000000000000000000000000000000000000000006044820152606401610517565b604080516060808201835260008083526020808401829052928401528251908101835263ffffffff4381168252918101829052918201523360008181526002602090815260409182902084518154928601519584015163ffffffff90811668010000000000000000027fffffffffffffffffffffffffffffffffffffffff00000000ffffffffffffffff978216640100000000027fffffffffffffffffffffffffffffffffffffffffffffffff0000000000000000909516919092161792909217949094161790925590517fdf270d8e96e7a44420c5141f6addd45d3142335608b710893e9e4ea5704e6a639161110f9185908590611de3565b60405180910390a15050565b600154610100900460ff166111365760015460ff161561113a565b303b155b6111c6576040517f08c379a000000000000000000000000000000000000000000000000000000000815260206004820152602e60248201527f496e697469616c697a61626c653a20636f6e747261637420697320616c72656160448201527f647920696e697469616c697a65640000000000000000000000000000000000006064820152608401610517565b600154610100900460ff1615801561120557600180547fffffffffffffffffffffffffffffffffffffffffffffffffffffffffffff0000166101011790555b73ffffffffffffffffffffffffffffffffffffffff8216611282576040517f08c379a000000000000000000000000000000000000000000000000000000000815260206004820152600960248201527f305f4143434f554e5400000000000000000000000000000000000000000000006044820152606401610517565b6112ac7f2d4d1d70bd81797c3479f5c3f873a5c9203d249659c3b317cdad46367472783c80611820565b6112f67f5ff1fb0ce9089603e6e193667ed17164e0360a6148f4a39fc194055588948a317f2d4d1d70bd81797c3479f5c3f873a5c9203d249659c3b317cdad46367472783c611820565b6113207f9d65f741849e7609dd1e2c70f0d7da5f5433b36bfcf3ba4d27d2bb08ad2155b180611820565b61136a7f794e4221ebb6dd4e460d558b4ec709511d44017d6610ba89daa896c0684ddfac7f9d65f741849e7609dd1e2c70f0d7da5f5433b36bfcf3ba4d27d2bb08ad2155b1611820565b6113947fbb496ca6fee71a17f78592fbc6fc7f04a436edb9c709c4289d6bbfbc5fd45f4d80611820565b6113de7f5a686c9d070917be517818979fb56f451f007e3ae83e96fb5a22a304929b070d7fbb496ca6fee71a17f78592fbc6fc7f04a436edb9c709c4289d6bbfbc5fd45f4d611820565b6114087f2d4d1d70bd81797c3479f5c3f873a5c9203d249659c3b317cdad46367472783c8361186b565b6114327f9d65f741849e7609dd1e2c70f0d7da5f5433b36bfcf3ba4d27d2bb08ad2155b18361186b565b61145c7fbb496ca6fee71a17f78592fbc6fc7f04a436edb9c709c4289d6bbfbc5fd45f4d8361186b565b8015610ab057600180547fffffffffffffffffffffffffffffffffffffffffffffffffffffffffffff00ff1690555050565b6000828152602081905260409020600101546114aa81336115a9565b6109fc8383611769565b336000908152600260208181526040928390208351606081018552905463ffffffff80821683526401000000008204811693830193909352680100000000000000009004909116928101929092529061150d9043610ab4565b14611574576040517f08c379a000000000000000000000000000000000000000000000000000000000815260206004820152600d60248201527f4f4e4c595f415050524f564544000000000000000000000000000000000000006044820152606401610517565b7f84980d28674a2fa3c0451d5e92a72556e899c0a11d162890acdb914a6d996336338484846040516109c99493929190611d9f565b60008281526020818152604080832073ffffffffffffffffffffffffffffffffffffffff8516845290915290205460ff16610ab0576115ff8173ffffffffffffffffffffffffffffffffffffffff166014611875565b61160a836020611875565b60405160200161161b929190611e4c565b604080517fffffffffffffffffffffffffffffffffffffffffffffffffffffffffffffffe0818403018152908290527f08c379a000000000000000000000000000000000000000000000000000000000825261051791600401611ecd565b60008281526020818152604080832073ffffffffffffffffffffffffffffffffffffffff8516845290915290205460ff16610ab05760008281526020818152604080832073ffffffffffffffffffffffffffffffffffffffff85168452909152902080547fffffffffffffffffffffffffffffffffffffffffffffffffffffffffffffff0016600117905561170b3390565b73ffffffffffffffffffffffffffffffffffffffff168173ffffffffffffffffffffffffffffffffffffffff16837f2f8788117e7eff1d82e926ec794901d17c78024a50270940304540a733656f0d60405160405180910390a45050565b60008281526020818152604080832073ffffffffffffffffffffffffffffffffffffffff8516845290915290205460ff1615610ab05760008281526020818152604080832073ffffffffffffffffffffffffffffffffffffffff8516808552925280832080547fffffffffffffffffffffffffffffffffffffffffffffffffffffffffffffff0016905551339285917ff6391f5c32d9c69d2a47ea670b442974b53935d1edc7fd64eb21e047a839171b9190a45050565b600082815260208190526040808220600101805490849055905190918391839186917fbd79b86ffe0ab8e8776151514217cd7cacd52c909f66475c3af44e129f0b00ff9190a4505050565b610ab08282611679565b60606000611884836002611f4d565b61188f906002611f8a565b67ffffffffffffffff8111156118a7576118a7611c26565b6040519080825280601f01601f1916602001820160405280156118d1576020820181803683370190505b5090507f30000000000000000000000000000000000000000000000000000000000000008160008151811061190857611908611fa2565b60200101907effffffffffffffffffffffffffffffffffffffffffffffffffffffffffffff1916908160001a9053507f78000000000000000000000000000000000000000000000000000000000000008160018151811061196b5761196b611fa2565b60200101907effffffffffffffffffffffffffffffffffffffffffffffffffffffffffffff1916908160001a90535060006119a7846002611f4d565b6119b2906001611f8a565b90505b6001811115611a4f577f303132333435363738396162636465660000000000000000000000000000000085600f16601081106119f3576119f3611fa2565b1a60f81b828281518110611a0957611a09611fa2565b60200101907effffffffffffffffffffffffffffffffffffffffffffffffffffffffffffff1916908160001a90535060049490941c93611a4881611fd1565b90506119b5565b508315611ab8576040517f08c379a000000000000000000000000000000000000000000000000000000000815260206004820181905260248201527f537472696e67733a20686578206c656e67746820696e73756666696369656e746044820152606401610517565b9392505050565b803573ffffffffffffffffffffffffffffffffffffffff81168114611ae357600080fd5b919050565b60008083601f840112611afa57600080fd5b50813567ffffffffffffffff811115611b1257600080fd5b602083019150836020828501011115611b2a57600080fd5b9250929050565b600080600060408486031215611b4657600080fd5b611b4f84611abf565b9250602084013567ffffffffffffffff811115611b6b57600080fd5b611b7786828701611ae8565b9497909650939450505050565b600060208284031215611b9657600080fd5b81357fffffffff0000000000000000000000000000000000000000000000000000000081168114611ab857600080fd5b600060208284031215611bd857600080fd5b5035919050565b60008060408385031215611bf257600080fd5b82359150611c0260208401611abf565b90509250929050565b600060208284031215611c1d57600080fd5b611ab882611abf565b7f4e487b7100000000000000000000000000000000000000000000000000000000600052604160045260246000fd5b803563ffffffff81168114611ae357600080fd5b6000808284036080811215611c7d57600080fd5b6060811215611c8b57600080fd5b506040516060810181811067ffffffffffffffff82111715611cd6577f4e487b7100000000000000000000000000000000000000000000000000000000600052604160045260246000fd5b604052611ce284611c55565b8152611cf060208501611c55565b6020820152611d0160408501611c55565b6040820152946060939093013593505050565b60008060208385031215611d2757600080fd5b823567ffffffffffffffff811115611d3e57600080fd5b611d4a85828601611ae8565b90969095509350505050565b8183528181602085013750600060208284010152600060207fffffffffffffffffffffffffffffffffffffffffffffffffffffffffffffffe0601f840116840101905092915050565b600073ffffffffffffffffffffffffffffffffffffffff808716835280861660208401525060606040830152611dd9606083018486611d56565b9695505050505050565b73ffffffffffffffffffffffffffffffffffffffff84168152604060208201526000611e13604083018486611d56565b95945050505050565b60005b83811015611e37578181015183820152602001611e1f565b83811115611e46576000848401525b50505050565b7f416363657373436f6e74726f6c3a206163636f756e7420000000000000000000815260008351611e84816017850160208801611e1c565b7f206973206d697373696e6720726f6c65200000000000000000000000000000006017918401918201528351611ec1816028840160208801611e1c565b01602801949350505050565b6020815260008251806020840152611eec816040850160208701611e1c565b601f017fffffffffffffffffffffffffffffffffffffffffffffffffffffffffffffffe0169190910160400192915050565b7f4e487b7100000000000000000000000000000000000000000000000000000000600052601160045260246000fd5b6000817fffffffffffffffffffffffffffffffffffffffffffffffffffffffffffffffff0483118215151615611f8557611f85611f1e565b500290565b60008219821115611f9d57611f9d611f1e565b500190565b7f4e487b7100000000000000000000000000000000000000000000000000000000600052603260045260246000fd5b600081611fe057611fe0611f1e565b507fffffffffffffffffffffffffffffffffffffffffffffffffffffffffffffffff019056fea264697066735822122003f64ceba2b6e14971595fe15f1d12d1baa7f99b0d63066e1125bf99c4ba178764736f6c634300080a0033",
  "linkReferences": {},
  "deployedLinkReferences": {}
}